{
  "_format": "hh-sol-artifact-1",
  "contractName": "CommunityPassport",
  "sourceName": "contracts/CommunityPassport.sol",
  "abi": [
    {
      "inputs": [
        {
          "internalType": "string",
          "name": "_name",
          "type": "string"
        },
        {
          "internalType": "string",
          "name": "_symbol",
          "type": "string"
        },
        {
          "internalType": "string",
          "name": "_baseURI",
          "type": "string"
        },
        {
          "internalType": "string",
          "name": "_initialContractURI",
          "type": "string"
        },
        {
          "internalType": "uint32",
          "name": "_communityId",
          "type": "uint32"
        }
      ],
      "stateMutability": "nonpayable",
      "type": "constructor"
    },
    {
      "inputs": [],
      "name": "ErrLocked",
      "type": "error"
    },
    {
      "inputs": [],
      "name": "ErrNotFound",
      "type": "error"
    },
    {
      "anonymous": false,
      "inputs": [
        {
          "indexed": true,
          "internalType": "address",
          "name": "publisher",
          "type": "address"
        },
        {
          "indexed": true,
          "internalType": "address",
          "name": "user",
          "type": "address"
        },
        {
          "indexed": false,
          "internalType": "uint256",
          "name": "passportId",
          "type": "uint256"
        },
        {
          "indexed": false,
          "internalType": "uint32",
          "name": "oldExp",
          "type": "uint32"
        },
        {
          "indexed": false,
          "internalType": "uint32",
          "name": "newExp",
          "type": "uint32"
        }
      ],
      "name": "AddExp",
      "type": "event"
    },
    {
      "anonymous": false,
      "inputs": [
        {
          "indexed": true,
          "internalType": "address",
          "name": "owner",
          "type": "address"
        },
        {
          "indexed": true,
          "internalType": "address",
          "name": "approved",
          "type": "address"
        },
        {
          "indexed": true,
          "internalType": "uint256",
          "name": "tokenId",
          "type": "uint256"
        }
      ],
      "name": "Approval",
      "type": "event"
    },
    {
      "anonymous": false,
      "inputs": [
        {
          "indexed": true,
          "internalType": "address",
          "name": "owner",
          "type": "address"
        },
        {
          "indexed": true,
          "internalType": "address",
          "name": "operator",
          "type": "address"
        },
        {
          "indexed": false,
          "internalType": "bool",
          "name": "approved",
          "type": "bool"
        }
      ],
      "name": "ApprovalForAll",
      "type": "event"
    },
    {
      "anonymous": false,
      "inputs": [
        {
          "indexed": true,
          "internalType": "address",
          "name": "previousOwner",
          "type": "address"
        },
        {
          "indexed": true,
          "internalType": "address",
          "name": "newOwner",
          "type": "address"
        }
      ],
      "name": "OwnershipTransferred",
      "type": "event"
    },
    {
      "anonymous": false,
      "inputs": [
        {
          "indexed": true,
          "internalType": "address",
          "name": "publisher",
          "type": "address"
        },
        {
          "indexed": false,
          "internalType": "string",
          "name": "oldValue",
          "type": "string"
        },
        {
          "indexed": false,
          "internalType": "string",
          "name": "newValue",
          "type": "string"
        }
      ],
      "name": "SetBaseURI",
      "type": "event"
    },
    {
      "anonymous": false,
      "inputs": [
        {
          "indexed": true,
          "internalType": "address",
          "name": "publisher",
          "type": "address"
        },
        {
          "indexed": false,
          "internalType": "string",
          "name": "oldValue",
          "type": "string"
        },
        {
          "indexed": false,
          "internalType": "string",
          "name": "newValue",
          "type": "string"
        }
      ],
      "name": "SetContractURI",
      "type": "event"
    },
    {
      "anonymous": false,
      "inputs": [
        {
          "indexed": true,
          "internalType": "address",
          "name": "from",
          "type": "address"
        },
        {
          "indexed": true,
          "internalType": "address",
          "name": "to",
          "type": "address"
        },
        {
          "indexed": true,
          "internalType": "uint256",
          "name": "tokenId",
          "type": "uint256"
        }
      ],
      "name": "Transfer",
      "type": "event"
    },
    {
      "inputs": [
        {
          "internalType": "address",
          "name": "user",
          "type": "address"
        },
        {
          "internalType": "uint32",
          "name": "exp",
          "type": "uint32"
        }
      ],
      "name": "addExp",
      "outputs": [],
      "stateMutability": "nonpayable",
      "type": "function"
    },
    {
      "inputs": [
        {
          "internalType": "address",
          "name": "approved",
          "type": "address"
        },
        {
          "internalType": "uint256",
          "name": "tokenId",
          "type": "uint256"
        }
      ],
      "name": "approve",
      "outputs": [],
      "stateMutability": "nonpayable",
      "type": "function"
    },
    {
      "inputs": [
        {
          "internalType": "address",
          "name": "owner",
          "type": "address"
        }
      ],
      "name": "balanceOf",
      "outputs": [
        {
          "internalType": "uint256",
          "name": "",
          "type": "uint256"
        }
      ],
      "stateMutability": "view",
      "type": "function"
    },
    {
      "inputs": [],
      "name": "baseURI",
      "outputs": [
        {
          "internalType": "string",
          "name": "",
          "type": "string"
        }
      ],
      "stateMutability": "view",
      "type": "function"
    },
    {
      "inputs": [],
      "name": "burn",
      "outputs": [],
      "stateMutability": "nonpayable",
      "type": "function"
    },
    {
      "inputs": [
        {
          "internalType": "address[]",
          "name": "userList",
          "type": "address[]"
        }
      ],
      "name": "checkBatchUser",
      "outputs": [
        {
          "internalType": "bool[]",
          "name": "",
          "type": "bool[]"
        }
      ],
      "stateMutability": "view",
      "type": "function"
    },
    {
      "inputs": [],
      "name": "communityId",
      "outputs": [
        {
          "internalType": "uint32",
          "name": "",
          "type": "uint32"
        }
      ],
      "stateMutability": "view",
      "type": "function"
    },
    {
      "inputs": [],
      "name": "contractURI",
      "outputs": [
        {
          "internalType": "string",
          "name": "",
          "type": "string"
        }
      ],
      "stateMutability": "view",
      "type": "function"
    },
    {
      "inputs": [
        {
          "internalType": "uint256",
          "name": "tokenId",
          "type": "uint256"
        }
      ],
      "name": "getApproved",
      "outputs": [
        {
          "internalType": "address",
          "name": "",
          "type": "address"
        }
      ],
      "stateMutability": "view",
      "type": "function"
    },
    {
      "inputs": [
        {
          "internalType": "address",
          "name": "user",
          "type": "address"
        }
      ],
      "name": "getPassport",
      "outputs": [
        {
          "components": [
            {
              "internalType": "string",
              "name": "passportURI",
              "type": "string"
            },
            {
              "internalType": "address",
              "name": "user",
              "type": "address"
            },
            {
              "internalType": "uint32",
              "name": "exp",
              "type": "uint32"
            }
          ],
          "internalType": "struct ICommunityPassport.Passport",
          "name": "",
          "type": "tuple"
        }
      ],
      "stateMutability": "view",
      "type": "function"
    },
    {
      "inputs": [
        {
          "internalType": "uint256",
          "name": "page",
          "type": "uint256"
        },
        {
          "internalType": "uint256",
          "name": "pageSize",
          "type": "uint256"
        }
      ],
      "name": "getPassportList",
      "outputs": [
        {
          "components": [
            {
              "internalType": "string",
              "name": "passportURI",
              "type": "string"
            },
            {
              "internalType": "address",
              "name": "user",
              "type": "address"
            },
            {
              "internalType": "uint32",
              "name": "exp",
              "type": "uint32"
            }
          ],
          "internalType": "struct ICommunityPassport.Passport[]",
          "name": "",
          "type": "tuple[]"
        },
        {
          "internalType": "uint256",
          "name": "",
          "type": "uint256"
        }
      ],
      "stateMutability": "view",
      "type": "function"
    },
    {
      "inputs": [
        {
          "internalType": "address",
          "name": "user",
          "type": "address"
        }
      ],
      "name": "getTokenURIFromAddress",
      "outputs": [
        {
          "internalType": "string",
          "name": "",
          "type": "string"
        }
      ],
      "stateMutability": "view",
      "type": "function"
    },
    {
      "inputs": [
        {
          "internalType": "uint256",
          "name": "page",
          "type": "uint256"
        },
        {
          "internalType": "uint256",
          "name": "pageSize",
          "type": "uint256"
        }
      ],
      "name": "getUserList",
      "outputs": [
        {
          "internalType": "address[]",
          "name": "",
          "type": "address[]"
        },
        {
          "internalType": "uint256",
          "name": "",
          "type": "uint256"
        }
      ],
      "stateMutability": "view",
      "type": "function"
    },
    {
      "inputs": [
        {
          "internalType": "address",
          "name": "addr",
          "type": "address"
        }
      ],
      "name": "hashMsgSender",
      "outputs": [
        {
          "internalType": "uint256",
          "name": "",
          "type": "uint256"
        }
      ],
      "stateMutability": "pure",
      "type": "function"
    },
    {
      "inputs": [
        {
          "internalType": "address",
          "name": "owner",
          "type": "address"
        },
        {
          "internalType": "address",
          "name": "operator",
          "type": "address"
        }
      ],
      "name": "isApprovedForAll",
      "outputs": [
        {
          "internalType": "bool",
          "name": "",
          "type": "bool"
        }
      ],
      "stateMutability": "view",
      "type": "function"
    },
    {
      "inputs": [
        {
          "internalType": "uint256",
          "name": "tokenId",
          "type": "uint256"
        }
      ],
      "name": "locked",
      "outputs": [
        {
          "internalType": "bool",
          "name": "",
          "type": "bool"
        }
      ],
      "stateMutability": "view",
      "type": "function"
    },
    {
      "inputs": [],
      "name": "name",
      "outputs": [
        {
          "internalType": "string",
          "name": "",
          "type": "string"
        }
      ],
      "stateMutability": "view",
      "type": "function"
    },
    {
      "inputs": [],
      "name": "owner",
      "outputs": [
        {
          "internalType": "address",
          "name": "",
          "type": "address"
        }
      ],
      "stateMutability": "view",
      "type": "function"
    },
    {
      "inputs": [
        {
          "internalType": "uint256",
          "name": "tokenId",
          "type": "uint256"
        }
      ],
      "name": "ownerOf",
      "outputs": [
        {
          "internalType": "address",
          "name": "",
          "type": "address"
        }
      ],
      "stateMutability": "view",
      "type": "function"
    },
    {
      "inputs": [],
      "name": "renounceOwnership",
      "outputs": [],
      "stateMutability": "nonpayable",
      "type": "function"
    },
    {
      "inputs": [],
      "name": "safeMint",
      "outputs": [],
      "stateMutability": "nonpayable",
      "type": "function"
    },
    {
      "inputs": [
        {
          "internalType": "address",
          "name": "from",
          "type": "address"
        },
        {
          "internalType": "address",
          "name": "to",
          "type": "address"
        },
        {
          "internalType": "uint256",
          "name": "tokenId",
          "type": "uint256"
        }
      ],
      "name": "safeTransferFrom",
      "outputs": [],
      "stateMutability": "nonpayable",
      "type": "function"
    },
    {
      "inputs": [
        {
          "internalType": "address",
          "name": "from",
          "type": "address"
        },
        {
          "internalType": "address",
          "name": "to",
          "type": "address"
        },
        {
          "internalType": "uint256",
          "name": "tokenId",
          "type": "uint256"
        },
        {
          "internalType": "bytes",
          "name": "data",
          "type": "bytes"
        }
      ],
      "name": "safeTransferFrom",
      "outputs": [],
      "stateMutability": "nonpayable",
      "type": "function"
    },
    {
      "inputs": [
        {
          "internalType": "address",
          "name": "operator",
          "type": "address"
        },
        {
          "internalType": "bool",
          "name": "approved",
          "type": "bool"
        }
      ],
      "name": "setApprovalForAll",
      "outputs": [],
      "stateMutability": "nonpayable",
      "type": "function"
    },
    {
      "inputs": [
        {
          "internalType": "string",
          "name": "newBaseTokenURI",
          "type": "string"
        }
      ],
      "name": "setBaseURI",
      "outputs": [],
      "stateMutability": "nonpayable",
      "type": "function"
    },
    {
      "inputs": [
        {
          "internalType": "string",
          "name": "newContractURI",
          "type": "string"
        }
      ],
      "name": "setContractURI",
      "outputs": [],
      "stateMutability": "nonpayable",
      "type": "function"
    },
    {
      "inputs": [
        {
          "internalType": "bytes4",
          "name": "interfaceId",
          "type": "bytes4"
        }
      ],
      "name": "supportsInterface",
      "outputs": [
        {
          "internalType": "bool",
          "name": "",
          "type": "bool"
        }
      ],
      "stateMutability": "view",
      "type": "function"
    },
    {
      "inputs": [],
      "name": "symbol",
      "outputs": [
        {
          "internalType": "string",
          "name": "",
          "type": "string"
        }
      ],
      "stateMutability": "view",
      "type": "function"
    },
    {
      "inputs": [
        {
          "internalType": "uint256",
          "name": "passportId",
          "type": "uint256"
        }
      ],
      "name": "tokenURI",
      "outputs": [
        {
          "internalType": "string",
          "name": "",
          "type": "string"
        }
      ],
      "stateMutability": "view",
      "type": "function"
    },
    {
      "inputs": [],
      "name": "totalSupply",
      "outputs": [
        {
          "internalType": "uint256",
          "name": "",
          "type": "uint256"
        }
      ],
      "stateMutability": "view",
      "type": "function"
    },
    {
      "inputs": [
        {
          "internalType": "address",
          "name": "from",
          "type": "address"
        },
        {
          "internalType": "address",
          "name": "to",
          "type": "address"
        },
        {
          "internalType": "uint256",
          "name": "tokenId",
          "type": "uint256"
        }
      ],
      "name": "transferFrom",
      "outputs": [],
      "stateMutability": "nonpayable",
      "type": "function"
    },
    {
      "inputs": [
        {
          "internalType": "address",
          "name": "newOwner",
          "type": "address"
        }
      ],
      "name": "transferOwnership",
      "outputs": [],
      "stateMutability": "nonpayable",
      "type": "function"
    }
  ],
  "bytecode": "0x60a06040523480156200001157600080fd5b506040516200522738038062005227833981810160405281019062000037919062000383565b8484600182826200005d62000051620000e360201b60201c565b620000eb60201b60201c565b81600190816200006e9190620006d2565b508060029081620000809190620006d2565b50505080600760006101000a81548160ff02191690831515021790555050505082600b9081620000b19190620006d2565b5081600c9081620000c39190620006d2565b508063ffffffff1660808163ffffffff16815250505050505050620007b9565b600033905090565b60008060009054906101000a900473ffffffffffffffffffffffffffffffffffffffff169050816000806101000a81548173ffffffffffffffffffffffffffffffffffffffff021916908373ffffffffffffffffffffffffffffffffffffffff1602179055508173ffffffffffffffffffffffffffffffffffffffff168173ffffffffffffffffffffffffffffffffffffffff167f8be0079c531659141344cd1fd0a4f28419497f9722a3daafe3b4186f6b6457e060405160405180910390a35050565b6000604051905090565b600080fd5b600080fd5b600080fd5b600080fd5b6000601f19601f8301169050919050565b7f4e487b7100000000000000000000000000000000000000000000000000000000600052604160045260246000fd5b6200021882620001cd565b810181811067ffffffffffffffff821117156200023a5762000239620001de565b5b80604052505050565b60006200024f620001af565b90506200025d82826200020d565b919050565b600067ffffffffffffffff82111562000280576200027f620001de565b5b6200028b82620001cd565b9050602081019050919050565b60005b83811015620002b85780820151818401526020810190506200029b565b60008484015250505050565b6000620002db620002d58462000262565b62000243565b905082815260208101848484011115620002fa57620002f9620001c8565b5b6200030784828562000298565b509392505050565b600082601f830112620003275762000326620001c3565b5b815162000339848260208601620002c4565b91505092915050565b600063ffffffff82169050919050565b6200035d8162000342565b81146200036957600080fd5b50565b6000815190506200037d8162000352565b92915050565b600080600080600060a08688031215620003a257620003a1620001b9565b5b600086015167ffffffffffffffff811115620003c357620003c2620001be565b5b620003d1888289016200030f565b955050602086015167ffffffffffffffff811115620003f557620003f4620001be565b5b62000403888289016200030f565b945050604086015167ffffffffffffffff811115620004275762000426620001be565b5b62000435888289016200030f565b935050606086015167ffffffffffffffff811115620004595762000458620001be565b5b62000467888289016200030f565b92505060806200047a888289016200036c565b9150509295509295909350565b600081519050919050565b7f4e487b7100000000000000000000000000000000000000000000000000000000600052602260045260246000fd5b60006002820490506001821680620004da57607f821691505b602082108103620004f057620004ef62000492565b5b50919050565b60008190508160005260206000209050919050565b60006020601f8301049050919050565b600082821b905092915050565b6000600883026200055a7fffffffffffffffffffffffffffffffffffffffffffffffffffffffffffffffff826200051b565b6200056686836200051b565b95508019841693508086168417925050509392505050565b6000819050919050565b6000819050919050565b6000620005b3620005ad620005a7846200057e565b62000588565b6200057e565b9050919050565b6000819050919050565b620005cf8362000592565b620005e7620005de82620005ba565b84845462000528565b825550505050565b600090565b620005fe620005ef565b6200060b818484620005c4565b505050565b5b81811015620006335762000627600082620005f4565b60018101905062000611565b5050565b601f82111562000682576200064c81620004f6565b62000657846200050b565b8101602085101562000667578190505b6200067f62000676856200050b565b83018262000610565b50505b505050565b600082821c905092915050565b6000620006a76000198460080262000687565b1980831691505092915050565b6000620006c2838362000694565b9150826002028217905092915050565b620006dd8262000487565b67ffffffffffffffff811115620006f957620006f8620001de565b5b620007058254620004c1565b6200071282828562000637565b600060209050601f8311600181146200074a576000841562000735578287015190505b620007418582620006b4565b865550620007b1565b601f1984166200075a86620004f6565b60005b8281101562000784578489015182556001820191506020850194506020810190506200075d565b86831015620007a45784890151620007a0601f89168262000694565b8355505b6001600288020188555050505b505050505050565b608051614a52620007d560003960006112df0152614a526000f3fe608060405234801561001057600080fd5b50600436106101f05760003560e01c806370a082311161010f578063a22cb465116100a2578063c87b56dd11610071578063c87b56dd146105b9578063e8a3d485146105e9578063e985e9c514610607578063f2fde38b14610637576101f0565b8063a22cb46514610521578063a47307251461053d578063b45a3c0e1461056d578063b88d4fde1461059d576101f0565b80638da5cb5b116100de5780638da5cb5b14610498578063938e3d7b146104b657806395d89b41146104d25780639a31b027146104f0576101f0565b806370a0823114610410578063715018a6146104405780637f50861a1461044a57806380f753fa14610468576101f0565b8063514fbe5011610187578063593c402a11610156578063593c402a146103885780636352211e146103b85780636871ee40146103e85780636c0360eb146103f2576101f0565b8063514fbe50146102ef57806351cf296a1461032057806355f804b31461033c57806357a5893c14610358576101f0565b806318160ddd116101c357806318160ddd1461028f57806323b872dd146102ad57806342842e0e146102c957806344df8e70146102e5576101f0565b806301ffc9a7146101f557806306fdde0314610225578063081812fc14610243578063095ea7b314610273575b600080fd5b61020f600480360381019061020a9190612f8a565b610653565b60405161021c9190612fd2565b60405180910390f35b61022d6106cd565b60405161023a919061307d565b60405180910390f35b61025d600480360381019061025891906130d5565b61075f565b60405161026a9190613143565b60405180910390f35b61028d6004803603810190610288919061318a565b6107a5565b005b6102976107fa565b6040516102a491906131d9565b60405180910390f35b6102c760048036038101906102c291906131f4565b610807565b005b6102e360048036038101906102de91906131f4565b61085e565b005b6102ed6108b5565b005b61030960048036038101906103049190613247565b6108d1565b604051610317929190613345565b60405180910390f35b61033a600480360381019061033591906133b1565b610a6b565b005b61035660048036038101906103519190613526565b610bee565b005b610372600480360381019061036d919061356f565b610cea565b60405161037f9190613645565b60405180910390f35b6103a2600480360381019061039d919061372f565b610e33565b6040516103af9190613836565b60405180910390f35b6103d260048036038101906103cd91906130d5565b610ef7565b6040516103df9190613143565b60405180910390f35b6103f0610f7d565b005b6103fa611184565b604051610407919061307d565b60405180910390f35b61042a6004803603810190610425919061356f565b611212565b60405161043791906131d9565b60405180910390f35b6104486112c9565b005b6104526112dd565b60405161045f9190613867565b60405180910390f35b610482600480360381019061047d919061356f565b611301565b60405161048f91906131d9565b60405180910390f35b6104a0611334565b6040516104ad9190613143565b60405180910390f35b6104d060048036038101906104cb9190613526565b61135d565b005b6104da611458565b6040516104e7919061307d565b60405180910390f35b61050a60048036038101906105059190613247565b6114ea565b604051610518929190613994565b60405180910390f35b61053b600480360381019061053691906139f0565b611799565b005b6105576004803603810190610552919061356f565b6117ee565b604051610564919061307d565b60405180910390f35b610587600480360381019061058291906130d5565b611808565b6040516105949190612fd2565b60405180910390f35b6105b760048036038101906105b29190613ad1565b611860565b005b6105d360048036038101906105ce91906130d5565b6118b9565b6040516105e0919061307d565b60405180910390f35b6105f16119aa565b6040516105fe919061307d565b60405180910390f35b610621600480360381019061061c9190613b54565b611a3c565b60405161062e9190612fd2565b60405180910390f35b610651600480360381019061064c919061356f565b611ad0565b005b60007fb45a3c0e000000000000000000000000000000000000000000000000000000007bffffffffffffffffffffffffffffffffffffffffffffffffffffffff1916827bffffffffffffffffffffffffffffffffffffffffffffffffffffffff191614806106c657506106c582611b53565b5b9050919050565b6060600180546106dc90613bc3565b80601f016020809104026020016040519081016040528092919081815260200182805461070890613bc3565b80156107555780601f1061072a57610100808354040283529160200191610755565b820191906000526020600020905b81548152906001019060200180831161073857829003601f168201915b5050505050905090565b600061076a82611c35565b6005600083815260200190815260200160002060009054906101000a900473ffffffffffffffffffffffffffffffffffffffff169050919050565b600760009054906101000a900460ff16156107ec576040517fbd291a9500000000000000000000000000000000000000000000000000000000815260040160405180910390fd5b6107f68282611c80565b5050565b6000600980549050905090565b600760009054906101000a900460ff161561084e576040517fbd291a9500000000000000000000000000000000000000000000000000000000815260040160405180910390fd5b610859838383611d97565b505050565b600760009054906101000a900460ff16156108a5576040517fbd291a9500000000000000000000000000000000000000000000000000000000815260040160405180910390fd5b6108b0838383611df7565b505050565b6108c66108c133611301565b611e17565b6108cf33611f65565b565b60606000808311610917576040517f08c379a000000000000000000000000000000000000000000000000000000000815260040161090e90613c40565b60405180910390fd5b6000839050600980549050846001876109309190613c8f565b61093a9190613cc3565b11156109495760098054905090505b60008167ffffffffffffffff811115610965576109646133fb565b5b6040519080825280602002602001820160405280156109935781602001602082028036833780820191505090505b50905060005b82811015610a565760098187896109b09190613cc3565b6109ba9190613c8f565b815481106109cb576109ca613d05565b5b9060005260206000200160009054906101000a900473ffffffffffffffffffffffffffffffffffffffff16828281518110610a0957610a08613d05565b5b602002602001019073ffffffffffffffffffffffffffffffffffffffff16908173ffffffffffffffffffffffffffffffffffffffff16815250508080610a4e90613d34565b915050610999565b50806009805490509350935050509250929050565b610a7361212d565b6000610a7e83611301565b9050610a89816121ab565b610ac8576040517f08c379a0000000000000000000000000000000000000000000000000000000008152600401610abf90613dc8565b60405180910390fd5b60006008600083815260200190815260200160002060010160149054906101000a900463ffffffff169050826008600084815260200190815260200160002060010160149054906101000a900463ffffffff16610b259190613de8565b6008600084815260200190815260200160002060010160146101000a81548163ffffffff021916908363ffffffff1602179055508373ffffffffffffffffffffffffffffffffffffffff163373ffffffffffffffffffffffffffffffffffffffff167fc0d9509a5ec1a064cf962bd43cb5c96174ee6c9c7333d3a682e12bf6538d702984846008600088815260200190815260200160002060010160149054906101000a900463ffffffff16604051610be093929190613e20565b60405180910390a350505050565b610bf661212d565b6000600b8054610c0590613bc3565b80601f0160208091040260200160405190810160405280929190818152602001828054610c3190613bc3565b8015610c7e5780601f10610c5357610100808354040283529160200191610c7e565b820191906000526020600020905b815481529060010190602001808311610c6157829003601f168201915b5050505050905081600b9081610c949190614003565b503373ffffffffffffffffffffffffffffffffffffffff167f888a419ed9f083c91d256876ad4b9675c6c232a73698e8f808b596fbf873758782600b604051610cde929190614159565b60405180910390a25050565b610cf2612ee1565b6000610cfd83611301565b905060086000828152602001908152602001600020604051806060016040529081600082018054610d2d90613bc3565b80601f0160208091040260200160405190810160405280929190818152602001828054610d5990613bc3565b8015610da65780601f10610d7b57610100808354040283529160200191610da6565b820191906000526020600020905b815481529060010190602001808311610d8957829003601f168201915b505050505081526020016001820160009054906101000a900473ffffffffffffffffffffffffffffffffffffffff1673ffffffffffffffffffffffffffffffffffffffff1673ffffffffffffffffffffffffffffffffffffffff1681526020016001820160149054906101000a900463ffffffff1663ffffffff1663ffffffff1681525050915050919050565b60606000825167ffffffffffffffff811115610e5257610e516133fb565b5b604051908082528060200260200182016040528015610e805781602001602082028036833780820191505090505b50905060005b8351811015610eed576000610eb4858381518110610ea757610ea6613d05565b5b6020026020010151611212565b11828281518110610ec857610ec7613d05565b5b6020026020010190151590811515815250508080610ee590613d34565b915050610e86565b5080915050919050565b600080610f03836121ec565b9050600073ffffffffffffffffffffffffffffffffffffffff168173ffffffffffffffffffffffffffffffffffffffff1603610f74576040517f08c379a0000000000000000000000000000000000000000000000000000000008152600401610f6b906141dc565b60405180910390fd5b80915050919050565b600073ffffffffffffffffffffffffffffffffffffffff1660086000610fa233611301565b815260200190815260200160002060010160009054906101000a900473ffffffffffffffffffffffffffffffffffffffff1673ffffffffffffffffffffffffffffffffffffffff160361116757610ff7612ee1565b600b805461100490613bc3565b80601f016020809104026020016040519081016040528092919081815260200182805461103090613bc3565b801561107d5780601f106110525761010080835404028352916020019161107d565b820191906000526020600020905b81548152906001019060200180831161106057829003601f168201915b5050505050816000018190525033816020019073ffffffffffffffffffffffffffffffffffffffff16908173ffffffffffffffffffffffffffffffffffffffff168152505080600860006110d033611301565b815260200190815260200160002060008201518160000190816110f39190614003565b5060208201518160010160006101000a81548173ffffffffffffffffffffffffffffffffffffffff021916908373ffffffffffffffffffffffffffffffffffffffff16021790555060408201518160010160146101000a81548163ffffffff021916908363ffffffff160217905550905050505b6111793361117433611301565b612229565b61118233612247565b565b600b805461119190613bc3565b80601f01602080910402602001604051908101604052809291908181526020018280546111bd90613bc3565b801561120a5780601f106111df5761010080835404028352916020019161120a565b820191906000526020600020905b8154815290600101906020018083116111ed57829003601f168201915b505050505081565b60008073ffffffffffffffffffffffffffffffffffffffff168273ffffffffffffffffffffffffffffffffffffffff1603611282576040517f08c379a00000000000000000000000000000000000000000000000000000000081526004016112799061426e565b60405180910390fd5b600460008373ffffffffffffffffffffffffffffffffffffffff1673ffffffffffffffffffffffffffffffffffffffff168152602001908152602001600020549050919050565b6112d161212d565b6112db60006122f6565b565b7f000000000000000000000000000000000000000000000000000000000000000081565b60008160405160200161131491906142d6565b6040516020818303038152906040528051906020012060001c9050919050565b60008060009054906101000a900473ffffffffffffffffffffffffffffffffffffffff16905090565b61136561212d565b6000600c805461137490613bc3565b80601f01602080910402602001604051908101604052809291908181526020018280546113a090613bc3565b80156113ed5780601f106113c2576101008083540402835291602001916113ed565b820191906000526020600020905b8154815290600101906020018083116113d057829003601f168201915b5050505050905081600c90816114039190614003565b503373ffffffffffffffffffffffffffffffffffffffff167fcffccbb0229517f0ef8bebda90df6035fa3050b63b8686e03f7c62622944b522828460405161144c9291906142f1565b60405180910390a25050565b60606002805461146790613bc3565b80601f016020809104026020016040519081016040528092919081815260200182805461149390613bc3565b80156114e05780601f106114b5576101008083540402835291602001916114e0565b820191906000526020600020905b8154815290600101906020018083116114c357829003601f168201915b5050505050905090565b60606000808311611530576040517f08c379a000000000000000000000000000000000000000000000000000000000815260040161152790613c40565b60405180910390fd5b6000839050600980549050846001876115499190613c8f565b6115539190613cc3565b11156115625760098054905090505b60008167ffffffffffffffff81111561157e5761157d6133fb565b5b6040519080825280602002602001820160405280156115b757816020015b6115a4612ee1565b81526020019060019003908161159c5790505b50905060005b82811015611784576000611624600983898b6115d99190613cc3565b6115e39190613c8f565b815481106115f4576115f3613d05565b5b9060005260206000200160009054906101000a900473ffffffffffffffffffffffffffffffffffffffff16611301565b90506008600082815260200190815260200160002060405180606001604052908160008201805461165490613bc3565b80601f016020809104026020016040519081016040528092919081815260200182805461168090613bc3565b80156116cd5780601f106116a2576101008083540402835291602001916116cd565b820191906000526020600020905b8154815290600101906020018083116116b057829003601f168201915b505050505081526020016001820160009054906101000a900473ffffffffffffffffffffffffffffffffffffffff1673ffffffffffffffffffffffffffffffffffffffff1673ffffffffffffffffffffffffffffffffffffffff1681526020016001820160149054906101000a900463ffffffff1663ffffffff1663ffffffff168152505083838151811061176557611764613d05565b5b602002602001018190525050808061177c90613d34565b9150506115bd565b50806009805490509350935050509250929050565b600760009054906101000a900460ff16156117e0576040517fbd291a9500000000000000000000000000000000000000000000000000000000815260040160405180910390fd5b6117ea82826123ba565b5050565b60606118016117fc83611301565b6118b9565b9050919050565b6000611813826121ab565b611849576040517fae9a63f500000000000000000000000000000000000000000000000000000000815260040160405180910390fd5b600760009054906101000a900460ff169050919050565b600760009054906101000a900460ff16156118a7576040517fbd291a9500000000000000000000000000000000000000000000000000000000815260040160405180910390fd5b6118b3848484846123d0565b50505050565b60606118c482611c35565b60006008600084815260200190815260200160002060000180546118e790613bc3565b90501161190357604051806020016040528060008152506119a3565b60086000838152602001908152602001600020600001805461192490613bc3565b80601f016020809104026020016040519081016040528092919081815260200182805461195090613bc3565b801561199d5780601f106119725761010080835404028352916020019161199d565b820191906000526020600020905b81548152906001019060200180831161198057829003601f168201915b50505050505b9050919050565b6060600c80546119b990613bc3565b80601f01602080910402602001604051908101604052809291908181526020018280546119e590613bc3565b8015611a325780601f10611a0757610100808354040283529160200191611a32565b820191906000526020600020905b815481529060010190602001808311611a1557829003601f168201915b5050505050905090565b6000600660008473ffffffffffffffffffffffffffffffffffffffff1673ffffffffffffffffffffffffffffffffffffffff16815260200190815260200160002060008373ffffffffffffffffffffffffffffffffffffffff1673ffffffffffffffffffffffffffffffffffffffff16815260200190815260200160002060009054906101000a900460ff16905092915050565b611ad861212d565b600073ffffffffffffffffffffffffffffffffffffffff168173ffffffffffffffffffffffffffffffffffffffff1603611b47576040517f08c379a0000000000000000000000000000000000000000000000000000000008152600401611b3e9061439a565b60405180910390fd5b611b50816122f6565b50565b60007f80ac58cd000000000000000000000000000000000000000000000000000000007bffffffffffffffffffffffffffffffffffffffffffffffffffffffff1916827bffffffffffffffffffffffffffffffffffffffffffffffffffffffff19161480611c1e57507f5b5e139f000000000000000000000000000000000000000000000000000000007bffffffffffffffffffffffffffffffffffffffffffffffffffffffff1916827bffffffffffffffffffffffffffffffffffffffffffffffffffffffff1916145b80611c2e5750611c2d82612432565b5b9050919050565b611c3e816121ab565b611c7d576040517f08c379a0000000000000000000000000000000000000000000000000000000008152600401611c74906141dc565b60405180910390fd5b50565b6000611c8b82610ef7565b90508073ffffffffffffffffffffffffffffffffffffffff168373ffffffffffffffffffffffffffffffffffffffff1603611cfb576040517f08c379a0000000000000000000000000000000000000000000000000000000008152600401611cf29061442c565b60405180910390fd5b8073ffffffffffffffffffffffffffffffffffffffff16611d1a61249c565b73ffffffffffffffffffffffffffffffffffffffff161480611d495750611d4881611d4361249c565b611a3c565b5b611d88576040517f08c379a0000000000000000000000000000000000000000000000000000000008152600401611d7f906144be565b60405180910390fd5b611d9283836124a4565b505050565b611da8611da261249c565b8261255d565b611de7576040517f08c379a0000000000000000000000000000000000000000000000000000000008152600401611dde90614550565b60405180910390fd5b611df28383836125f2565b505050565b611e1283838360405180602001604052806000815250611860565b505050565b6000611e2282610ef7565b9050611e328160008460016128eb565b611e3b82610ef7565b90506005600083815260200190815260200160002060006101000a81549073ffffffffffffffffffffffffffffffffffffffff02191690556001600460008373ffffffffffffffffffffffffffffffffffffffff1673ffffffffffffffffffffffffffffffffffffffff168152602001908152602001600020600082825403925050819055506003600083815260200190815260200160002060006101000a81549073ffffffffffffffffffffffffffffffffffffffff021916905581600073ffffffffffffffffffffffffffffffffffffffff168273ffffffffffffffffffffffffffffffffffffffff167fddf252ad1be2c89b69c2b068fc378daa952ba7f163c4a11628f55a4df523b3ef60405160405180910390a4611f618160008460016128f1565b5050565b6000600a60008373ffffffffffffffffffffffffffffffffffffffff1673ffffffffffffffffffffffffffffffffffffffff168152602001908152602001600020549050600060096001600980549050611fbf9190614570565b81548110611fd057611fcf613d05565b5b9060005260206000200160009054906101000a900473ffffffffffffffffffffffffffffffffffffffff169050806009838154811061201257612011613d05565b5b9060005260206000200160006101000a81548173ffffffffffffffffffffffffffffffffffffffff021916908373ffffffffffffffffffffffffffffffffffffffff16021790555081600a60008373ffffffffffffffffffffffffffffffffffffffff1673ffffffffffffffffffffffffffffffffffffffff1681526020019081526020016000208190555060098054806120b0576120af6145a4565b5b6001900381819060005260206000200160006101000a81549073ffffffffffffffffffffffffffffffffffffffff02191690559055600a60008473ffffffffffffffffffffffffffffffffffffffff1673ffffffffffffffffffffffffffffffffffffffff16815260200190815260200160002060009055505050565b61213561249c565b73ffffffffffffffffffffffffffffffffffffffff16612153611334565b73ffffffffffffffffffffffffffffffffffffffff16146121a9576040517f08c379a00000000000000000000000000000000000000000000000000000000081526004016121a09061461f565b60405180910390fd5b565b60008073ffffffffffffffffffffffffffffffffffffffff166121cd836121ec565b73ffffffffffffffffffffffffffffffffffffffff1614159050919050565b60006003600083815260200190815260200160002060009054906101000a900473ffffffffffffffffffffffffffffffffffffffff169050919050565b6122438282604051806020016040528060008152506128f7565b5050565b600980549050600a60008373ffffffffffffffffffffffffffffffffffffffff1673ffffffffffffffffffffffffffffffffffffffff168152602001908152602001600020819055506009339080600181540180825580915050600190039060005260206000200160009091909190916101000a81548173ffffffffffffffffffffffffffffffffffffffff021916908373ffffffffffffffffffffffffffffffffffffffff16021790555050565b60008060009054906101000a900473ffffffffffffffffffffffffffffffffffffffff169050816000806101000a81548173ffffffffffffffffffffffffffffffffffffffff021916908373ffffffffffffffffffffffffffffffffffffffff1602179055508173ffffffffffffffffffffffffffffffffffffffff168173ffffffffffffffffffffffffffffffffffffffff167f8be0079c531659141344cd1fd0a4f28419497f9722a3daafe3b4186f6b6457e060405160405180910390a35050565b6123cc6123c561249c565b8383612952565b5050565b6123e16123db61249c565b8361255d565b612420576040517f08c379a000000000000000000000000000000000000000000000000000000000815260040161241790614550565b60405180910390fd5b61242c84848484612abe565b50505050565b60007f01ffc9a7000000000000000000000000000000000000000000000000000000007bffffffffffffffffffffffffffffffffffffffffffffffffffffffff1916827bffffffffffffffffffffffffffffffffffffffffffffffffffffffff1916149050919050565b600033905090565b816005600083815260200190815260200160002060006101000a81548173ffffffffffffffffffffffffffffffffffffffff021916908373ffffffffffffffffffffffffffffffffffffffff160217905550808273ffffffffffffffffffffffffffffffffffffffff1661251783610ef7565b73ffffffffffffffffffffffffffffffffffffffff167f8c5be1e5ebec7d5bd14f71427d1e84f3dd0314c0f7b2291e5b200ac8c7c3b92560405160405180910390a45050565b60008061256983610ef7565b90508073ffffffffffffffffffffffffffffffffffffffff168473ffffffffffffffffffffffffffffffffffffffff1614806125ab57506125aa8185611a3c565b5b806125e957508373ffffffffffffffffffffffffffffffffffffffff166125d18461075f565b73ffffffffffffffffffffffffffffffffffffffff16145b91505092915050565b8273ffffffffffffffffffffffffffffffffffffffff1661261282610ef7565b73ffffffffffffffffffffffffffffffffffffffff1614612668576040517f08c379a000000000000000000000000000000000000000000000000000000000815260040161265f906146b1565b60405180910390fd5b600073ffffffffffffffffffffffffffffffffffffffff168273ffffffffffffffffffffffffffffffffffffffff16036126d7576040517f08c379a00000000000000000000000000000000000000000000000000000000081526004016126ce90614743565b60405180910390fd5b6126e483838360016128eb565b8273ffffffffffffffffffffffffffffffffffffffff1661270482610ef7565b73ffffffffffffffffffffffffffffffffffffffff161461275a576040517f08c379a0000000000000000000000000000000000000000000000000000000008152600401612751906146b1565b60405180910390fd5b6005600082815260200190815260200160002060006101000a81549073ffffffffffffffffffffffffffffffffffffffff02191690556001600460008573ffffffffffffffffffffffffffffffffffffffff1673ffffffffffffffffffffffffffffffffffffffff168152602001908152602001600020600082825403925050819055506001600460008473ffffffffffffffffffffffffffffffffffffffff1673ffffffffffffffffffffffffffffffffffffffff16815260200190815260200160002060008282540192505081905550816003600083815260200190815260200160002060006101000a81548173ffffffffffffffffffffffffffffffffffffffff021916908373ffffffffffffffffffffffffffffffffffffffff160217905550808273ffffffffffffffffffffffffffffffffffffffff168473ffffffffffffffffffffffffffffffffffffffff167fddf252ad1be2c89b69c2b068fc378daa952ba7f163c4a11628f55a4df523b3ef60405160405180910390a46128e683838360016128f1565b505050565b50505050565b50505050565b6129018383612b1a565b61290e6000848484612d37565b61294d576040517f08c379a0000000000000000000000000000000000000000000000000000000008152600401612944906147d5565b60405180910390fd5b505050565b8173ffffffffffffffffffffffffffffffffffffffff168373ffffffffffffffffffffffffffffffffffffffff16036129c0576040517f08c379a00000000000000000000000000000000000000000000000000000000081526004016129b790614841565b60405180910390fd5b80600660008573ffffffffffffffffffffffffffffffffffffffff1673ffffffffffffffffffffffffffffffffffffffff16815260200190815260200160002060008473ffffffffffffffffffffffffffffffffffffffff1673ffffffffffffffffffffffffffffffffffffffff16815260200190815260200160002060006101000a81548160ff0219169083151502179055508173ffffffffffffffffffffffffffffffffffffffff168373ffffffffffffffffffffffffffffffffffffffff167f17307eab39ab6107e8899845ad3d59bd9653f200f220920489ca2b5937696c3183604051612ab19190612fd2565b60405180910390a3505050565b612ac98484846125f2565b612ad584848484612d37565b612b14576040517f08c379a0000000000000000000000000000000000000000000000000000000008152600401612b0b906147d5565b60405180910390fd5b50505050565b600073ffffffffffffffffffffffffffffffffffffffff168273ffffffffffffffffffffffffffffffffffffffff1603612b89576040517f08c379a0000000000000000000000000000000000000000000000000000000008152600401612b80906148ad565b60405180910390fd5b612b92816121ab565b15612bd2576040517f08c379a0000000000000000000000000000000000000000000000000000000008152600401612bc990614919565b60405180910390fd5b612be06000838360016128eb565b612be9816121ab565b15612c29576040517f08c379a0000000000000000000000000000000000000000000000000000000008152600401612c2090614919565b60405180910390fd5b6001600460008473ffffffffffffffffffffffffffffffffffffffff1673ffffffffffffffffffffffffffffffffffffffff16815260200190815260200160002060008282540192505081905550816003600083815260200190815260200160002060006101000a81548173ffffffffffffffffffffffffffffffffffffffff021916908373ffffffffffffffffffffffffffffffffffffffff160217905550808273ffffffffffffffffffffffffffffffffffffffff16600073ffffffffffffffffffffffffffffffffffffffff167fddf252ad1be2c89b69c2b068fc378daa952ba7f163c4a11628f55a4df523b3ef60405160405180910390a4612d336000838360016128f1565b5050565b6000612d588473ffffffffffffffffffffffffffffffffffffffff16612ebe565b15612eb1578373ffffffffffffffffffffffffffffffffffffffff1663150b7a02612d8161249c565b8786866040518563ffffffff1660e01b8152600401612da3949392919061498e565b6020604051808303816000875af1925050508015612ddf57506040513d601f19601f82011682018060405250810190612ddc91906149ef565b60015b612e61573d8060008114612e0f576040519150601f19603f3d011682016040523d82523d6000602084013e612e14565b606091505b506000815103612e59576040517f08c379a0000000000000000000000000000000000000000000000000000000008152600401612e50906147d5565b60405180910390fd5b805181602001fd5b63150b7a0260e01b7bffffffffffffffffffffffffffffffffffffffffffffffffffffffff1916817bffffffffffffffffffffffffffffffffffffffffffffffffffffffff191614915050612eb6565b600190505b949350505050565b6000808273ffffffffffffffffffffffffffffffffffffffff163b119050919050565b604051806060016040528060608152602001600073ffffffffffffffffffffffffffffffffffffffff168152602001600063ffffffff1681525090565b6000604051905090565b600080fd5b600080fd5b60007fffffffff0000000000000000000000000000000000000000000000000000000082169050919050565b612f6781612f32565b8114612f7257600080fd5b50565b600081359050612f8481612f5e565b92915050565b600060208284031215612fa057612f9f612f28565b5b6000612fae84828501612f75565b91505092915050565b60008115159050919050565b612fcc81612fb7565b82525050565b6000602082019050612fe76000830184612fc3565b92915050565b600081519050919050565b600082825260208201905092915050565b60005b8381101561302757808201518184015260208101905061300c565b60008484015250505050565b6000601f19601f8301169050919050565b600061304f82612fed565b6130598185612ff8565b9350613069818560208601613009565b61307281613033565b840191505092915050565b600060208201905081810360008301526130978184613044565b905092915050565b6000819050919050565b6130b28161309f565b81146130bd57600080fd5b50565b6000813590506130cf816130a9565b92915050565b6000602082840312156130eb576130ea612f28565b5b60006130f9848285016130c0565b91505092915050565b600073ffffffffffffffffffffffffffffffffffffffff82169050919050565b600061312d82613102565b9050919050565b61313d81613122565b82525050565b60006020820190506131586000830184613134565b92915050565b61316781613122565b811461317257600080fd5b50565b6000813590506131848161315e565b92915050565b600080604083850312156131a1576131a0612f28565b5b60006131af85828601613175565b92505060206131c0858286016130c0565b9150509250929050565b6131d38161309f565b82525050565b60006020820190506131ee60008301846131ca565b92915050565b60008060006060848603121561320d5761320c612f28565b5b600061321b86828701613175565b935050602061322c86828701613175565b925050604061323d868287016130c0565b9150509250925092565b6000806040838503121561325e5761325d612f28565b5b600061326c858286016130c0565b925050602061327d858286016130c0565b9150509250929050565b600081519050919050565b600082825260208201905092915050565b6000819050602082019050919050565b6132bc81613122565b82525050565b60006132ce83836132b3565b60208301905092915050565b6000602082019050919050565b60006132f282613287565b6132fc8185613292565b9350613307836132a3565b8060005b8381101561333857815161331f88826132c2565b975061332a836132da565b92505060018101905061330b565b5085935050505092915050565b6000604082019050818103600083015261335f81856132e7565b905061336e60208301846131ca565b9392505050565b600063ffffffff82169050919050565b61338e81613375565b811461339957600080fd5b50565b6000813590506133ab81613385565b92915050565b600080604083850312156133c8576133c7612f28565b5b60006133d685828601613175565b92505060206133e78582860161339c565b9150509250929050565b600080fd5b600080fd5b7f4e487b7100000000000000000000000000000000000000000000000000000000600052604160045260246000fd5b61343382613033565b810181811067ffffffffffffffff82111715613452576134516133fb565b5b80604052505050565b6000613465612f1e565b9050613471828261342a565b919050565b600067ffffffffffffffff821115613491576134906133fb565b5b61349a82613033565b9050602081019050919050565b82818337600083830152505050565b60006134c96134c484613476565b61345b565b9050828152602081018484840111156134e5576134e46133f6565b5b6134f08482856134a7565b509392505050565b600082601f83011261350d5761350c6133f1565b5b813561351d8482602086016134b6565b91505092915050565b60006020828403121561353c5761353b612f28565b5b600082013567ffffffffffffffff81111561355a57613559612f2d565b5b613566848285016134f8565b91505092915050565b60006020828403121561358557613584612f28565b5b600061359384828501613175565b91505092915050565b600082825260208201905092915050565b60006135b882612fed565b6135c2818561359c565b93506135d2818560208601613009565b6135db81613033565b840191505092915050565b6135ef81613375565b82525050565b6000606083016000830151848203600086015261361282826135ad565b915050602083015161362760208601826132b3565b50604083015161363a60408601826135e6565b508091505092915050565b6000602082019050818103600083015261365f81846135f5565b905092915050565b600067ffffffffffffffff821115613682576136816133fb565b5b602082029050602081019050919050565b600080fd5b60006136ab6136a684613667565b61345b565b905080838252602082019050602084028301858111156136ce576136cd613693565b5b835b818110156136f757806136e38882613175565b8452602084019350506020810190506136d0565b5050509392505050565b600082601f830112613716576137156133f1565b5b8135613726848260208601613698565b91505092915050565b60006020828403121561374557613744612f28565b5b600082013567ffffffffffffffff81111561376357613762612f2d565b5b61376f84828501613701565b91505092915050565b600081519050919050565b600082825260208201905092915050565b6000819050602082019050919050565b6137ad81612fb7565b82525050565b60006137bf83836137a4565b60208301905092915050565b6000602082019050919050565b60006137e382613778565b6137ed8185613783565b93506137f883613794565b8060005b8381101561382957815161381088826137b3565b975061381b836137cb565b9250506001810190506137fc565b5085935050505092915050565b6000602082019050818103600083015261385081846137d8565b905092915050565b61386181613375565b82525050565b600060208201905061387c6000830184613858565b92915050565b600081519050919050565b600082825260208201905092915050565b6000819050602082019050919050565b600060608301600083015184820360008601526138cb82826135ad565b91505060208301516138e060208601826132b3565b5060408301516138f360408601826135e6565b508091505092915050565b600061390a83836138ae565b905092915050565b6000602082019050919050565b600061392a82613882565b613934818561388d565b9350836020820285016139468561389e565b8060005b85811015613982578484038952815161396385826138fe565b945061396e83613912565b925060208a0199505060018101905061394a565b50829750879550505050505092915050565b600060408201905081810360008301526139ae818561391f565b90506139bd60208301846131ca565b9392505050565b6139cd81612fb7565b81146139d857600080fd5b50565b6000813590506139ea816139c4565b92915050565b60008060408385031215613a0757613a06612f28565b5b6000613a1585828601613175565b9250506020613a26858286016139db565b9150509250929050565b600067ffffffffffffffff821115613a4b57613a4a6133fb565b5b613a5482613033565b9050602081019050919050565b6000613a74613a6f84613a30565b61345b565b905082815260208101848484011115613a9057613a8f6133f6565b5b613a9b8482856134a7565b509392505050565b600082601f830112613ab857613ab76133f1565b5b8135613ac8848260208601613a61565b91505092915050565b60008060008060808587031215613aeb57613aea612f28565b5b6000613af987828801613175565b9450506020613b0a87828801613175565b9350506040613b1b878288016130c0565b925050606085013567ffffffffffffffff811115613b3c57613b3b612f2d565b5b613b4887828801613aa3565b91505092959194509250565b60008060408385031215613b6b57613b6a612f28565b5b6000613b7985828601613175565b9250506020613b8a85828601613175565b9150509250929050565b7f4e487b7100000000000000000000000000000000000000000000000000000000600052602260045260246000fd5b60006002820490506001821680613bdb57607f821691505b602082108103613bee57613bed613b94565b5b50919050565b7f706167652073697a65206d75737420626520706f736974697665000000000000600082015250565b6000613c2a601a83612ff8565b9150613c3582613bf4565b602082019050919050565b60006020820190508181036000830152613c5981613c1d565b9050919050565b7f4e487b7100000000000000000000000000000000000000000000000000000000600052601160045260246000fd5b6000613c9a8261309f565b9150613ca58361309f565b9250828201905080821115613cbd57613cbc613c60565b5b92915050565b6000613cce8261309f565b9150613cd98361309f565b9250828202613ce78161309f565b91508282048414831517613cfe57613cfd613c60565b5b5092915050565b7f4e487b7100000000000000000000000000000000000000000000000000000000600052603260045260246000fd5b6000613d3f8261309f565b91507fffffffffffffffffffffffffffffffffffffffffffffffffffffffffffffffff8203613d7157613d70613c60565b5b600182019050919050565b7f5468697320746f6b656e20646f65736e27742065786973740000000000000000600082015250565b6000613db2601883612ff8565b9150613dbd82613d7c565b602082019050919050565b60006020820190508181036000830152613de181613da5565b9050919050565b6000613df382613375565b9150613dfe83613375565b9250828201905063ffffffff811115613e1a57613e19613c60565b5b92915050565b6000606082019050613e3560008301866131ca565b613e426020830185613858565b613e4f6040830184613858565b949350505050565b60008190508160005260206000209050919050565b60006020601f8301049050919050565b600082821b905092915050565b600060088302613eb97fffffffffffffffffffffffffffffffffffffffffffffffffffffffffffffffff82613e7c565b613ec38683613e7c565b95508019841693508086168417925050509392505050565b6000819050919050565b6000613f00613efb613ef68461309f565b613edb565b61309f565b9050919050565b6000819050919050565b613f1a83613ee5565b613f2e613f2682613f07565b848454613e89565b825550505050565b600090565b613f43613f36565b613f4e818484613f11565b505050565b5b81811015613f7257613f67600082613f3b565b600181019050613f54565b5050565b601f821115613fb757613f8881613e57565b613f9184613e6c565b81016020851015613fa0578190505b613fb4613fac85613e6c565b830182613f53565b50505b505050565b600082821c905092915050565b6000613fda60001984600802613fbc565b1980831691505092915050565b6000613ff38383613fc9565b9150826002028217905092915050565b61400c82612fed565b67ffffffffffffffff811115614025576140246133fb565b5b61402f8254613bc3565b61403a828285613f76565b600060209050601f83116001811461406d576000841561405b578287015190505b6140658582613fe7565b8655506140cd565b601f19841661407b86613e57565b60005b828110156140a35784890151825560018201915060208501945060208101905061407e565b868310156140c057848901516140bc601f891682613fc9565b8355505b6001600288020188555050505b505050505050565b600081546140e281613bc3565b6140ec8186612ff8565b94506001821660008114614107576001811461411d57614150565b60ff198316865281151560200286019350614150565b61412685613e57565b60005b8381101561414857815481890152600182019150602081019050614129565b808801955050505b50505092915050565b600060408201905081810360008301526141738185613044565b9050818103602083015261418781846140d5565b90509392505050565b7f4552433732313a20696e76616c696420746f6b656e2049440000000000000000600082015250565b60006141c6601883612ff8565b91506141d182614190565b602082019050919050565b600060208201905081810360008301526141f5816141b9565b9050919050565b7f4552433732313a2061646472657373207a65726f206973206e6f74206120766160008201527f6c6964206f776e65720000000000000000000000000000000000000000000000602082015250565b6000614258602983612ff8565b9150614263826141fc565b604082019050919050565b600060208201905081810360008301526142878161424b565b9050919050565b60008160601b9050919050565b60006142a68261428e565b9050919050565b60006142b88261429b565b9050919050565b6142d06142cb82613122565b6142ad565b82525050565b60006142e282846142bf565b60148201915081905092915050565b6000604082019050818103600083015261430b8185613044565b9050818103602083015261431f8184613044565b90509392505050565b7f4f776e61626c653a206e6577206f776e657220697320746865207a65726f206160008201527f6464726573730000000000000000000000000000000000000000000000000000602082015250565b6000614384602683612ff8565b915061438f82614328565b604082019050919050565b600060208201905081810360008301526143b381614377565b9050919050565b7f4552433732313a20617070726f76616c20746f2063757272656e74206f776e6560008201527f7200000000000000000000000000000000000000000000000000000000000000602082015250565b6000614416602183612ff8565b9150614421826143ba565b604082019050919050565b6000602082019050818103600083015261444581614409565b9050919050565b7f4552433732313a20617070726f76652063616c6c6572206973206e6f7420746f60008201527f6b656e206f776e6572206f7220617070726f76656420666f7220616c6c000000602082015250565b60006144a8603d83612ff8565b91506144b38261444c565b604082019050919050565b600060208201905081810360008301526144d78161449b565b9050919050565b7f4552433732313a2063616c6c6572206973206e6f7420746f6b656e206f776e6560008201527f72206f7220617070726f76656400000000000000000000000000000000000000602082015250565b600061453a602d83612ff8565b9150614545826144de565b604082019050919050565b600060208201905081810360008301526145698161452d565b9050919050565b600061457b8261309f565b91506145868361309f565b925082820390508181111561459e5761459d613c60565b5b92915050565b7f4e487b7100000000000000000000000000000000000000000000000000000000600052603160045260246000fd5b7f4f776e61626c653a2063616c6c6572206973206e6f7420746865206f776e6572600082015250565b6000614609602083612ff8565b9150614614826145d3565b602082019050919050565b60006020820190508181036000830152614638816145fc565b9050919050565b7f4552433732313a207472616e736665722066726f6d20696e636f72726563742060008201527f6f776e6572000000000000000000000000000000000000000000000000000000602082015250565b600061469b602583612ff8565b91506146a68261463f565b604082019050919050565b600060208201905081810360008301526146ca8161468e565b9050919050565b7f4552433732313a207472616e7366657220746f20746865207a65726f2061646460008201527f7265737300000000000000000000000000000000000000000000000000000000602082015250565b600061472d602483612ff8565b9150614738826146d1565b604082019050919050565b6000602082019050818103600083015261475c81614720565b9050919050565b7f4552433732313a207472616e7366657220746f206e6f6e20455243373231526560008201527f63656976657220696d706c656d656e7465720000000000000000000000000000602082015250565b60006147bf603283612ff8565b91506147ca82614763565b604082019050919050565b600060208201905081810360008301526147ee816147b2565b9050919050565b7f4552433732313a20617070726f766520746f2063616c6c657200000000000000600082015250565b600061482b601983612ff8565b9150614836826147f5565b602082019050919050565b6000602082019050818103600083015261485a8161481e565b9050919050565b7f4552433732313a206d696e7420746f20746865207a65726f2061646472657373600082015250565b6000614897602083612ff8565b91506148a282614861565b602082019050919050565b600060208201905081810360008301526148c68161488a565b9050919050565b7f4552433732313a20746f6b656e20616c7265616479206d696e74656400000000600082015250565b6000614903601c83612ff8565b915061490e826148cd565b602082019050919050565b60006020820190508181036000830152614932816148f6565b9050919050565b600081519050919050565b600082825260208201905092915050565b600061496082614939565b61496a8185614944565b935061497a818560208601613009565b61498381613033565b840191505092915050565b60006080820190506149a36000830187613134565b6149b06020830186613134565b6149bd60408301856131ca565b81810360608301526149cf8184614955565b905095945050505050565b6000815190506149e981612f5e565b92915050565b600060208284031215614a0557614a04612f28565b5b6000614a13848285016149da565b9150509291505056fea2646970667358221220d4091626a0f2d81fe592df819dc78ae1cca6e813a6a7d387f456048a82bdda9064736f6c63430008120033",
  "linkReferences": {},
  "deployedLinkReferences": {}
}