{
  "_format": "hh-sol-artifact-1",
  "contractName": "CommunityPortal",
  "sourceName": "contracts/CommunityPortal.sol",
  "abi": [
    {
      "inputs": [
        {
          "internalType": "address",
          "name": "_passportCreater",
          "type": "address"
        },
        {
          "internalType": "address",
          "name": "_questBoard",
          "type": "address"
        }
      ],
      "stateMutability": "nonpayable",
      "type": "constructor"
    },
    {
      "anonymous": false,
      "inputs": [
        {
          "indexed": true,
          "internalType": "address",
          "name": "publisher",
          "type": "address"
        },
        {
          "indexed": false,
          "internalType": "uint32",
          "name": "communityId",
          "type": "uint32"
        },
        {
          "indexed": false,
          "internalType": "address",
          "name": "communityPassport",
          "type": "address"
        },
        {
          "indexed": false,
          "internalType": "string",
          "name": "communityURI",
          "type": "string"
        }
      ],
      "name": "Create",
      "type": "event"
    },
    {
      "anonymous": false,
      "inputs": [
        {
          "indexed": true,
          "internalType": "address",
          "name": "previousOwner",
          "type": "address"
        },
        {
          "indexed": true,
          "internalType": "address",
          "name": "newOwner",
          "type": "address"
        }
      ],
      "name": "OwnershipTransferred",
      "type": "event"
    },
    {
      "anonymous": false,
      "inputs": [
        {
          "indexed": true,
          "internalType": "uint32",
          "name": "communityId",
          "type": "uint32"
        },
        {
          "indexed": false,
          "internalType": "string",
          "name": "oldState",
          "type": "string"
        },
        {
          "indexed": false,
          "internalType": "string",
          "name": "newState",
          "type": "string"
        }
      ],
      "name": "SetCommunityURI",
      "type": "event"
    },
    {
      "anonymous": false,
      "inputs": [
        {
          "indexed": true,
          "internalType": "address",
          "name": "publisher",
          "type": "address"
        },
        {
          "indexed": false,
          "internalType": "address",
          "name": "oldState",
          "type": "address"
        },
        {
          "indexed": false,
          "internalType": "address",
          "name": "newState",
          "type": "address"
        }
      ],
      "name": "SetPassportCreater",
      "type": "event"
    },
    {
      "inputs": [
        {
          "internalType": "uint32",
          "name": "communityId",
          "type": "uint32"
        },
        {
          "internalType": "address",
          "name": "user",
          "type": "address"
        },
        {
          "internalType": "uint32",
          "name": "exp",
          "type": "uint32"
        }
      ],
      "name": "addExp",
      "outputs": [],
      "stateMutability": "nonpayable",
      "type": "function"
    },
    {
      "inputs": [],
      "name": "communitySupply",
      "outputs": [
        {
          "internalType": "uint256",
          "name": "",
          "type": "uint256"
        }
      ],
      "stateMutability": "view",
      "type": "function"
    },
    {
      "inputs": [
        {
          "internalType": "string",
          "name": "_communityURI",
          "type": "string"
        },
        {
          "internalType": "string",
          "name": "_name",
          "type": "string"
        },
        {
          "internalType": "string",
          "name": "_contructURI",
          "type": "string"
        }
      ],
      "name": "createCommunity",
      "outputs": [],
      "stateMutability": "nonpayable",
      "type": "function"
    },
    {
      "inputs": [
        {
          "internalType": "uint32",
          "name": "communityId",
          "type": "uint32"
        }
      ],
      "name": "getCommunity",
      "outputs": [
        {
          "internalType": "string",
          "name": "communityURI",
          "type": "string"
        },
        {
          "internalType": "address",
          "name": "passport",
          "type": "address"
        },
        {
          "internalType": "bool",
          "name": "closed",
          "type": "bool"
        }
      ],
      "stateMutability": "view",
      "type": "function"
    },
    {
      "inputs": [
        {
          "internalType": "uint256",
          "name": "page",
          "type": "uint256"
        },
        {
          "internalType": "uint256",
          "name": "pageSize",
          "type": "uint256"
        }
      ],
      "name": "getCommunityList",
      "outputs": [
        {
          "components": [
            {
              "internalType": "string",
              "name": "communityURI",
              "type": "string"
            },
            {
              "internalType": "address",
              "name": "passport",
              "type": "address"
            },
            {
              "internalType": "bool",
              "name": "closed",
              "type": "bool"
            }
          ],
          "internalType": "struct ICommunityPortal.Community[]",
          "name": "",
          "type": "tuple[]"
        },
        {
          "internalType": "uint256",
          "name": "",
          "type": "uint256"
        }
      ],
      "stateMutability": "view",
      "type": "function"
    },
    {
      "inputs": [],
      "name": "owner",
      "outputs": [
        {
          "internalType": "address",
          "name": "",
          "type": "address"
        }
      ],
      "stateMutability": "view",
      "type": "function"
    },
    {
      "inputs": [],
      "name": "passportCreater",
      "outputs": [
        {
          "internalType": "contract ICommunityPassportCreater",
          "name": "",
          "type": "address"
        }
      ],
      "stateMutability": "view",
      "type": "function"
    },
    {
      "inputs": [],
      "name": "questBoard",
      "outputs": [
        {
          "internalType": "address",
          "name": "",
          "type": "address"
        }
      ],
      "stateMutability": "view",
      "type": "function"
    },
    {
      "inputs": [],
      "name": "renounceOwnership",
      "outputs": [],
      "stateMutability": "nonpayable",
      "type": "function"
    },
    {
      "inputs": [
        {
          "internalType": "uint32",
          "name": "communityId",
          "type": "uint32"
        },
        {
          "internalType": "bool",
          "name": "_closed",
          "type": "bool"
        }
      ],
      "name": "setClosed",
      "outputs": [],
      "stateMutability": "nonpayable",
      "type": "function"
    },
    {
      "inputs": [
        {
          "internalType": "uint32",
          "name": "communityId",
          "type": "uint32"
        },
        {
          "internalType": "string",
          "name": "newCommunityURI",
          "type": "string"
        }
      ],
      "name": "setCommunityURI",
      "outputs": [],
      "stateMutability": "nonpayable",
      "type": "function"
    },
    {
      "inputs": [
        {
          "internalType": "uint32",
          "name": "communityId",
          "type": "uint32"
        },
        {
          "internalType": "address",
          "name": "_passport",
          "type": "address"
        }
      ],
      "name": "setPassport",
      "outputs": [],
      "stateMutability": "nonpayable",
      "type": "function"
    },
    {
      "inputs": [
        {
          "internalType": "address",
          "name": "_passportCreater",
          "type": "address"
        }
      ],
      "name": "setPassportCreater",
      "outputs": [],
      "stateMutability": "nonpayable",
      "type": "function"
    },
    {
      "inputs": [
        {
          "internalType": "address",
          "name": "_questBoard",
          "type": "address"
        }
      ],
      "name": "setQuestBoard",
      "outputs": [],
      "stateMutability": "nonpayable",
      "type": "function"
    },
    {
      "inputs": [
        {
          "internalType": "address",
          "name": "newOwner",
          "type": "address"
        }
      ],
      "name": "transferOwnership",
      "outputs": [],
      "stateMutability": "nonpayable",
      "type": "function"
    }
  ],
  "bytecode": "0x60806040523480156200001157600080fd5b50604051620021ad380380620021ad833981810160405281019062000037919062000217565b620000576200004b620000e160201b60201c565b620000e960201b60201c565b81600260006101000a81548173ffffffffffffffffffffffffffffffffffffffff021916908373ffffffffffffffffffffffffffffffffffffffff16021790555080600360006101000a81548173ffffffffffffffffffffffffffffffffffffffff021916908373ffffffffffffffffffffffffffffffffffffffff16021790555050506200025e565b600033905090565b60008060009054906101000a900473ffffffffffffffffffffffffffffffffffffffff169050816000806101000a81548173ffffffffffffffffffffffffffffffffffffffff021916908373ffffffffffffffffffffffffffffffffffffffff1602179055508173ffffffffffffffffffffffffffffffffffffffff168173ffffffffffffffffffffffffffffffffffffffff167f8be0079c531659141344cd1fd0a4f28419497f9722a3daafe3b4186f6b6457e060405160405180910390a35050565b600080fd5b600073ffffffffffffffffffffffffffffffffffffffff82169050919050565b6000620001df82620001b2565b9050919050565b620001f181620001d2565b8114620001fd57600080fd5b50565b6000815190506200021181620001e6565b92915050565b60008060408385031215620002315762000230620001ad565b5b6000620002418582860162000200565b9250506020620002548582860162000200565b9150509250929050565b611f3f806200026e6000396000f3fe608060405234801561001057600080fd5b50600436106100f55760003560e01c806375586d4a11610097578063ca83747e11610066578063ca83747e14610235578063f2fde38b14610267578063f778785014610283578063fcceea26146102a1576100f5565b806375586d4a146101c3578063759b02ba146101df5780638da5cb5b146101fb5780638fbbf96614610219576100f5565b806313122798116100d35780631312279814610163578063247b0add146101815780634fca1d1c1461019d578063715018a6146101b9576100f5565b8063022feb73146100fa5780630a956d6014610116578063105be0f914610132575b600080fd5b610114600480360381019061010f9190610ff9565b6102bf565b005b610130600480360381019061012b91906111a8565b61030b565b005b61014c6004803603810190610147919061123a565b610449565b60405161015a929190611444565b60405180910390f35b61016b6106b0565b6040516101789190611483565b60405180910390f35b61019b60048036038101906101969190610ff9565b6106d6565b005b6101b760048036038101906101b291906114ca565b61079a565b005b6101c16107e9565b005b6101dd60048036038101906101d8919061150a565b6107fd565b005b6101f960048036038101906101f491906115b1565b610a11565b005b610203610a87565b6040516102109190611483565b60405180910390f35b610233600480360381019061022e91906115f1565b610ab0565b005b61024f600480360381019061024a9190611644565b610c03565b60405161025e939291906116ca565b60405180910390f35b610281600480360381019061027c9190610ff9565b610d4e565b005b61028b610dd1565b6040516102989190611767565b60405180910390f35b6102a9610df7565b6040516102b69190611782565b60405180910390f35b6102c7610e04565b80600360006101000a81548173ffffffffffffffffffffffffffffffffffffffff021916908373ffffffffffffffffffffffffffffffffffffffff16021790555050565b610313610e04565b600060018363ffffffff168154811061032f5761032e61179d565b5b9060005260206000209060020201600001805461034b906117fb565b80601f0160208091040260200160405190810160405280929190818152602001828054610377906117fb565b80156103c45780601f10610399576101008083540402835291602001916103c4565b820191906000526020600020905b8154815290600101906020018083116103a757829003601f168201915b505050505090508160018463ffffffff16815481106103e6576103e561179d565b5b9060005260206000209060020201600001908161040391906119ce565b508263ffffffff167fba454265ac410ca3a5ebb529c67f635d8ab783aea3c89f3e2e2c4fe0bf9f08e5828460405161043c929190611aa0565b60405180910390a2505050565b6060600080831161048f576040517f08c379a000000000000000000000000000000000000000000000000000000000815260040161048690611b23565b60405180910390fd5b6000839050600180549050846001876104a89190611b72565b6104b29190611ba6565b11156104c15760018054905090505b60008167ffffffffffffffff8111156104dd576104dc61107d565b5b60405190808252806020026020018201604052801561051657816020015b610503610f4e565b8152602001906001900390816104fb5790505b50905060005b8281101561069b5760018187896105339190611ba6565b61053d9190611b72565b8154811061054e5761054d61179d565b5b9060005260206000209060020201604051806060016040529081600082018054610577906117fb565b80601f01602080910402602001604051908101604052809291908181526020018280546105a3906117fb565b80156105f05780601f106105c5576101008083540402835291602001916105f0565b820191906000526020600020905b8154815290600101906020018083116105d357829003601f168201915b505050505081526020016001820160009054906101000a900473ffffffffffffffffffffffffffffffffffffffff1673ffffffffffffffffffffffffffffffffffffffff1673ffffffffffffffffffffffffffffffffffffffff1681526020016001820160149054906101000a900460ff16151515158152505082828151811061067d5761067c61179d565b5b6020026020010181905250808061069390611be8565b91505061051c565b50806001805490509350935050509250929050565b600360009054906101000a900473ffffffffffffffffffffffffffffffffffffffff1681565b6106de610e04565b6000600260009054906101000a900473ffffffffffffffffffffffffffffffffffffffff16905081600260006101000a81548173ffffffffffffffffffffffffffffffffffffffff021916908373ffffffffffffffffffffffffffffffffffffffff1602179055503373ffffffffffffffffffffffffffffffffffffffff167f1049f3ca51cead05d02e33e3b7ecb8ca35c26b71da78c35114e45ba6399ce20a828460405161078e929190611c30565b60405180910390a25050565b6107a2610e04565b8060018363ffffffff16815481106107bd576107bc61179d565b5b906000526020600020906002020160010160146101000a81548160ff0219169083151502179055505050565b6107f1610e04565b6107fb6000610e82565b565b610805610e04565b61080d610f4e565b600260009054906101000a900473ffffffffffffffffffffffffffffffffffffffff1673ffffffffffffffffffffffffffffffffffffffff166360f8a1598486856001805490506040518563ffffffff1660e01b81526004016108739493929190611c68565b6020604051808303816000875af1158015610892573d6000803e3d6000fd5b505050506040513d601f19601f820116820180604052508101906108b69190611cd7565b816020019073ffffffffffffffffffffffffffffffffffffffff16908173ffffffffffffffffffffffffffffffffffffffff16815250508381600001819052506001819080600181540180825580915050600190039060005260206000209060020201600090919091909150600082015181600001908161093791906119ce565b5060208201518160010160006101000a81548173ffffffffffffffffffffffffffffffffffffffff021916908373ffffffffffffffffffffffffffffffffffffffff16021790555060408201518160010160146101000a81548160ff02191690831515021790555050503073ffffffffffffffffffffffffffffffffffffffff167fd4cafb385cf0f01471104dc4b0f45ae3337e79f4dc4c0ad0518c7586d8610225600180805490506109ea9190611d04565b83602001518460000151604051610a0393929190611d38565b60405180910390a250505050565b610a19610e04565b8060018363ffffffff1681548110610a3457610a3361179d565b5b906000526020600020906002020160010160006101000a81548173ffffffffffffffffffffffffffffffffffffffff021916908373ffffffffffffffffffffffffffffffffffffffff1602179055505050565b60008060009054906101000a900473ffffffffffffffffffffffffffffffffffffffff16905090565b600360009054906101000a900473ffffffffffffffffffffffffffffffffffffffff1673ffffffffffffffffffffffffffffffffffffffff163373ffffffffffffffffffffffffffffffffffffffff1614610b40576040517f08c379a0000000000000000000000000000000000000000000000000000000008152600401610b3790611dc2565b60405180910390fd5b600060018463ffffffff1681548110610b5c57610b5b61179d565b5b906000526020600020906002020160010160009054906101000a900473ffffffffffffffffffffffffffffffffffffffff1690508073ffffffffffffffffffffffffffffffffffffffff166351cf296a84846040518363ffffffff1660e01b8152600401610bcb929190611de2565b600060405180830381600087803b158015610be557600080fd5b505af1158015610bf9573d6000803e3d6000fd5b5050505050505050565b606060008060018463ffffffff1681548110610c2257610c2161179d565b5b90600052602060002090600202016000018054610c3e906117fb565b80601f0160208091040260200160405190810160405280929190818152602001828054610c6a906117fb565b8015610cb75780601f10610c8c57610100808354040283529160200191610cb7565b820191906000526020600020905b815481529060010190602001808311610c9a57829003601f168201915b5050505050925060018463ffffffff1681548110610cd857610cd761179d565b5b906000526020600020906002020160010160009054906101000a900473ffffffffffffffffffffffffffffffffffffffff16915060018463ffffffff1681548110610d2657610d2561179d565b5b906000526020600020906002020160010160149054906101000a900460ff1690509193909250565b610d56610e04565b600073ffffffffffffffffffffffffffffffffffffffff168173ffffffffffffffffffffffffffffffffffffffff1603610dc5576040517f08c379a0000000000000000000000000000000000000000000000000000000008152600401610dbc90611e7d565b60405180910390fd5b610dce81610e82565b50565b600260009054906101000a900473ffffffffffffffffffffffffffffffffffffffff1681565b6000600180549050905090565b610e0c610f46565b73ffffffffffffffffffffffffffffffffffffffff16610e2a610a87565b73ffffffffffffffffffffffffffffffffffffffff1614610e80576040517f08c379a0000000000000000000000000000000000000000000000000000000008152600401610e7790611ee9565b60405180910390fd5b565b60008060009054906101000a900473ffffffffffffffffffffffffffffffffffffffff169050816000806101000a81548173ffffffffffffffffffffffffffffffffffffffff021916908373ffffffffffffffffffffffffffffffffffffffff1602179055508173ffffffffffffffffffffffffffffffffffffffff168173ffffffffffffffffffffffffffffffffffffffff167f8be0079c531659141344cd1fd0a4f28419497f9722a3daafe3b4186f6b6457e060405160405180910390a35050565b600033905090565b604051806060016040528060608152602001600073ffffffffffffffffffffffffffffffffffffffff1681526020016000151581525090565b6000604051905090565b600080fd5b600080fd5b600073ffffffffffffffffffffffffffffffffffffffff82169050919050565b6000610fc682610f9b565b9050919050565b610fd681610fbb565b8114610fe157600080fd5b50565b600081359050610ff381610fcd565b92915050565b60006020828403121561100f5761100e610f91565b5b600061101d84828501610fe4565b91505092915050565b600063ffffffff82169050919050565b61103f81611026565b811461104a57600080fd5b50565b60008135905061105c81611036565b92915050565b600080fd5b600080fd5b6000601f19601f8301169050919050565b7f4e487b7100000000000000000000000000000000000000000000000000000000600052604160045260246000fd5b6110b58261106c565b810181811067ffffffffffffffff821117156110d4576110d361107d565b5b80604052505050565b60006110e7610f87565b90506110f382826110ac565b919050565b600067ffffffffffffffff8211156111135761111261107d565b5b61111c8261106c565b9050602081019050919050565b82818337600083830152505050565b600061114b611146846110f8565b6110dd565b90508281526020810184848401111561116757611166611067565b5b611172848285611129565b509392505050565b600082601f83011261118f5761118e611062565b5b813561119f848260208601611138565b91505092915050565b600080604083850312156111bf576111be610f91565b5b60006111cd8582860161104d565b925050602083013567ffffffffffffffff8111156111ee576111ed610f96565b5b6111fa8582860161117a565b9150509250929050565b6000819050919050565b61121781611204565b811461122257600080fd5b50565b6000813590506112348161120e565b92915050565b6000806040838503121561125157611250610f91565b5b600061125f85828601611225565b925050602061127085828601611225565b9150509250929050565b600081519050919050565b600082825260208201905092915050565b6000819050602082019050919050565b600081519050919050565b600082825260208201905092915050565b60005b838110156112e05780820151818401526020810190506112c5565b60008484015250505050565b60006112f7826112a6565b61130181856112b1565b93506113118185602086016112c2565b61131a8161106c565b840191505092915050565b61132e81610fbb565b82525050565b60008115159050919050565b61134981611334565b82525050565b6000606083016000830151848203600086015261136c82826112ec565b91505060208301516113816020860182611325565b5060408301516113946040860182611340565b508091505092915050565b60006113ab838361134f565b905092915050565b6000602082019050919050565b60006113cb8261127a565b6113d58185611285565b9350836020820285016113e785611296565b8060005b858110156114235784840389528151611404858261139f565b945061140f836113b3565b925060208a019950506001810190506113eb565b50829750879550505050505092915050565b61143e81611204565b82525050565b6000604082019050818103600083015261145e81856113c0565b905061146d6020830184611435565b9392505050565b61147d81610fbb565b82525050565b60006020820190506114986000830184611474565b92915050565b6114a781611334565b81146114b257600080fd5b50565b6000813590506114c48161149e565b92915050565b600080604083850312156114e1576114e0610f91565b5b60006114ef8582860161104d565b9250506020611500858286016114b5565b9150509250929050565b60008060006060848603121561152357611522610f91565b5b600084013567ffffffffffffffff81111561154157611540610f96565b5b61154d8682870161117a565b935050602084013567ffffffffffffffff81111561156e5761156d610f96565b5b61157a8682870161117a565b925050604084013567ffffffffffffffff81111561159b5761159a610f96565b5b6115a78682870161117a565b9150509250925092565b600080604083850312156115c8576115c7610f91565b5b60006115d68582860161104d565b92505060206115e785828601610fe4565b9150509250929050565b60008060006060848603121561160a57611609610f91565b5b60006116188682870161104d565b935050602061162986828701610fe4565b925050604061163a8682870161104d565b9150509250925092565b60006020828403121561165a57611659610f91565b5b60006116688482850161104d565b91505092915050565b600082825260208201905092915050565b600061168d826112a6565b6116978185611671565b93506116a78185602086016112c2565b6116b08161106c565b840191505092915050565b6116c481611334565b82525050565b600060608201905081810360008301526116e48186611682565b90506116f36020830185611474565b61170060408301846116bb565b949350505050565b6000819050919050565b600061172d61172861172384610f9b565b611708565b610f9b565b9050919050565b600061173f82611712565b9050919050565b600061175182611734565b9050919050565b61176181611746565b82525050565b600060208201905061177c6000830184611758565b92915050565b60006020820190506117976000830184611435565b92915050565b7f4e487b7100000000000000000000000000000000000000000000000000000000600052603260045260246000fd5b7f4e487b7100000000000000000000000000000000000000000000000000000000600052602260045260246000fd5b6000600282049050600182168061181357607f821691505b602082108103611826576118256117cc565b5b50919050565b60008190508160005260206000209050919050565b60006020601f8301049050919050565b600082821b905092915050565b60006008830261188e7fffffffffffffffffffffffffffffffffffffffffffffffffffffffffffffffff82611851565b6118988683611851565b95508019841693508086168417925050509392505050565b60006118cb6118c66118c184611204565b611708565b611204565b9050919050565b6000819050919050565b6118e5836118b0565b6118f96118f1826118d2565b84845461185e565b825550505050565b600090565b61190e611901565b6119198184846118dc565b505050565b5b8181101561193d57611932600082611906565b60018101905061191f565b5050565b601f821115611982576119538161182c565b61195c84611841565b8101602085101561196b578190505b61197f61197785611841565b83018261191e565b50505b505050565b600082821c905092915050565b60006119a560001984600802611987565b1980831691505092915050565b60006119be8383611994565b9150826002028217905092915050565b6119d7826112a6565b67ffffffffffffffff8111156119f0576119ef61107d565b5b6119fa82546117fb565b611a05828285611941565b600060209050601f831160018114611a385760008415611a26578287015190505b611a3085826119b2565b865550611a98565b601f198416611a468661182c565b60005b82811015611a6e57848901518255600182019150602085019450602081019050611a49565b86831015611a8b5784890151611a87601f891682611994565b8355505b6001600288020188555050505b505050505050565b60006040820190508181036000830152611aba8185611682565b90508181036020830152611ace8184611682565b90509392505050565b7f706167652073697a65206d75737420626520706f736974697665000000000000600082015250565b6000611b0d601a83611671565b9150611b1882611ad7565b602082019050919050565b60006020820190508181036000830152611b3c81611b00565b9050919050565b7f4e487b7100000000000000000000000000000000000000000000000000000000600052601160045260246000fd5b6000611b7d82611204565b9150611b8883611204565b9250828201905080821115611ba057611b9f611b43565b5b92915050565b6000611bb182611204565b9150611bbc83611204565b9250828202611bca81611204565b91508282048414831517611be157611be0611b43565b5b5092915050565b6000611bf382611204565b91507fffffffffffffffffffffffffffffffffffffffffffffffffffffffffffffffff8203611c2557611c24611b43565b5b600182019050919050565b6000604082019050611c456000830185611474565b611c526020830184611474565b9392505050565b611c6281611026565b82525050565b60006080820190508181036000830152611c828187611682565b90508181036020830152611c968186611682565b90508181036040830152611caa8185611682565b9050611cb96060830184611c59565b95945050505050565b600081519050611cd181610fcd565b92915050565b600060208284031215611ced57611cec610f91565b5b6000611cfb84828501611cc2565b91505092915050565b6000611d0f82611204565b9150611d1a83611204565b9250828203905081811115611d3257611d31611b43565b5b92915050565b6000606082019050611d4d6000830186611c59565b611d5a6020830185611474565b8181036040830152611d6c8184611682565b9050949350505050565b7f596f752063616e6e6f742072756e206164644578700000000000000000000000600082015250565b6000611dac601583611671565b9150611db782611d76565b602082019050919050565b60006020820190508181036000830152611ddb81611d9f565b9050919050565b6000604082019050611df76000830185611474565b611e046020830184611c59565b9392505050565b7f4f776e61626c653a206e6577206f776e657220697320746865207a65726f206160008201527f6464726573730000000000000000000000000000000000000000000000000000602082015250565b6000611e67602683611671565b9150611e7282611e0b565b604082019050919050565b60006020820190508181036000830152611e9681611e5a565b9050919050565b7f4f776e61626c653a2063616c6c6572206973206e6f7420746865206f776e6572600082015250565b6000611ed3602083611671565b9150611ede82611e9d565b602082019050919050565b60006020820190508181036000830152611f0281611ec6565b905091905056fea2646970667358221220c574df88f04cc86eb26570d340819d2ad6068b7d282d6b2df9039155471fa59664736f6c63430008120033",
  "linkReferences": {},
  "deployedLinkReferences": {}
}