{
  "_format": "hh-sol-artifact-1",
  "contractName": "Cube",
  "sourceName": "contracts/Cube.sol",
  "abi": [
    {
      "inputs": [
        {
          "internalType": "address",
          "name": "prizePoapAddress",
          "type": "address"
        }
      ],
      "stateMutability": "nonpayable",
      "type": "constructor"
    },
    {
      "anonymous": false,
      "inputs": [
        {
          "indexed": true,
          "internalType": "address",
          "name": "previousOwner",
          "type": "address"
        },
        {
          "indexed": true,
          "internalType": "address",
          "name": "newOwner",
          "type": "address"
        }
      ],
      "name": "OwnershipTransferred",
      "type": "event"
    },
    {
      "inputs": [
        {
          "internalType": "address",
          "name": "userAddress",
          "type": "address"
        }
      ],
      "name": "getCube",
      "outputs": [
        {
          "components": [
            {
              "internalType": "uint32",
              "name": "prizeId",
              "type": "uint32"
            },
            {
              "internalType": "uint16",
              "name": "positionX",
              "type": "uint16"
            },
            {
              "internalType": "uint16",
              "name": "positionY",
              "type": "uint16"
            },
            {
              "internalType": "uint16",
              "name": "positionZ",
              "type": "uint16"
            },
            {
              "internalType": "uint16",
              "name": "rotationX",
              "type": "uint16"
            },
            {
              "internalType": "uint16",
              "name": "rotationY",
              "type": "uint16"
            },
            {
              "internalType": "uint16",
              "name": "rotationZ",
              "type": "uint16"
            },
            {
              "internalType": "bool",
              "name": "set",
              "type": "bool"
            }
          ],
          "internalType": "struct ICube.CubeObj[10][10]",
          "name": "cubeObj",
          "type": "tuple[10][10]"
        }
      ],
      "stateMutability": "view",
      "type": "function"
    },
    {
      "inputs": [
        {
          "internalType": "address",
          "name": "userAddress",
          "type": "address"
        },
        {
          "internalType": "uint256",
          "name": "x",
          "type": "uint256"
        },
        {
          "internalType": "uint256",
          "name": "z",
          "type": "uint256"
        }
      ],
      "name": "getCubeObj",
      "outputs": [
        {
          "components": [
            {
              "internalType": "uint32",
              "name": "prizeId",
              "type": "uint32"
            },
            {
              "internalType": "uint16",
              "name": "positionX",
              "type": "uint16"
            },
            {
              "internalType": "uint16",
              "name": "positionY",
              "type": "uint16"
            },
            {
              "internalType": "uint16",
              "name": "positionZ",
              "type": "uint16"
            },
            {
              "internalType": "uint16",
              "name": "rotationX",
              "type": "uint16"
            },
            {
              "internalType": "uint16",
              "name": "rotationY",
              "type": "uint16"
            },
            {
              "internalType": "uint16",
              "name": "rotationZ",
              "type": "uint16"
            },
            {
              "internalType": "bool",
              "name": "set",
              "type": "bool"
            }
          ],
          "internalType": "struct ICube.CubeObj",
          "name": "",
          "type": "tuple"
        }
      ],
      "stateMutability": "view",
      "type": "function"
    },
    {
      "inputs": [],
      "name": "owner",
      "outputs": [
        {
          "internalType": "address",
          "name": "",
          "type": "address"
        }
      ],
      "stateMutability": "view",
      "type": "function"
    },
    {
      "inputs": [],
      "name": "prizePoap",
      "outputs": [
        {
          "internalType": "contract IPrizePoap",
          "name": "",
          "type": "address"
        }
      ],
      "stateMutability": "view",
      "type": "function"
    },
    {
      "inputs": [],
      "name": "renounceOwnership",
      "outputs": [],
      "stateMutability": "nonpayable",
      "type": "function"
    },
    {
      "inputs": [
        {
          "components": [
            {
              "internalType": "uint32",
              "name": "prizeId",
              "type": "uint32"
            },
            {
              "internalType": "uint16",
              "name": "positionX",
              "type": "uint16"
            },
            {
              "internalType": "uint16",
              "name": "positionY",
              "type": "uint16"
            },
            {
              "internalType": "uint16",
              "name": "positionZ",
              "type": "uint16"
            },
            {
              "internalType": "uint16",
              "name": "rotationX",
              "type": "uint16"
            },
            {
              "internalType": "uint16",
              "name": "rotationY",
              "type": "uint16"
            },
            {
              "internalType": "uint16",
              "name": "rotationZ",
              "type": "uint16"
            },
            {
              "internalType": "bool",
              "name": "set",
              "type": "bool"
            }
          ],
          "internalType": "struct ICube.CubeObj[]",
          "name": "cubeObjList",
          "type": "tuple[]"
        }
      ],
      "name": "setBatchCubeObj",
      "outputs": [],
      "stateMutability": "nonpayable",
      "type": "function"
    },
    {
      "inputs": [
        {
          "components": [
            {
              "internalType": "uint32",
              "name": "prizeId",
              "type": "uint32"
            },
            {
              "internalType": "uint16",
              "name": "positionX",
              "type": "uint16"
            },
            {
              "internalType": "uint16",
              "name": "positionY",
              "type": "uint16"
            },
            {
              "internalType": "uint16",
              "name": "positionZ",
              "type": "uint16"
            },
            {
              "internalType": "uint16",
              "name": "rotationX",
              "type": "uint16"
            },
            {
              "internalType": "uint16",
              "name": "rotationY",
              "type": "uint16"
            },
            {
              "internalType": "uint16",
              "name": "rotationZ",
              "type": "uint16"
            },
            {
              "internalType": "bool",
              "name": "set",
              "type": "bool"
            }
          ],
          "internalType": "struct ICube.CubeObj",
          "name": "cubeObj",
          "type": "tuple"
        }
      ],
      "name": "setCubeObj",
      "outputs": [],
      "stateMutability": "nonpayable",
      "type": "function"
    },
    {
      "inputs": [
        {
          "internalType": "address",
          "name": "prizePoapAddress",
          "type": "address"
        }
      ],
      "name": "setPrizePoap",
      "outputs": [],
      "stateMutability": "nonpayable",
      "type": "function"
    },
    {
      "inputs": [
        {
          "internalType": "address",
          "name": "newOwner",
          "type": "address"
        }
      ],
      "name": "transferOwnership",
      "outputs": [],
      "stateMutability": "nonpayable",
      "type": "function"
    }
  ],
  "bytecode": "0x60806040523480156200001157600080fd5b5060405162001f7338038062001f738339818101604052810190620000379190620001d5565b620000576200004b6200009f60201b60201c565b620000a760201b60201c565b80600160006101000a81548173ffffffffffffffffffffffffffffffffffffffff021916908373ffffffffffffffffffffffffffffffffffffffff1602179055505062000207565b600033905090565b60008060009054906101000a900473ffffffffffffffffffffffffffffffffffffffff169050816000806101000a81548173ffffffffffffffffffffffffffffffffffffffff021916908373ffffffffffffffffffffffffffffffffffffffff1602179055508173ffffffffffffffffffffffffffffffffffffffff168173ffffffffffffffffffffffffffffffffffffffff167f8be0079c531659141344cd1fd0a4f28419497f9722a3daafe3b4186f6b6457e060405160405180910390a35050565b600080fd5b600073ffffffffffffffffffffffffffffffffffffffff82169050919050565b60006200019d8262000170565b9050919050565b620001af8162000190565b8114620001bb57600080fd5b50565b600081519050620001cf81620001a4565b92915050565b600060208284031215620001ee57620001ed6200016b565b5b6000620001fe84828501620001be565b91505092915050565b611d5c80620002176000396000f3fe608060405234801561001057600080fd5b50600436106100935760003560e01c80638da5cb5b116100665780638da5cb5b1461010c5780639e64bffb1461012a578063b7184a1e14610146578063f2fde38b14610162578063f36091571461017e57610093565b80633eea270c146100985780636e3a6e6b146100b6578063715018a6146100e65780638cb35368146100f0575b600080fd5b6100a06101ae565b6040516100ad91906110fd565b60405180910390f35b6100d060048036038101906100cb919061116a565b6101d4565b6040516100dd91906113ca565b60405180910390f35b6100ee61039c565b005b61010a600480360381019061010591906115c5565b6103b0565b005b610114610baf565b6040516101219190611602565b60405180910390f35b610144600480360381019061013f91906116ec565b610bd8565b005b610160600480360381019061015b919061116a565b610c1e565b005b61017c6004803603810190610177919061116a565b610c6a565b005b6101986004803603810190610193919061176b565b610ced565b6040516101a59190611860565b60405180910390f35b600160009054906101000a900473ffffffffffffffffffffffffffffffffffffffff1681565b6101dc610fbd565b600260008373ffffffffffffffffffffffffffffffffffffffff1673ffffffffffffffffffffffffffffffffffffffff168152602001908152602001600020600a80602002604051908101604052809291906000905b82821015610391578382600a0201600a80602002604051908101604052809291906000905b8282101561037e57838201604051806101000160405290816000820160009054906101000a900463ffffffff1663ffffffff1663ffffffff1681526020016000820160049054906101000a900461ffff1661ffff1661ffff1681526020016000820160069054906101000a900461ffff1661ffff1661ffff1681526020016000820160089054906101000a900461ffff1661ffff1661ffff16815260200160008201600a9054906101000a900461ffff1661ffff1661ffff16815260200160008201600c9054906101000a900461ffff1661ffff1661ffff16815260200160008201600e9054906101000a900461ffff1661ffff1661ffff1681526020016000820160109054906101000a900460ff16151515158152505081526020019060010190610257565b5050505081526020019060010190610232565b505050509050919050565b6103a4610e73565b6103ae6000610ef1565b565b80600a816020015161ffff161080156103d15750600a816040015161ffff16105b80156103e55750600a816060015161ffff16105b610424576040517f08c379a000000000000000000000000000000000000000000000000000000000815260040161041b906118ff565b60405180910390fd5b610168816080015161ffff161115801561044857506101688160a0015161ffff1611155b801561045e57506101688160c0015161ffff1611155b61049d576040517f08c379a000000000000000000000000000000000000000000000000000000000815260040161049490611991565b60405180910390fd5b6000826020015161ffff1690506000836060015161ffff1690506000846000015190506000600260003373ffffffffffffffffffffffffffffffffffffffff1673ffffffffffffffffffffffffffffffffffffffff16815260200190815260200160002083600a8110610513576105126119b1565b5b600a020184600a8110610529576105286119b1565b5b0160000160009054906101000a900463ffffffff1690508560e0015161078a57600260003373ffffffffffffffffffffffffffffffffffffffff1673ffffffffffffffffffffffffffffffffffffffff16815260200190815260200160002083600a811061059a576105996119b1565b5b600a020184600a81106105b0576105af6119b1565b5b0160000160109054906101000a900460ff16610601576040517f08c379a00000000000000000000000000000000000000000000000000000000081526004016105f890611a2c565b60405180910390fd5b600360003373ffffffffffffffffffffffffffffffffffffffff1673ffffffffffffffffffffffffffffffffffffffff16815260200190815260200160002060008263ffffffff168152602001908152602001600020600081548092919061066890611a7b565b9190505550600260003373ffffffffffffffffffffffffffffffffffffffff1673ffffffffffffffffffffffffffffffffffffffff16815260200190815260200160002083600a81106106be576106bd6119b1565b5b600a020184600a81106106d4576106d36119b1565b5b01600080820160006101000a81549063ffffffff02191690556000820160046101000a81549061ffff02191690556000820160066101000a81549061ffff02191690556000820160086101000a81549061ffff021916905560008201600a6101000a81549061ffff021916905560008201600c6101000a81549061ffff021916905560008201600e6101000a81549061ffff02191690556000820160106101000a81549060ff0219169055505050505050610bab565b6000600360003373ffffffffffffffffffffffffffffffffffffffff1673ffffffffffffffffffffffffffffffffffffffff16815260200190815260200160002060008463ffffffff16815260200190815260200160002054600160009054906101000a900473ffffffffffffffffffffffffffffffffffffffff1673ffffffffffffffffffffffffffffffffffffffff1662fdd58e33866040518363ffffffff1660e01b815260040161083f929190611ad5565b602060405180830381865afa15801561085c573d6000803e3d6000fd5b505050506040513d601f19601f820116820180604052508101906108809190611b13565b61088a9190611b40565b116108ca576040517f08c379a00000000000000000000000000000000000000000000000000000000081526004016108c190611bc0565b60405180910390fd5b600260003373ffffffffffffffffffffffffffffffffffffffff1673ffffffffffffffffffffffffffffffffffffffff16815260200190815260200160002083600a811061091b5761091a6119b1565b5b600a020184600a8110610931576109306119b1565b5b0160000160109054906101000a900460ff16156109b557600360003373ffffffffffffffffffffffffffffffffffffffff1673ffffffffffffffffffffffffffffffffffffffff16815260200190815260200160002060008263ffffffff16815260200190815260200160002060008154809291906109af90611a7b565b91905055505b600360003373ffffffffffffffffffffffffffffffffffffffff1673ffffffffffffffffffffffffffffffffffffffff16815260200190815260200160002060008363ffffffff1681526020019081526020016000206000815480929190610a1c90611be0565b919050555085600260003373ffffffffffffffffffffffffffffffffffffffff1673ffffffffffffffffffffffffffffffffffffffff16815260200190815260200160002084600a8110610a7357610a726119b1565b5b600a020185600a8110610a8957610a886119b1565b5b0160008201518160000160006101000a81548163ffffffff021916908363ffffffff16021790555060208201518160000160046101000a81548161ffff021916908361ffff16021790555060408201518160000160066101000a81548161ffff021916908361ffff16021790555060608201518160000160086101000a81548161ffff021916908361ffff160217905550608082015181600001600a6101000a81548161ffff021916908361ffff16021790555060a082015181600001600c6101000a81548161ffff021916908361ffff16021790555060c082015181600001600e6101000a81548161ffff021916908361ffff16021790555060e08201518160000160106101000a81548160ff021916908315150217905550905050505050505b5050565b60008060009054906101000a900473ffffffffffffffffffffffffffffffffffffffff16905090565b60005b8151811015610c1a57610c07828281518110610bfa57610bf96119b1565b5b60200260200101516103b0565b8080610c1290611be0565b915050610bdb565b5050565b610c26610e73565b80600160006101000a81548173ffffffffffffffffffffffffffffffffffffffff021916908373ffffffffffffffffffffffffffffffffffffffff16021790555050565b610c72610e73565b600073ffffffffffffffffffffffffffffffffffffffff168173ffffffffffffffffffffffffffffffffffffffff1603610ce1576040517f08c379a0000000000000000000000000000000000000000000000000000000008152600401610cd890611c9a565b60405180910390fd5b610cea81610ef1565b50565b610cf5610feb565b600260008573ffffffffffffffffffffffffffffffffffffffff1673ffffffffffffffffffffffffffffffffffffffff16815260200190815260200160002082600a8110610d4657610d456119b1565b5b600a020183600a8110610d5c57610d5b6119b1565b5b01604051806101000160405290816000820160009054906101000a900463ffffffff1663ffffffff1663ffffffff1681526020016000820160049054906101000a900461ffff1661ffff1661ffff1681526020016000820160069054906101000a900461ffff1661ffff1661ffff1681526020016000820160089054906101000a900461ffff1661ffff1661ffff16815260200160008201600a9054906101000a900461ffff1661ffff1661ffff16815260200160008201600c9054906101000a900461ffff1661ffff1661ffff16815260200160008201600e9054906101000a900461ffff1661ffff1661ffff1681526020016000820160109054906101000a900460ff16151515158152505090509392505050565b610e7b610fb5565b73ffffffffffffffffffffffffffffffffffffffff16610e99610baf565b73ffffffffffffffffffffffffffffffffffffffff1614610eef576040517f08c379a0000000000000000000000000000000000000000000000000000000008152600401610ee690611d06565b60405180910390fd5b565b60008060009054906101000a900473ffffffffffffffffffffffffffffffffffffffff169050816000806101000a81548173ffffffffffffffffffffffffffffffffffffffff021916908373ffffffffffffffffffffffffffffffffffffffff1602179055508173ffffffffffffffffffffffffffffffffffffffff168173ffffffffffffffffffffffffffffffffffffffff167f8be0079c531659141344cd1fd0a4f28419497f9722a3daafe3b4186f6b6457e060405160405180910390a35050565b600033905090565b604051806101400160405280600a905b610fd5611050565b815260200190600190039081610fcd5790505090565b604051806101000160405280600063ffffffff168152602001600061ffff168152602001600061ffff168152602001600061ffff168152602001600061ffff168152602001600061ffff168152602001600061ffff1681526020016000151581525090565b604051806101400160405280600a905b611068610feb565b8152602001906001900390816110605790505090565b600073ffffffffffffffffffffffffffffffffffffffff82169050919050565b6000819050919050565b60006110c36110be6110b98461107e565b61109e565b61107e565b9050919050565b60006110d5826110a8565b9050919050565b60006110e7826110ca565b9050919050565b6110f7816110dc565b82525050565b600060208201905061111260008301846110ee565b92915050565b6000604051905090565b600080fd5b600080fd5b60006111378261107e565b9050919050565b6111478161112c565b811461115257600080fd5b50565b6000813590506111648161113e565b92915050565b6000602082840312156111805761117f611122565b5b600061118e84828501611155565b91505092915050565b6000600a9050919050565b600081905092915050565b6000819050919050565b6000600a9050919050565b600081905092915050565b6000819050919050565b600063ffffffff82169050919050565b6111f0816111d7565b82525050565b600061ffff82169050919050565b61120d816111f6565b82525050565b60008115159050919050565b61122881611213565b82525050565b6101008201600082015161124560008501826111e7565b5060208201516112586020850182611204565b50604082015161126b6040850182611204565b50606082015161127e6060850182611204565b5060808201516112916080850182611204565b5060a08201516112a460a0850182611204565b5060c08201516112b760c0850182611204565b5060e08201516112ca60e085018261121f565b50505050565b60006112dc838361122e565b6101008301905092915050565b6000602082019050919050565b6112ff816111b7565b61130981846111c2565b9250611314826111cd565b8060005b8381101561134557815161132c87826112d0565b9650611337836112e9565b925050600181019050611318565b505050505050565b600061135983836112f6565b610a008301905092915050565b6000602082019050919050565b61137c81611197565b61138681846111a2565b9250611391826111ad565b8060005b838110156113c25781516113a9878261134d565b96506113b483611366565b925050600181019050611395565b505050505050565b6000616400820190506113e06000830184611373565b92915050565b600080fd5b6000601f19601f8301169050919050565b7f4e487b7100000000000000000000000000000000000000000000000000000000600052604160045260246000fd5b611434826113eb565b810181811067ffffffffffffffff82111715611453576114526113fc565b5b80604052505050565b6000611466611118565b9050611472828261142b565b919050565b611480816111d7565b811461148b57600080fd5b50565b60008135905061149d81611477565b92915050565b6114ac816111f6565b81146114b757600080fd5b50565b6000813590506114c9816114a3565b92915050565b6114d881611213565b81146114e357600080fd5b50565b6000813590506114f5816114cf565b92915050565b60006101008284031215611512576115116113e6565b5b61151d61010061145c565b9050600061152d8482850161148e565b6000830152506020611541848285016114ba565b6020830152506040611555848285016114ba565b6040830152506060611569848285016114ba565b606083015250608061157d848285016114ba565b60808301525060a0611591848285016114ba565b60a08301525060c06115a5848285016114ba565b60c08301525060e06115b9848285016114e6565b60e08301525092915050565b600061010082840312156115dc576115db611122565b5b60006115ea848285016114fb565b91505092915050565b6115fc8161112c565b82525050565b600060208201905061161760008301846115f3565b92915050565b600080fd5b600067ffffffffffffffff82111561163d5761163c6113fc565b5b602082029050602081019050919050565b600080fd5b600061166661166184611622565b61145c565b905080838252602082019050610100840283018581111561168a5761168961164e565b5b835b818110156116b4578061169f88826114fb565b8452602084019350506101008101905061168c565b5050509392505050565b600082601f8301126116d3576116d261161d565b5b81356116e3848260208601611653565b91505092915050565b60006020828403121561170257611701611122565b5b600082013567ffffffffffffffff8111156117205761171f611127565b5b61172c848285016116be565b91505092915050565b6000819050919050565b61174881611735565b811461175357600080fd5b50565b6000813590506117658161173f565b92915050565b60008060006060848603121561178457611783611122565b5b600061179286828701611155565b93505060206117a386828701611756565b92505060406117b486828701611756565b9150509250925092565b610100820160008201516117d560008501826111e7565b5060208201516117e86020850182611204565b5060408201516117fb6040850182611204565b50606082015161180e6060850182611204565b5060808201516118216080850182611204565b5060a082015161183460a0850182611204565b5060c082015161184760c0850182611204565b5060e082015161185a60e085018261121f565b50505050565b60006101008201905061187660008301846117be565b92915050565b600082825260208201905092915050565b7f636865636b437562654f626a3a204f7574206f662072616e676520706f73697460008201527f696f6e58595a0000000000000000000000000000000000000000000000000000602082015250565b60006118e960268361187c565b91506118f48261188d565b604082019050919050565b60006020820190508181036000830152611918816118dc565b9050919050565b7f636865636b437562654f626a3a204f7574206f662072616e676520726f74617460008201527f696f6e58595a0000000000000000000000000000000000000000000000000000602082015250565b600061197b60268361187c565b91506119868261191f565b604082019050919050565b600060208201905081810360008301526119aa8161196e565b9050919050565b7f4e487b7100000000000000000000000000000000000000000000000000000000600052603260045260246000fd5b7f736574437562654f626a3a204e6f7420796574207365742e0000000000000000600082015250565b6000611a1660188361187c565b9150611a21826119e0565b602082019050919050565b60006020820190508181036000830152611a4581611a09565b9050919050565b7f4e487b7100000000000000000000000000000000000000000000000000000000600052601160045260246000fd5b6000611a8682611735565b915060008203611a9957611a98611a4c565b5b600182039050919050565b6000611abf611aba611ab5846111d7565b61109e565b611735565b9050919050565b611acf81611aa4565b82525050565b6000604082019050611aea60008301856115f3565b611af76020830184611ac6565b9392505050565b600081519050611b0d8161173f565b92915050565b600060208284031215611b2957611b28611122565b5b6000611b3784828501611afe565b91505092915050565b6000611b4b82611735565b9150611b5683611735565b9250828203905081811115611b6e57611b6d611a4c565b5b92915050565b7f6c61636b206f66207072697a654e756d00000000000000000000000000000000600082015250565b6000611baa60108361187c565b9150611bb582611b74565b602082019050919050565b60006020820190508181036000830152611bd981611b9d565b9050919050565b6000611beb82611735565b91507fffffffffffffffffffffffffffffffffffffffffffffffffffffffffffffffff8203611c1d57611c1c611a4c565b5b600182019050919050565b7f4f776e61626c653a206e6577206f776e657220697320746865207a65726f206160008201527f6464726573730000000000000000000000000000000000000000000000000000602082015250565b6000611c8460268361187c565b9150611c8f82611c28565b604082019050919050565b60006020820190508181036000830152611cb381611c77565b9050919050565b7f4f776e61626c653a2063616c6c6572206973206e6f7420746865206f776e6572600082015250565b6000611cf060208361187c565b9150611cfb82611cba565b602082019050919050565b60006020820190508181036000830152611d1f81611ce3565b905091905056fea26469706673582212207d623885c7b45d6c44b05fde1dff9a7106582a5aa6b1c95776af8aacb87f2e3c64736f6c63430008120033",
  "linkReferences": {},
  "deployedLinkReferences": {}
}