{
  "_format": "hh-sol-artifact-1",
  "contractName": "PrizePoap",
  "sourceName": "contracts/PrizePoap.sol",
  "abi": [
    {
      "inputs": [
        {
          "internalType": "address",
          "name": "_communityPortal",
          "type": "address"
        },
        {
          "internalType": "address",
          "name": "_questBoard",
          "type": "address"
        },
        {
          "internalType": "string",
          "name": "_initBaseURI",
          "type": "string"
        }
      ],
      "stateMutability": "nonpayable",
      "type": "constructor"
    },
    {
      "anonymous": false,
      "inputs": [
        {
          "indexed": true,
          "internalType": "address",
          "name": "account",
          "type": "address"
        },
        {
          "indexed": true,
          "internalType": "address",
          "name": "operator",
          "type": "address"
        },
        {
          "indexed": false,
          "internalType": "bool",
          "name": "approved",
          "type": "bool"
        }
      ],
      "name": "ApprovalForAll",
      "type": "event"
    },
    {
      "anonymous": false,
      "inputs": [
        {
          "indexed": true,
          "internalType": "address",
          "name": "publisher",
          "type": "address"
        },
        {
          "indexed": false,
          "internalType": "string",
          "name": "tokenURI",
          "type": "string"
        },
        {
          "indexed": true,
          "internalType": "uint32",
          "name": "communityId",
          "type": "uint32"
        },
        {
          "indexed": false,
          "internalType": "uint32",
          "name": "requiredExp",
          "type": "uint32"
        },
        {
          "indexed": false,
          "internalType": "uint32",
          "name": "requiredQuestId",
          "type": "uint32"
        },
        {
          "indexed": false,
          "internalType": "bool",
          "name": "questRequired",
          "type": "bool"
        },
        {
          "indexed": false,
          "internalType": "bool",
          "name": "closed",
          "type": "bool"
        }
      ],
      "name": "Created",
      "type": "event"
    },
    {
      "anonymous": false,
      "inputs": [
        {
          "indexed": true,
          "internalType": "address",
          "name": "previousOwner",
          "type": "address"
        },
        {
          "indexed": true,
          "internalType": "address",
          "name": "newOwner",
          "type": "address"
        }
      ],
      "name": "OwnershipTransferred",
      "type": "event"
    },
    {
      "anonymous": false,
      "inputs": [
        {
          "indexed": true,
          "internalType": "address",
          "name": "operator",
          "type": "address"
        },
        {
          "indexed": true,
          "internalType": "address",
          "name": "from",
          "type": "address"
        },
        {
          "indexed": true,
          "internalType": "address",
          "name": "to",
          "type": "address"
        },
        {
          "indexed": false,
          "internalType": "uint256[]",
          "name": "ids",
          "type": "uint256[]"
        },
        {
          "indexed": false,
          "internalType": "uint256[]",
          "name": "values",
          "type": "uint256[]"
        }
      ],
      "name": "TransferBatch",
      "type": "event"
    },
    {
      "anonymous": false,
      "inputs": [
        {
          "indexed": true,
          "internalType": "address",
          "name": "operator",
          "type": "address"
        },
        {
          "indexed": true,
          "internalType": "address",
          "name": "from",
          "type": "address"
        },
        {
          "indexed": true,
          "internalType": "address",
          "name": "to",
          "type": "address"
        },
        {
          "indexed": false,
          "internalType": "uint256",
          "name": "id",
          "type": "uint256"
        },
        {
          "indexed": false,
          "internalType": "uint256",
          "name": "value",
          "type": "uint256"
        }
      ],
      "name": "TransferSingle",
      "type": "event"
    },
    {
      "anonymous": false,
      "inputs": [
        {
          "indexed": false,
          "internalType": "string",
          "name": "value",
          "type": "string"
        },
        {
          "indexed": true,
          "internalType": "uint256",
          "name": "id",
          "type": "uint256"
        }
      ],
      "name": "URI",
      "type": "event"
    },
    {
      "inputs": [
        {
          "internalType": "address",
          "name": "account",
          "type": "address"
        },
        {
          "internalType": "uint256",
          "name": "id",
          "type": "uint256"
        }
      ],
      "name": "balanceOf",
      "outputs": [
        {
          "internalType": "uint256",
          "name": "",
          "type": "uint256"
        }
      ],
      "stateMutability": "view",
      "type": "function"
    },
    {
      "inputs": [
        {
          "internalType": "address[]",
          "name": "accounts",
          "type": "address[]"
        },
        {
          "internalType": "uint256[]",
          "name": "ids",
          "type": "uint256[]"
        }
      ],
      "name": "balanceOfBatch",
      "outputs": [
        {
          "internalType": "uint256[]",
          "name": "",
          "type": "uint256[]"
        }
      ],
      "stateMutability": "view",
      "type": "function"
    },
    {
      "inputs": [
        {
          "internalType": "uint256",
          "name": "tokenId",
          "type": "uint256"
        }
      ],
      "name": "burn",
      "outputs": [],
      "stateMutability": "nonpayable",
      "type": "function"
    },
    {
      "inputs": [
        {
          "internalType": "address[]",
          "name": "targets",
          "type": "address[]"
        },
        {
          "internalType": "uint256[]",
          "name": "tokenIds",
          "type": "uint256[]"
        }
      ],
      "name": "checkBatchObtainable",
      "outputs": [
        {
          "internalType": "bool[]",
          "name": "",
          "type": "bool[]"
        }
      ],
      "stateMutability": "view",
      "type": "function"
    },
    {
      "inputs": [
        {
          "internalType": "address[]",
          "name": "targets",
          "type": "address[]"
        },
        {
          "internalType": "uint256[]",
          "name": "tokenIds",
          "type": "uint256[]"
        }
      ],
      "name": "checkBatchObtained",
      "outputs": [
        {
          "internalType": "bool[]",
          "name": "",
          "type": "bool[]"
        }
      ],
      "stateMutability": "view",
      "type": "function"
    },
    {
      "inputs": [
        {
          "internalType": "address",
          "name": "target",
          "type": "address"
        },
        {
          "internalType": "uint256",
          "name": "tokenId",
          "type": "uint256"
        }
      ],
      "name": "checkObtainable",
      "outputs": [
        {
          "internalType": "bool",
          "name": "",
          "type": "bool"
        }
      ],
      "stateMutability": "view",
      "type": "function"
    },
    {
      "inputs": [
        {
          "internalType": "address",
          "name": "target",
          "type": "address"
        },
        {
          "internalType": "uint256",
          "name": "tokenId",
          "type": "uint256"
        }
      ],
      "name": "checkObtained",
      "outputs": [
        {
          "internalType": "bool",
          "name": "",
          "type": "bool"
        }
      ],
      "stateMutability": "view",
      "type": "function"
    },
    {
      "inputs": [],
      "name": "communityPortal",
      "outputs": [
        {
          "internalType": "contract ICommunityPortal",
          "name": "",
          "type": "address"
        }
      ],
      "stateMutability": "view",
      "type": "function"
    },
    {
      "inputs": [
        {
          "internalType": "string",
          "name": "_tokenURI",
          "type": "string"
        },
        {
          "internalType": "uint32",
          "name": "_communityId",
          "type": "uint32"
        },
        {
          "internalType": "uint32",
          "name": "_requiredExp",
          "type": "uint32"
        },
        {
          "internalType": "uint32",
          "name": "_requiredQuestId",
          "type": "uint32"
        },
        {
          "internalType": "bool",
          "name": "_questRequired",
          "type": "bool"
        }
      ],
      "name": "create",
      "outputs": [],
      "stateMutability": "nonpayable",
      "type": "function"
    },
    {
      "inputs": [
        {
          "internalType": "uint256",
          "name": "id",
          "type": "uint256"
        }
      ],
      "name": "exists",
      "outputs": [
        {
          "internalType": "bool",
          "name": "",
          "type": "bool"
        }
      ],
      "stateMutability": "view",
      "type": "function"
    },
    {
      "inputs": [],
      "name": "getBaseURI",
      "outputs": [
        {
          "internalType": "string",
          "name": "prize",
          "type": "string"
        }
      ],
      "stateMutability": "view",
      "type": "function"
    },
    {
      "inputs": [
        {
          "internalType": "uint256",
          "name": "tokenId",
          "type": "uint256"
        }
      ],
      "name": "getPrize",
      "outputs": [
        {
          "components": [
            {
              "internalType": "string",
              "name": "tokenURI",
              "type": "string"
            },
            {
              "internalType": "uint32",
              "name": "communityId",
              "type": "uint32"
            },
            {
              "internalType": "uint32",
              "name": "requiredExp",
              "type": "uint32"
            },
            {
              "internalType": "uint32",
              "name": "requiredQuestId",
              "type": "uint32"
            },
            {
              "internalType": "bool",
              "name": "questRequired",
              "type": "bool"
            },
            {
              "internalType": "bool",
              "name": "closed",
              "type": "bool"
            }
          ],
          "internalType": "struct IPrizePoap.Prize",
          "name": "prize",
          "type": "tuple"
        }
      ],
      "stateMutability": "view",
      "type": "function"
    },
    {
      "inputs": [
        {
          "internalType": "uint256",
          "name": "page",
          "type": "uint256"
        },
        {
          "internalType": "uint256",
          "name": "pageSize",
          "type": "uint256"
        }
      ],
      "name": "getPrizeList",
      "outputs": [
        {
          "components": [
            {
              "internalType": "string",
              "name": "tokenURI",
              "type": "string"
            },
            {
              "internalType": "uint32",
              "name": "communityId",
              "type": "uint32"
            },
            {
              "internalType": "uint32",
              "name": "requiredExp",
              "type": "uint32"
            },
            {
              "internalType": "uint32",
              "name": "requiredQuestId",
              "type": "uint32"
            },
            {
              "internalType": "bool",
              "name": "questRequired",
              "type": "bool"
            },
            {
              "internalType": "bool",
              "name": "closed",
              "type": "bool"
            }
          ],
          "internalType": "struct IPrizePoap.Prize[]",
          "name": "",
          "type": "tuple[]"
        },
        {
          "internalType": "uint256",
          "name": "",
          "type": "uint256"
        }
      ],
      "stateMutability": "view",
      "type": "function"
    },
    {
      "inputs": [],
      "name": "getPrizeListLength",
      "outputs": [
        {
          "internalType": "uint256",
          "name": "length",
          "type": "uint256"
        }
      ],
      "stateMutability": "view",
      "type": "function"
    },
    {
      "inputs": [
        {
          "internalType": "address",
          "name": "account",
          "type": "address"
        },
        {
          "internalType": "address",
          "name": "operator",
          "type": "address"
        }
      ],
      "name": "isApprovedForAll",
      "outputs": [
        {
          "internalType": "bool",
          "name": "",
          "type": "bool"
        }
      ],
      "stateMutability": "view",
      "type": "function"
    },
    {
      "inputs": [
        {
          "internalType": "uint256",
          "name": "tokenId",
          "type": "uint256"
        }
      ],
      "name": "mint",
      "outputs": [],
      "stateMutability": "nonpayable",
      "type": "function"
    },
    {
      "inputs": [
        {
          "internalType": "uint256",
          "name": "tokenId",
          "type": "uint256"
        },
        {
          "internalType": "address",
          "name": "to",
          "type": "address"
        }
      ],
      "name": "mintOnlyQuestBoard",
      "outputs": [],
      "stateMutability": "nonpayable",
      "type": "function"
    },
    {
      "inputs": [],
      "name": "owner",
      "outputs": [
        {
          "internalType": "address",
          "name": "",
          "type": "address"
        }
      ],
      "stateMutability": "view",
      "type": "function"
    },
    {
      "inputs": [],
      "name": "questBoard",
      "outputs": [
        {
          "internalType": "contract IQuestBoard",
          "name": "",
          "type": "address"
        }
      ],
      "stateMutability": "view",
      "type": "function"
    },
    {
      "inputs": [],
      "name": "renounceOwnership",
      "outputs": [],
      "stateMutability": "nonpayable",
      "type": "function"
    },
    {
      "inputs": [
        {
          "internalType": "address",
          "name": "from",
          "type": "address"
        },
        {
          "internalType": "address",
          "name": "to",
          "type": "address"
        },
        {
          "internalType": "uint256[]",
          "name": "ids",
          "type": "uint256[]"
        },
        {
          "internalType": "uint256[]",
          "name": "amounts",
          "type": "uint256[]"
        },
        {
          "internalType": "bytes",
          "name": "data",
          "type": "bytes"
        }
      ],
      "name": "safeBatchTransferFrom",
      "outputs": [],
      "stateMutability": "nonpayable",
      "type": "function"
    },
    {
      "inputs": [
        {
          "internalType": "address",
          "name": "from",
          "type": "address"
        },
        {
          "internalType": "address",
          "name": "to",
          "type": "address"
        },
        {
          "internalType": "uint256",
          "name": "id",
          "type": "uint256"
        },
        {
          "internalType": "uint256",
          "name": "amount",
          "type": "uint256"
        },
        {
          "internalType": "bytes",
          "name": "data",
          "type": "bytes"
        }
      ],
      "name": "safeTransferFrom",
      "outputs": [],
      "stateMutability": "nonpayable",
      "type": "function"
    },
    {
      "inputs": [
        {
          "internalType": "address",
          "name": "operator",
          "type": "address"
        },
        {
          "internalType": "bool",
          "name": "approved",
          "type": "bool"
        }
      ],
      "name": "setApprovalForAll",
      "outputs": [],
      "stateMutability": "nonpayable",
      "type": "function"
    },
    {
      "inputs": [
        {
          "internalType": "string",
          "name": "_newBaseURL",
          "type": "string"
        }
      ],
      "name": "setBaseURI",
      "outputs": [],
      "stateMutability": "nonpayable",
      "type": "function"
    },
    {
      "inputs": [
        {
          "internalType": "address",
          "name": "_communityPortal",
          "type": "address"
        }
      ],
      "name": "setCommunityPortal",
      "outputs": [],
      "stateMutability": "nonpayable",
      "type": "function"
    },
    {
      "inputs": [
        {
          "internalType": "uint256",
          "name": "tokenId",
          "type": "uint256"
        },
        {
          "components": [
            {
              "internalType": "string",
              "name": "tokenURI",
              "type": "string"
            },
            {
              "internalType": "uint32",
              "name": "communityId",
              "type": "uint32"
            },
            {
              "internalType": "uint32",
              "name": "requiredExp",
              "type": "uint32"
            },
            {
              "internalType": "uint32",
              "name": "requiredQuestId",
              "type": "uint32"
            },
            {
              "internalType": "bool",
              "name": "questRequired",
              "type": "bool"
            },
            {
              "internalType": "bool",
              "name": "closed",
              "type": "bool"
            }
          ],
          "internalType": "struct IPrizePoap.Prize",
          "name": "prize",
          "type": "tuple"
        }
      ],
      "name": "setPrize",
      "outputs": [],
      "stateMutability": "nonpayable",
      "type": "function"
    },
    {
      "inputs": [
        {
          "internalType": "address",
          "name": "_questBoard",
          "type": "address"
        }
      ],
      "name": "setQuestBoard",
      "outputs": [],
      "stateMutability": "nonpayable",
      "type": "function"
    },
    {
      "inputs": [
        {
          "internalType": "bytes4",
          "name": "interfaceId",
          "type": "bytes4"
        }
      ],
      "name": "supportsInterface",
      "outputs": [
        {
          "internalType": "bool",
          "name": "",
          "type": "bool"
        }
      ],
      "stateMutability": "view",
      "type": "function"
    },
    {
      "inputs": [
        {
          "internalType": "uint256",
          "name": "id",
          "type": "uint256"
        }
      ],
      "name": "totalSupply",
      "outputs": [
        {
          "internalType": "uint256",
          "name": "",
          "type": "uint256"
        }
      ],
      "stateMutability": "view",
      "type": "function"
    },
    {
      "inputs": [
        {
          "internalType": "address",
          "name": "newOwner",
          "type": "address"
        }
      ],
      "name": "transferOwnership",
      "outputs": [],
      "stateMutability": "nonpayable",
      "type": "function"
    },
    {
      "inputs": [
        {
          "internalType": "uint256",
          "name": "tokenId",
          "type": "uint256"
        }
      ],
      "name": "uri",
      "outputs": [
        {
          "internalType": "string",
          "name": "",
          "type": "string"
        }
      ],
      "stateMutability": "view",
      "type": "function"
    }
  ],
  "bytecode": "0x60806040523480156200001157600080fd5b50604051620061bf380380620061bf8339818101604052810190620000379190620003ef565b60405180602001604052806000815250620000676200005b6200011660201b60201c565b6200011e60201b60201c565b6200007881620001e260201b60201c565b5082600560006101000a81548173ffffffffffffffffffffffffffffffffffffffff021916908373ffffffffffffffffffffffffffffffffffffffff16021790555081600660006101000a81548173ffffffffffffffffffffffffffffffffffffffff021916908373ffffffffffffffffffffffffffffffffffffffff16021790555080600790816200010c9190620006b5565b505050506200079c565b600033905090565b60008060009054906101000a900473ffffffffffffffffffffffffffffffffffffffff169050816000806101000a81548173ffffffffffffffffffffffffffffffffffffffff021916908373ffffffffffffffffffffffffffffffffffffffff1602179055508173ffffffffffffffffffffffffffffffffffffffff168173ffffffffffffffffffffffffffffffffffffffff167f8be0079c531659141344cd1fd0a4f28419497f9722a3daafe3b4186f6b6457e060405160405180910390a35050565b8060039081620001f39190620006b5565b5050565b6000604051905090565b600080fd5b600080fd5b600073ffffffffffffffffffffffffffffffffffffffff82169050919050565b600062000238826200020b565b9050919050565b6200024a816200022b565b81146200025657600080fd5b50565b6000815190506200026a816200023f565b92915050565b600080fd5b600080fd5b6000601f19601f8301169050919050565b7f4e487b7100000000000000000000000000000000000000000000000000000000600052604160045260246000fd5b620002c5826200027a565b810181811067ffffffffffffffff82111715620002e757620002e66200028b565b5b80604052505050565b6000620002fc620001f7565b90506200030a8282620002ba565b919050565b600067ffffffffffffffff8211156200032d576200032c6200028b565b5b62000338826200027a565b9050602081019050919050565b60005b838110156200036557808201518184015260208101905062000348565b60008484015250505050565b60006200038862000382846200030f565b620002f0565b905082815260208101848484011115620003a757620003a662000275565b5b620003b484828562000345565b509392505050565b600082601f830112620003d457620003d362000270565b5b8151620003e684826020860162000371565b91505092915050565b6000806000606084860312156200040b576200040a62000201565b5b60006200041b8682870162000259565b93505060206200042e8682870162000259565b925050604084015167ffffffffffffffff81111562000452576200045162000206565b5b6200046086828701620003bc565b9150509250925092565b600081519050919050565b7f4e487b7100000000000000000000000000000000000000000000000000000000600052602260045260246000fd5b60006002820490506001821680620004bd57607f821691505b602082108103620004d357620004d262000475565b5b50919050565b60008190508160005260206000209050919050565b60006020601f8301049050919050565b600082821b905092915050565b6000600883026200053d7fffffffffffffffffffffffffffffffffffffffffffffffffffffffffffffffff82620004fe565b620005498683620004fe565b95508019841693508086168417925050509392505050565b6000819050919050565b6000819050919050565b600062000596620005906200058a8462000561565b6200056b565b62000561565b9050919050565b6000819050919050565b620005b28362000575565b620005ca620005c1826200059d565b8484546200050b565b825550505050565b600090565b620005e1620005d2565b620005ee818484620005a7565b505050565b5b8181101562000616576200060a600082620005d7565b600181019050620005f4565b5050565b601f82111562000665576200062f81620004d9565b6200063a84620004ee565b810160208510156200064a578190505b620006626200065985620004ee565b830182620005f3565b50505b505050565b600082821c905092915050565b60006200068a600019846008026200066a565b1980831691505092915050565b6000620006a5838362000677565b9150826002028217905092915050565b620006c0826200046a565b67ffffffffffffffff811115620006dc57620006db6200028b565b5b620006e88254620004a4565b620006f58282856200061a565b600060209050601f8311600181146200072d576000841562000718578287015190505b62000724858262000697565b86555062000794565b601f1984166200073d86620004d9565b60005b82811015620007675784890151825560018201915060208501945060208101905062000740565b8683101562000787578489015162000783601f89168262000677565b8355505b6001600288020188555050505b505050505050565b615a1380620007ac6000396000f3fe608060405234801561001057600080fd5b50600436106101e45760003560e01c8063715018a61161010f578063bd85b039116100a2578063e287339811610071578063e2873398146105b1578063e985e9c5146105e2578063f242432a14610612578063f2fde38b1461062e576101e4565b8063bd85b03914610505578063d03db2ab14610535578063d88d54b314610565578063deaa0e0014610581576101e4565b8063a1099bf2116100de578063a1099bf21461047f578063a22cb465146104af578063add24fc0146104cb578063b72d092a146104e7576101e4565b8063715018a61461041f578063845bb257146104295780638da5cb5b14610445578063a0712d6814610463576101e4565b8063237b24b7116101875780634f558e79116101565780634f558e791461039757806352c59c72146103c757806355f804b3146103e5578063714c539814610401576101e4565b8063237b24b7146102ff5780632eb2c2d61461032f57806342966c681461034b5780634e1273f414610367576101e4565b80630e89341c116101c35780630e89341c14610265578063120d534f1461029557806313122798146102b15780631bef654d146102cf576101e4565b8062fdd58e146101e957806301ffc9a714610219578063022feb7314610249575b600080fd5b61020360048036038101906101fe91906133d5565b61064a565b6040516102109190613424565b60405180910390f35b610233600480360381019061022e9190613497565b610713565b60405161024091906134df565b60405180910390f35b610263600480360381019061025e91906134fa565b6107f5565b005b61027f600480360381019061027a9190613527565b610841565b60405161028c91906135e4565b60405180910390f35b6102af60048036038101906102aa91906137a3565b610905565b005b6102b9610bda565b6040516102c69190613899565b60405180910390f35b6102e960048036038101906102e491906133d5565b610c00565b6040516102f691906134df565b60405180910390f35b61031960048036038101906103149190613a3f565b610f84565b6040516103269190613b75565b60405180910390f35b61034960048036038101906103449190613c38565b6110a5565b005b61036560048036038101906103609190613527565b611146565b005b610381600480360381019061037c9190613a3f565b611155565b60405161038e9190613dc5565b60405180910390f35b6103b160048036038101906103ac9190613527565b61126e565b6040516103be91906134df565b60405180910390f35b6103cf611282565b6040516103dc9190613424565b60405180910390f35b6103ff60048036038101906103fa9190613de7565b61128f565b005b6104096112aa565b60405161041691906135e4565b60405180910390f35b61042761133c565b005b610443600480360381019061043e91906134fa565b611350565b005b61044d61139c565b60405161045a9190613e3f565b60405180910390f35b61047d60048036038101906104789190613527565b6113c5565b005b61049960048036038101906104949190613527565b6114a1565b6040516104a69190613f3c565b60405180910390f35b6104c960048036038101906104c49190613f5e565b6116cf565b005b6104e560048036038101906104e09190613f9e565b6116e5565b005b6104ef611852565b6040516104fc9190613fff565b60405180910390f35b61051f600480360381019061051a9190613527565b611878565b60405161052c9190613424565b60405180910390f35b61054f600480360381019061054a91906133d5565b611895565b60405161055c91906134df565b60405180910390f35b61057f600480360381019061057a91906140e0565b6118ab565b005b61059b60048036038101906105969190613a3f565b6119a8565b6040516105a89190613b75565b60405180910390f35b6105cb60048036038101906105c6919061413c565b611ac9565b6040516105d99291906142c7565b60405180910390f35b6105fc60048036038101906105f791906142f7565b611d67565b60405161060991906134df565b60405180910390f35b61062c60048036038101906106279190614337565b611dfb565b005b610648600480360381019061064391906134fa565b611e9c565b005b60008073ffffffffffffffffffffffffffffffffffffffff168373ffffffffffffffffffffffffffffffffffffffff16036106ba576040517f08c379a00000000000000000000000000000000000000000000000000000000081526004016106b190614440565b60405180910390fd5b6001600083815260200190815260200160002060008473ffffffffffffffffffffffffffffffffffffffff1673ffffffffffffffffffffffffffffffffffffffff16815260200190815260200160002054905092915050565b60007fd9b67a26000000000000000000000000000000000000000000000000000000007bffffffffffffffffffffffffffffffffffffffffffffffffffffffff1916827bffffffffffffffffffffffffffffffffffffffffffffffffffffffff191614806107de57507f0e89341c000000000000000000000000000000000000000000000000000000007bffffffffffffffffffffffffffffffffffffffffffffffffffffffff1916827bffffffffffffffffffffffffffffffffffffffffffffffffffffffff1916145b806107ee57506107ed82611f1f565b5b9050919050565b6107fd611f89565b80600660006101000a81548173ffffffffffffffffffffffffffffffffffffffff021916908373ffffffffffffffffffffffffffffffffffffffff16021790555050565b606061084c8261126e565b61088b576040517f08c379a0000000000000000000000000000000000000000000000000000000008152600401610882906144ac565b60405180910390fd5b60006007805461089a906144fb565b9050116108b657604051806020016040528060008152506108fe565b6007600883815481106108cc576108cb61452c565b5b90600052602060002090600202016000016040516020016108ee9291906145fe565b6040516020818303038152906040525b9050919050565b61090d611f89565b6000600560009054906101000a900473ffffffffffffffffffffffffffffffffffffffff1673ffffffffffffffffffffffffffffffffffffffff1663ca83747e866040518263ffffffff1660e01b815260040161096a9190614631565b600060405180830381865afa158015610987573d6000803e3d6000fd5b505050506040513d6000823e3d601f19601f820116820180604052508101906109b091906146e6565b90915090508091505080156109fa576040517f08c379a00000000000000000000000000000000000000000000000000000000081526004016109f1906147a1565b60405180910390fd5b610a026132e1565b86816000018190525085816020019063ffffffff16908163ffffffff168152505084816040019063ffffffff16908163ffffffff168152505083816060019063ffffffff16908163ffffffff16815250508281608001901515908115158152505060088190806001815401808255809150506001900390600052602060002090600202016000909190919091506000820151816000019081610aa4919061494e565b5060208201518160010160006101000a81548163ffffffff021916908363ffffffff16021790555060408201518160010160046101000a81548163ffffffff021916908363ffffffff16021790555060608201518160010160086101000a81548163ffffffff021916908363ffffffff160217905550608082015181600101600c6101000a81548160ff02191690831515021790555060a082015181600101600d6101000a81548160ff0219169083151502179055505050806020015163ffffffff163373ffffffffffffffffffffffffffffffffffffffff167f782cb415b74d0b6a240b7d5d33126416b02f76ae96526eb831ebcf587ed9899b83600001518460400151856060015186608001518760a00151604051610bc9959493929190614a20565b60405180910390a350505050505050565b600660009054906101000a900473ffffffffffffffffffffffffffffffffffffffff1681565b60008060088381548110610c1757610c1661452c565b5b90600052602060002090600202016040518060c0016040529081600082018054610c40906144fb565b80601f0160208091040260200160405190810160405280929190818152602001828054610c6c906144fb565b8015610cb95780601f10610c8e57610100808354040283529160200191610cb9565b820191906000526020600020905b815481529060010190602001808311610c9c57829003601f168201915b505050505081526020016001820160009054906101000a900463ffffffff1663ffffffff1663ffffffff1681526020016001820160049054906101000a900463ffffffff1663ffffffff1663ffffffff1681526020016001820160089054906101000a900463ffffffff1663ffffffff1663ffffffff16815260200160018201600c9054906101000a900460ff1615151515815260200160018201600d9054906101000a900460ff1615151515815250509050806080015115610e22576000600660009054906101000a900473ffffffffffffffffffffffffffffffffffffffff1673ffffffffffffffffffffffffffffffffffffffff1662fdd58e8684606001516040518363ffffffff1660e01b8152600401610dd8929190614aab565b602060405180830381865afa158015610df5573d6000803e3d6000fd5b505050506040513d601f19601f82011682018060405250810190610e199190614ae9565b11915050610f7e565b6000816020015190506000600560009054906101000a900473ffffffffffffffffffffffffffffffffffffffff1673ffffffffffffffffffffffffffffffffffffffff1663ca83747e836040518263ffffffff1660e01b8152600401610e889190614631565b600060405180830381865afa158015610ea5573d6000803e3d6000fd5b505050506040513d6000823e3d601f19601f82011682018060405250810190610ece91906146e6565b9091505080915050600081905060008173ffffffffffffffffffffffffffffffffffffffff166357a5893c896040518263ffffffff1660e01b8152600401610f169190613e3f565b600060405180830381865afa158015610f33573d6000803e3d6000fd5b505050506040513d6000823e3d601f19601f82011682018060405250810190610f5c9190614bab565b9050846040015163ffffffff16816040015163ffffffff161015955050505050505b92915050565b60608151835114610fca576040517f08c379a0000000000000000000000000000000000000000000000000000000008152600401610fc190614c66565b60405180910390fd5b6000825167ffffffffffffffff811115610fe757610fe6613610565b5b6040519080825280602002602001820160405280156110155781602001602082028036833780820191505090505b50905060005b835181101561109a5761106285828151811061103a5761103961452c565b5b60200260200101518583815181106110555761105461452c565b5b6020026020010151610c00565b8282815181106110755761107461452c565b5b602002602001019015159081151581525050808061109290614cb5565b91505061101b565b508091505092915050565b6110ad612007565b73ffffffffffffffffffffffffffffffffffffffff168573ffffffffffffffffffffffffffffffffffffffff1614806110f357506110f2856110ed612007565b611d67565b5b611132576040517f08c379a000000000000000000000000000000000000000000000000000000000815260040161112990614d6f565b60405180910390fd5b61113f858585858561200f565b5050505050565b61115233826001612333565b50565b6060815183511461119b576040517f08c379a000000000000000000000000000000000000000000000000000000000815260040161119290614e01565b60405180910390fd5b6000835167ffffffffffffffff8111156111b8576111b7613610565b5b6040519080825280602002602001820160405280156111e65781602001602082028036833780820191505090505b50905060005b84518110156112635761123385828151811061120b5761120a61452c565b5b60200260200101518583815181106112265761122561452c565b5b602002602001015161064a565b8282815181106112465761124561452c565b5b6020026020010181815250508061125c90614cb5565b90506111ec565b508091505092915050565b60008061127a83611878565b119050919050565b6000600880549050905090565b611297611f89565b80600790816112a6919061494e565b5050565b6060600780546112b9906144fb565b80601f01602080910402602001604051908101604052809291908181526020018280546112e5906144fb565b80156113325780601f1061130757610100808354040283529160200191611332565b820191906000526020600020905b81548152906001019060200180831161131557829003601f168201915b5050505050905090565b611344611f89565b61134e600061257b565b565b611358611f89565b80600560006101000a81548173ffffffffffffffffffffffffffffffffffffffff021916908373ffffffffffffffffffffffffffffffffffffffff16021790555050565b60008060009054906101000a900473ffffffffffffffffffffffffffffffffffffffff16905090565b80336113d18183610c00565b611410576040517f08c379a000000000000000000000000000000000000000000000000000000000815260040161140790614e6d565b60405180910390fd5b61141a8183611895565b1561145a576040517f08c379a000000000000000000000000000000000000000000000000000000000815260040161145190614ed9565b60405180910390fd5b61149c338460016040518060400160405280600481526020017f307830300000000000000000000000000000000000000000000000000000000081525061263f565b505050565b6114a96132e1565b600882815481106114bd576114bc61452c565b5b906000526020600020906002020160000180546114d9906144fb565b80601f0160208091040260200160405190810160405280929190818152602001828054611505906144fb565b80156115525780601f1061152757610100808354040283529160200191611552565b820191906000526020600020905b81548152906001019060200180831161153557829003601f168201915b50505050508160000181905250600882815481106115735761157261452c565b5b906000526020600020906002020160010160009054906101000a900463ffffffff16816020019063ffffffff16908163ffffffff1681525050600882815481106115c0576115bf61452c565b5b906000526020600020906002020160010160049054906101000a900463ffffffff16816040019063ffffffff16908163ffffffff16815250506008828154811061160d5761160c61452c565b5b906000526020600020906002020160010160089054906101000a900463ffffffff16816060019063ffffffff16908163ffffffff16815250506008828154811061165a5761165961452c565b5b9060005260206000209060020201600101600c9054906101000a900460ff168160800190151590811515815250506008828154811061169c5761169b61452c565b5b9060005260206000209060020201600101600d9054906101000a900460ff168160a0019015159081151581525050919050565b6116e16116da612007565b83836127f0565b5050565b81816116f18183610c00565b611730576040517f08c379a000000000000000000000000000000000000000000000000000000000815260040161172790614e6d565b60405180910390fd5b61173a8183611895565b1561177a576040517f08c379a000000000000000000000000000000000000000000000000000000000815260040161177190614ed9565b60405180910390fd5b600660009054906101000a900473ffffffffffffffffffffffffffffffffffffffff1673ffffffffffffffffffffffffffffffffffffffff163373ffffffffffffffffffffffffffffffffffffffff161461180a576040517f08c379a000000000000000000000000000000000000000000000000000000000815260040161180190614f45565b60405180910390fd5b61184c838560016040518060400160405280600481526020017f307830300000000000000000000000000000000000000000000000000000000081525061263f565b50505050565b600560009054906101000a900473ffffffffffffffffffffffffffffffffffffffff1681565b600060046000838152602001908152602001600020549050919050565b6000806118a2848461064a565b11905092915050565b6118b3611f89565b80600883815481106118c8576118c761452c565b5b906000526020600020906002020160008201518160000190816118eb919061494e565b5060208201518160010160006101000a81548163ffffffff021916908363ffffffff16021790555060408201518160010160046101000a81548163ffffffff021916908363ffffffff16021790555060608201518160010160086101000a81548163ffffffff021916908363ffffffff160217905550608082015181600101600c6101000a81548160ff02191690831515021790555060a082015181600101600d6101000a81548160ff0219169083151502179055509050505050565b606081518351146119ee576040517f08c379a00000000000000000000000000000000000000000000000000000000081526004016119e590614c66565b60405180910390fd5b6000825167ffffffffffffffff811115611a0b57611a0a613610565b5b604051908082528060200260200182016040528015611a395781602001602082028036833780820191505090505b50905060005b8351811015611abe57611a86858281518110611a5e57611a5d61452c565b5b6020026020010151858381518110611a7957611a7861452c565b5b6020026020010151611895565b828281518110611a9957611a9861452c565b5b6020026020010190151590811515815250508080611ab690614cb5565b915050611a3f565b508091505092915050565b60606000808311611b0f576040517f08c379a0000000000000000000000000000000000000000000000000000000008152600401611b0690614fb1565b60405180910390fd5b600083905060088054905084600187611b289190614fd1565b611b329190615005565b1115611b415760088054905090505b60008167ffffffffffffffff811115611b5d57611b5c613610565b5b604051908082528060200260200182016040528015611b9657816020015b611b836132e1565b815260200190600190039081611b7b5790505b50905060005b82811015611d52576008818789611bb39190615005565b611bbd9190614fd1565b81548110611bce57611bcd61452c565b5b90600052602060002090600202016040518060c0016040529081600082018054611bf7906144fb565b80601f0160208091040260200160405190810160405280929190818152602001828054611c23906144fb565b8015611c705780601f10611c4557610100808354040283529160200191611c70565b820191906000526020600020905b815481529060010190602001808311611c5357829003601f168201915b505050505081526020016001820160009054906101000a900463ffffffff1663ffffffff1663ffffffff1681526020016001820160049054906101000a900463ffffffff1663ffffffff1663ffffffff1681526020016001820160089054906101000a900463ffffffff1663ffffffff1663ffffffff16815260200160018201600c9054906101000a900460ff1615151515815260200160018201600d9054906101000a900460ff161515151581525050828281518110611d3457611d3361452c565b5b60200260200101819052508080611d4a90614cb5565b915050611b9c565b50806008805490509350935050509250929050565b6000600260008473ffffffffffffffffffffffffffffffffffffffff1673ffffffffffffffffffffffffffffffffffffffff16815260200190815260200160002060008373ffffffffffffffffffffffffffffffffffffffff1673ffffffffffffffffffffffffffffffffffffffff16815260200190815260200160002060009054906101000a900460ff16905092915050565b611e03612007565b73ffffffffffffffffffffffffffffffffffffffff168573ffffffffffffffffffffffffffffffffffffffff161480611e495750611e4885611e43612007565b611d67565b5b611e88576040517f08c379a0000000000000000000000000000000000000000000000000000000008152600401611e7f90614d6f565b60405180910390fd5b611e95858585858561295c565b5050505050565b611ea4611f89565b600073ffffffffffffffffffffffffffffffffffffffff168173ffffffffffffffffffffffffffffffffffffffff1603611f13576040517f08c379a0000000000000000000000000000000000000000000000000000000008152600401611f0a906150b9565b60405180910390fd5b611f1c8161257b565b50565b60007f01ffc9a7000000000000000000000000000000000000000000000000000000007bffffffffffffffffffffffffffffffffffffffffffffffffffffffff1916827bffffffffffffffffffffffffffffffffffffffffffffffffffffffff1916149050919050565b611f91612007565b73ffffffffffffffffffffffffffffffffffffffff16611faf61139c565b73ffffffffffffffffffffffffffffffffffffffff1614612005576040517f08c379a0000000000000000000000000000000000000000000000000000000008152600401611ffc90615125565b60405180910390fd5b565b600033905090565b8151835114612053576040517f08c379a000000000000000000000000000000000000000000000000000000000815260040161204a906151b7565b60405180910390fd5b600073ffffffffffffffffffffffffffffffffffffffff168473ffffffffffffffffffffffffffffffffffffffff16036120c2576040517f08c379a00000000000000000000000000000000000000000000000000000000081526004016120b990615249565b60405180910390fd5b60006120cc612007565b90506120dc818787878787612bfa565b60005b84518110156122905760008582815181106120fd576120fc61452c565b5b60200260200101519050600085838151811061211c5761211b61452c565b5b6020026020010151905060006001600084815260200190815260200160002060008b73ffffffffffffffffffffffffffffffffffffffff1673ffffffffffffffffffffffffffffffffffffffff168152602001908152602001600020549050818110156121be576040517f08c379a00000000000000000000000000000000000000000000000000000000081526004016121b5906152db565b60405180910390fd5b8181036001600085815260200190815260200160002060008c73ffffffffffffffffffffffffffffffffffffffff1673ffffffffffffffffffffffffffffffffffffffff16815260200190815260200160002081905550816001600085815260200190815260200160002060008b73ffffffffffffffffffffffffffffffffffffffff1673ffffffffffffffffffffffffffffffffffffffff16815260200190815260200160002060008282546122759190614fd1565b925050819055505050508061228990614cb5565b90506120df565b508473ffffffffffffffffffffffffffffffffffffffff168673ffffffffffffffffffffffffffffffffffffffff168273ffffffffffffffffffffffffffffffffffffffff167f4a39dc06d4c0dbc64b70af90fd698a233a518aa5d07e595d983b8c0526c8f7fb87876040516123079291906152fb565b60405180910390a461231d818787878787612cb6565b61232b818787878787612cbe565b505050505050565b600073ffffffffffffffffffffffffffffffffffffffff168373ffffffffffffffffffffffffffffffffffffffff16036123a2576040517f08c379a0000000000000000000000000000000000000000000000000000000008152600401612399906153a4565b60405180910390fd5b60006123ac612007565b905060006123b984612e95565b905060006123c684612e95565b90506123e683876000858560405180602001604052806000815250612bfa565b60006001600087815260200190815260200160002060008873ffffffffffffffffffffffffffffffffffffffff1673ffffffffffffffffffffffffffffffffffffffff1681526020019081526020016000205490508481101561247e576040517f08c379a000000000000000000000000000000000000000000000000000000000815260040161247590615436565b60405180910390fd5b8481036001600088815260200190815260200160002060008973ffffffffffffffffffffffffffffffffffffffff1673ffffffffffffffffffffffffffffffffffffffff16815260200190815260200160002081905550600073ffffffffffffffffffffffffffffffffffffffff168773ffffffffffffffffffffffffffffffffffffffff168573ffffffffffffffffffffffffffffffffffffffff167fc3d58168c5ae7397731d063d5bbf3d657854427343f4c083240f7aacaa2d0f62898960405161254c929190615456565b60405180910390a461257284886000868660405180602001604052806000815250612cb6565b50505050505050565b60008060009054906101000a900473ffffffffffffffffffffffffffffffffffffffff169050816000806101000a81548173ffffffffffffffffffffffffffffffffffffffff021916908373ffffffffffffffffffffffffffffffffffffffff1602179055508173ffffffffffffffffffffffffffffffffffffffff168173ffffffffffffffffffffffffffffffffffffffff167f8be0079c531659141344cd1fd0a4f28419497f9722a3daafe3b4186f6b6457e060405160405180910390a35050565b600073ffffffffffffffffffffffffffffffffffffffff168473ffffffffffffffffffffffffffffffffffffffff16036126ae576040517f08c379a00000000000000000000000000000000000000000000000000000000081526004016126a5906154f1565b60405180910390fd5b60006126b8612007565b905060006126c585612e95565b905060006126d285612e95565b90506126e383600089858589612bfa565b846001600088815260200190815260200160002060008973ffffffffffffffffffffffffffffffffffffffff1673ffffffffffffffffffffffffffffffffffffffff16815260200190815260200160002060008282546127439190614fd1565b925050819055508673ffffffffffffffffffffffffffffffffffffffff16600073ffffffffffffffffffffffffffffffffffffffff168473ffffffffffffffffffffffffffffffffffffffff167fc3d58168c5ae7397731d063d5bbf3d657854427343f4c083240f7aacaa2d0f6289896040516127c1929190615456565b60405180910390a46127d883600089858589612cb6565b6127e783600089898989612f0f565b50505050505050565b8173ffffffffffffffffffffffffffffffffffffffff168373ffffffffffffffffffffffffffffffffffffffff160361285e576040517f08c379a000000000000000000000000000000000000000000000000000000000815260040161285590615583565b60405180910390fd5b80600260008573ffffffffffffffffffffffffffffffffffffffff1673ffffffffffffffffffffffffffffffffffffffff16815260200190815260200160002060008473ffffffffffffffffffffffffffffffffffffffff1673ffffffffffffffffffffffffffffffffffffffff16815260200190815260200160002060006101000a81548160ff0219169083151502179055508173ffffffffffffffffffffffffffffffffffffffff168373ffffffffffffffffffffffffffffffffffffffff167f17307eab39ab6107e8899845ad3d59bd9653f200f220920489ca2b5937696c318360405161294f91906134df565b60405180910390a3505050565b600073ffffffffffffffffffffffffffffffffffffffff168473ffffffffffffffffffffffffffffffffffffffff16036129cb576040517f08c379a00000000000000000000000000000000000000000000000000000000081526004016129c290615249565b60405180910390fd5b60006129d5612007565b905060006129e285612e95565b905060006129ef85612e95565b90506129ff838989858589612bfa565b60006001600088815260200190815260200160002060008a73ffffffffffffffffffffffffffffffffffffffff1673ffffffffffffffffffffffffffffffffffffffff16815260200190815260200160002054905085811015612a97576040517f08c379a0000000000000000000000000000000000000000000000000000000008152600401612a8e906152db565b60405180910390fd5b8581036001600089815260200190815260200160002060008b73ffffffffffffffffffffffffffffffffffffffff1673ffffffffffffffffffffffffffffffffffffffff16815260200190815260200160002081905550856001600089815260200190815260200160002060008a73ffffffffffffffffffffffffffffffffffffffff1673ffffffffffffffffffffffffffffffffffffffff1681526020019081526020016000206000828254612b4e9190614fd1565b925050819055508773ffffffffffffffffffffffffffffffffffffffff168973ffffffffffffffffffffffffffffffffffffffff168573ffffffffffffffffffffffffffffffffffffffff167fc3d58168c5ae7397731d063d5bbf3d657854427343f4c083240f7aacaa2d0f628a8a604051612bcb929190615456565b60405180910390a4612be1848a8a86868a612cb6565b612bef848a8a8a8a8a612f0f565b505050505050505050565b600073ffffffffffffffffffffffffffffffffffffffff168573ffffffffffffffffffffffffffffffffffffffff161480612c615750600073ffffffffffffffffffffffffffffffffffffffff168473ffffffffffffffffffffffffffffffffffffffff16145b612ca0576040517f08c379a0000000000000000000000000000000000000000000000000000000008152600401612c97906155ef565b60405180910390fd5b612cae8686868686866130e6565b505050505050565b505050505050565b612cdd8473ffffffffffffffffffffffffffffffffffffffff166132b6565b15612e8d578373ffffffffffffffffffffffffffffffffffffffff1663bc197c8187878686866040518663ffffffff1660e01b8152600401612d23959493929190615664565b6020604051808303816000875af1925050508015612d5f57506040513d601f19601f82011682018060405250810190612d5c91906156e1565b60015b612e0457612d6b61571b565b806308c379a003612dc75750612d7f61573d565b80612d8a5750612dc9565b806040517f08c379a0000000000000000000000000000000000000000000000000000000008152600401612dbe91906135e4565b60405180910390fd5b505b6040517f08c379a0000000000000000000000000000000000000000000000000000000008152600401612dfb9061583f565b60405180910390fd5b63bc197c8160e01b7bffffffffffffffffffffffffffffffffffffffffffffffffffffffff1916817bffffffffffffffffffffffffffffffffffffffffffffffffffffffff191614612e8b576040517f08c379a0000000000000000000000000000000000000000000000000000000008152600401612e82906158d1565b60405180910390fd5b505b505050505050565b60606000600167ffffffffffffffff811115612eb457612eb3613610565b5b604051908082528060200260200182016040528015612ee25781602001602082028036833780820191505090505b5090508281600081518110612efa57612ef961452c565b5b60200260200101818152505080915050919050565b612f2e8473ffffffffffffffffffffffffffffffffffffffff166132b6565b156130de578373ffffffffffffffffffffffffffffffffffffffff1663f23a6e6187878686866040518663ffffffff1660e01b8152600401612f749594939291906158f1565b6020604051808303816000875af1925050508015612fb057506040513d601f19601f82011682018060405250810190612fad91906156e1565b60015b61305557612fbc61571b565b806308c379a0036130185750612fd061573d565b80612fdb575061301a565b806040517f08c379a000000000000000000000000000000000000000000000000000000000815260040161300f91906135e4565b60405180910390fd5b505b6040517f08c379a000000000000000000000000000000000000000000000000000000000815260040161304c9061583f565b60405180910390fd5b63f23a6e6160e01b7bffffffffffffffffffffffffffffffffffffffffffffffffffffffff1916817bffffffffffffffffffffffffffffffffffffffffffffffffffffffff1916146130dc576040517f08c379a00000000000000000000000000000000000000000000000000000000081526004016130d3906158d1565b60405180910390fd5b505b505050505050565b6130f48686868686866132d9565b600073ffffffffffffffffffffffffffffffffffffffff168573ffffffffffffffffffffffffffffffffffffffff16036131a55760005b83518110156131a3578281815181106131475761314661452c565b5b6020026020010151600460008684815181106131665761316561452c565b5b60200260200101518152602001908152602001600020600082825461318b9190614fd1565b925050819055508061319c90614cb5565b905061312b565b505b600073ffffffffffffffffffffffffffffffffffffffff168473ffffffffffffffffffffffffffffffffffffffff16036132ae5760005b83518110156132ac5760008482815181106131fa576131f961452c565b5b6020026020010151905060008483815181106132195761321861452c565b5b602002602001015190506000600460008481526020019081526020016000205490508181101561327e576040517f08c379a0000000000000000000000000000000000000000000000000000000008152600401613275906159bd565b60405180910390fd5b8181036004600085815260200190815260200160002081905550505050806132a590614cb5565b90506131dc565b505b505050505050565b6000808273ffffffffffffffffffffffffffffffffffffffff163b119050919050565b505050505050565b6040518060c0016040528060608152602001600063ffffffff168152602001600063ffffffff168152602001600063ffffffff1681526020016000151581526020016000151581525090565b6000604051905090565b600080fd5b600080fd5b600073ffffffffffffffffffffffffffffffffffffffff82169050919050565b600061336c82613341565b9050919050565b61337c81613361565b811461338757600080fd5b50565b60008135905061339981613373565b92915050565b6000819050919050565b6133b28161339f565b81146133bd57600080fd5b50565b6000813590506133cf816133a9565b92915050565b600080604083850312156133ec576133eb613337565b5b60006133fa8582860161338a565b925050602061340b858286016133c0565b9150509250929050565b61341e8161339f565b82525050565b60006020820190506134396000830184613415565b92915050565b60007fffffffff0000000000000000000000000000000000000000000000000000000082169050919050565b6134748161343f565b811461347f57600080fd5b50565b6000813590506134918161346b565b92915050565b6000602082840312156134ad576134ac613337565b5b60006134bb84828501613482565b91505092915050565b60008115159050919050565b6134d9816134c4565b82525050565b60006020820190506134f460008301846134d0565b92915050565b6000602082840312156135105761350f613337565b5b600061351e8482850161338a565b91505092915050565b60006020828403121561353d5761353c613337565b5b600061354b848285016133c0565b91505092915050565b600081519050919050565b600082825260208201905092915050565b60005b8381101561358e578082015181840152602081019050613573565b60008484015250505050565b6000601f19601f8301169050919050565b60006135b682613554565b6135c0818561355f565b93506135d0818560208601613570565b6135d98161359a565b840191505092915050565b600060208201905081810360008301526135fe81846135ab565b905092915050565b600080fd5b600080fd5b7f4e487b7100000000000000000000000000000000000000000000000000000000600052604160045260246000fd5b6136488261359a565b810181811067ffffffffffffffff8211171561366757613666613610565b5b80604052505050565b600061367a61332d565b9050613686828261363f565b919050565b600067ffffffffffffffff8211156136a6576136a5613610565b5b6136af8261359a565b9050602081019050919050565b82818337600083830152505050565b60006136de6136d98461368b565b613670565b9050828152602081018484840111156136fa576136f961360b565b5b6137058482856136bc565b509392505050565b600082601f83011261372257613721613606565b5b81356137328482602086016136cb565b91505092915050565b600063ffffffff82169050919050565b6137548161373b565b811461375f57600080fd5b50565b6000813590506137718161374b565b92915050565b613780816134c4565b811461378b57600080fd5b50565b60008135905061379d81613777565b92915050565b600080600080600060a086880312156137bf576137be613337565b5b600086013567ffffffffffffffff8111156137dd576137dc61333c565b5b6137e98882890161370d565b95505060206137fa88828901613762565b945050604061380b88828901613762565b935050606061381c88828901613762565b925050608061382d8882890161378e565b9150509295509295909350565b6000819050919050565b600061385f61385a61385584613341565b61383a565b613341565b9050919050565b600061387182613844565b9050919050565b600061388382613866565b9050919050565b61389381613878565b82525050565b60006020820190506138ae600083018461388a565b92915050565b600067ffffffffffffffff8211156138cf576138ce613610565b5b602082029050602081019050919050565b600080fd5b60006138f86138f3846138b4565b613670565b9050808382526020820190506020840283018581111561391b5761391a6138e0565b5b835b818110156139445780613930888261338a565b84526020840193505060208101905061391d565b5050509392505050565b600082601f83011261396357613962613606565b5b81356139738482602086016138e5565b91505092915050565b600067ffffffffffffffff82111561399757613996613610565b5b602082029050602081019050919050565b60006139bb6139b68461397c565b613670565b905080838252602082019050602084028301858111156139de576139dd6138e0565b5b835b81811015613a0757806139f388826133c0565b8452602084019350506020810190506139e0565b5050509392505050565b600082601f830112613a2657613a25613606565b5b8135613a368482602086016139a8565b91505092915050565b60008060408385031215613a5657613a55613337565b5b600083013567ffffffffffffffff811115613a7457613a7361333c565b5b613a808582860161394e565b925050602083013567ffffffffffffffff811115613aa157613aa061333c565b5b613aad85828601613a11565b9150509250929050565b600081519050919050565b600082825260208201905092915050565b6000819050602082019050919050565b613aec816134c4565b82525050565b6000613afe8383613ae3565b60208301905092915050565b6000602082019050919050565b6000613b2282613ab7565b613b2c8185613ac2565b9350613b3783613ad3565b8060005b83811015613b68578151613b4f8882613af2565b9750613b5a83613b0a565b925050600181019050613b3b565b5085935050505092915050565b60006020820190508181036000830152613b8f8184613b17565b905092915050565b600067ffffffffffffffff821115613bb257613bb1613610565b5b613bbb8261359a565b9050602081019050919050565b6000613bdb613bd684613b97565b613670565b905082815260208101848484011115613bf757613bf661360b565b5b613c028482856136bc565b509392505050565b600082601f830112613c1f57613c1e613606565b5b8135613c2f848260208601613bc8565b91505092915050565b600080600080600060a08688031215613c5457613c53613337565b5b6000613c628882890161338a565b9550506020613c738882890161338a565b945050604086013567ffffffffffffffff811115613c9457613c9361333c565b5b613ca088828901613a11565b935050606086013567ffffffffffffffff811115613cc157613cc061333c565b5b613ccd88828901613a11565b925050608086013567ffffffffffffffff811115613cee57613ced61333c565b5b613cfa88828901613c0a565b9150509295509295909350565b600081519050919050565b600082825260208201905092915050565b6000819050602082019050919050565b613d3c8161339f565b82525050565b6000613d4e8383613d33565b60208301905092915050565b6000602082019050919050565b6000613d7282613d07565b613d7c8185613d12565b9350613d8783613d23565b8060005b83811015613db8578151613d9f8882613d42565b9750613daa83613d5a565b925050600181019050613d8b565b5085935050505092915050565b60006020820190508181036000830152613ddf8184613d67565b905092915050565b600060208284031215613dfd57613dfc613337565b5b600082013567ffffffffffffffff811115613e1b57613e1a61333c565b5b613e278482850161370d565b91505092915050565b613e3981613361565b82525050565b6000602082019050613e546000830184613e30565b92915050565b600082825260208201905092915050565b6000613e7682613554565b613e808185613e5a565b9350613e90818560208601613570565b613e998161359a565b840191505092915050565b613ead8161373b565b82525050565b600060c0830160008301518482036000860152613ed08282613e6b565b9150506020830151613ee56020860182613ea4565b506040830151613ef86040860182613ea4565b506060830151613f0b6060860182613ea4565b506080830151613f1e6080860182613ae3565b5060a0830151613f3160a0860182613ae3565b508091505092915050565b60006020820190508181036000830152613f568184613eb3565b905092915050565b60008060408385031215613f7557613f74613337565b5b6000613f838582860161338a565b9250506020613f948582860161378e565b9150509250929050565b60008060408385031215613fb557613fb4613337565b5b6000613fc3858286016133c0565b9250506020613fd48582860161338a565b9150509250929050565b6000613fe982613866565b9050919050565b613ff981613fde565b82525050565b60006020820190506140146000830184613ff0565b92915050565b600080fd5b600080fd5b600060c0828403121561403a5761403961401a565b5b61404460c0613670565b9050600082013567ffffffffffffffff8111156140645761406361401f565b5b6140708482850161370d565b600083015250602061408484828501613762565b602083015250604061409884828501613762565b60408301525060606140ac84828501613762565b60608301525060806140c08482850161378e565b60808301525060a06140d48482850161378e565b60a08301525092915050565b600080604083850312156140f7576140f6613337565b5b6000614105858286016133c0565b925050602083013567ffffffffffffffff8111156141265761412561333c565b5b61413285828601614024565b9150509250929050565b6000806040838503121561415357614152613337565b5b6000614161858286016133c0565b9250506020614172858286016133c0565b9150509250929050565b600081519050919050565b600082825260208201905092915050565b6000819050602082019050919050565b600060c08301600083015184820360008601526141c58282613e6b565b91505060208301516141da6020860182613ea4565b5060408301516141ed6040860182613ea4565b5060608301516142006060860182613ea4565b5060808301516142136080860182613ae3565b5060a083015161422660a0860182613ae3565b508091505092915050565b600061423d83836141a8565b905092915050565b6000602082019050919050565b600061425d8261417c565b6142678185614187565b93508360208202850161427985614198565b8060005b858110156142b557848403895281516142968582614231565b94506142a183614245565b925060208a0199505060018101905061427d565b50829750879550505050505092915050565b600060408201905081810360008301526142e18185614252565b90506142f06020830184613415565b9392505050565b6000806040838503121561430e5761430d613337565b5b600061431c8582860161338a565b925050602061432d8582860161338a565b9150509250929050565b600080600080600060a0868803121561435357614352613337565b5b60006143618882890161338a565b95505060206143728882890161338a565b9450506040614383888289016133c0565b9350506060614394888289016133c0565b925050608086013567ffffffffffffffff8111156143b5576143b461333c565b5b6143c188828901613c0a565b9150509295509295909350565b7f455243313135353a2061646472657373207a65726f206973206e6f742061207660008201527f616c6964206f776e657200000000000000000000000000000000000000000000602082015250565b600061442a602a8361355f565b9150614435826143ce565b604082019050919050565b600060208201905081810360008301526144598161441d565b9050919050565b7f496e76616c696420746f6b656e20494400000000000000000000000000000000600082015250565b600061449660108361355f565b91506144a182614460565b602082019050919050565b600060208201905081810360008301526144c581614489565b9050919050565b7f4e487b7100000000000000000000000000000000000000000000000000000000600052602260045260246000fd5b6000600282049050600182168061451357607f821691505b602082108103614526576145256144cc565b5b50919050565b7f4e487b7100000000000000000000000000000000000000000000000000000000600052603260045260246000fd5b600081905092915050565b60008190508160005260206000209050919050565b60008154614588816144fb565b614592818661455b565b945060018216600081146145ad57600181146145c2576145f5565b60ff19831686528115158202860193506145f5565b6145cb85614566565b60005b838110156145ed578154818901526001820191506020810190506145ce565b838801955050505b50505092915050565b600061460a828561457b565b9150614616828461457b565b91508190509392505050565b61462b8161373b565b82525050565b60006020820190506146466000830184614622565b92915050565b600061465f61465a8461368b565b613670565b90508281526020810184848401111561467b5761467a61360b565b5b614686848285613570565b509392505050565b600082601f8301126146a3576146a2613606565b5b81516146b384826020860161464c565b91505092915050565b6000815190506146cb81613373565b92915050565b6000815190506146e081613777565b92915050565b6000806000606084860312156146ff576146fe613337565b5b600084015167ffffffffffffffff81111561471d5761471c61333c565b5b6147298682870161468e565b935050602061473a868287016146bc565b925050604061474b868287016146d1565b9150509250925092565b7f5468697320636f6d6d756e697479206973206e6f74206f70656e640000000000600082015250565b600061478b601b8361355f565b915061479682614755565b602082019050919050565b600060208201905081810360008301526147ba8161477e565b9050919050565b60006020601f8301049050919050565b600082821b905092915050565b60006008830261480e7fffffffffffffffffffffffffffffffffffffffffffffffffffffffffffffffff826147d1565b61481886836147d1565b95508019841693508086168417925050509392505050565b600061484b6148466148418461339f565b61383a565b61339f565b9050919050565b6000819050919050565b61486583614830565b61487961487182614852565b8484546147de565b825550505050565b600090565b61488e614881565b61489981848461485c565b505050565b5b818110156148bd576148b2600082614886565b60018101905061489f565b5050565b601f821115614902576148d381614566565b6148dc846147c1565b810160208510156148eb578190505b6148ff6148f7856147c1565b83018261489e565b50505b505050565b600082821c905092915050565b600061492560001984600802614907565b1980831691505092915050565b600061493e8383614914565b9150826002028217905092915050565b61495782613554565b67ffffffffffffffff8111156149705761496f613610565b5b61497a82546144fb565b6149858282856148c1565b600060209050601f8311600181146149b857600084156149a6578287015190505b6149b08582614932565b865550614a18565b601f1984166149c686614566565b60005b828110156149ee578489015182556001820191506020850194506020810190506149c9565b86831015614a0b5784890151614a07601f891682614914565b8355505b6001600288020188555050505b505050505050565b600060a0820190508181036000830152614a3a81886135ab565b9050614a496020830187614622565b614a566040830186614622565b614a6360608301856134d0565b614a7060808301846134d0565b9695505050505050565b6000614a95614a90614a8b8461373b565b61383a565b61339f565b9050919050565b614aa581614a7a565b82525050565b6000604082019050614ac06000830185613e30565b614acd6020830184614a9c565b9392505050565b600081519050614ae3816133a9565b92915050565b600060208284031215614aff57614afe613337565b5b6000614b0d84828501614ad4565b91505092915050565b600081519050614b258161374b565b92915050565b600060608284031215614b4157614b4061401a565b5b614b4b6060613670565b9050600082015167ffffffffffffffff811115614b6b57614b6a61401f565b5b614b778482850161468e565b6000830152506020614b8b848285016146bc565b6020830152506040614b9f84828501614b16565b60408301525092915050565b600060208284031215614bc157614bc0613337565b5b600082015167ffffffffffffffff811115614bdf57614bde61333c565b5b614beb84828501614b2b565b91505092915050565b7f7461726765747320616e6420746f6b656e496473206c656e677468206d69736d60008201527f6174636800000000000000000000000000000000000000000000000000000000602082015250565b6000614c5060248361355f565b9150614c5b82614bf4565b604082019050919050565b60006020820190508181036000830152614c7f81614c43565b9050919050565b7f4e487b7100000000000000000000000000000000000000000000000000000000600052601160045260246000fd5b6000614cc08261339f565b91507fffffffffffffffffffffffffffffffffffffffffffffffffffffffffffffffff8203614cf257614cf1614c86565b5b600182019050919050565b7f455243313135353a2063616c6c6572206973206e6f7420746f6b656e206f776e60008201527f6572206f7220617070726f766564000000000000000000000000000000000000602082015250565b6000614d59602e8361355f565b9150614d6482614cfd565b604082019050919050565b60006020820190508181036000830152614d8881614d4c565b9050919050565b7f455243313135353a206163636f756e747320616e6420696473206c656e67746860008201527f206d69736d617463680000000000000000000000000000000000000000000000602082015250565b6000614deb60298361355f565b9150614df682614d8f565b604082019050919050565b60006020820190508181036000830152614e1a81614dde565b9050919050565b7f4c61636b206f6620726571756972656d656e7400000000000000000000000000600082015250565b6000614e5760138361355f565b9150614e6282614e21565b602082019050919050565b60006020820190508181036000830152614e8681614e4a565b9050919050565b7f416c7265616479206f627461696e656400000000000000000000000000000000600082015250565b6000614ec360108361355f565b9150614ece82614e8d565b602082019050919050565b60006020820190508181036000830152614ef281614eb6565b9050919050565b7f4f6e6c79207175657374426f6172640000000000000000000000000000000000600082015250565b6000614f2f600f8361355f565b9150614f3a82614ef9565b602082019050919050565b60006020820190508181036000830152614f5e81614f22565b9050919050565b7f706167652073697a65206d75737420626520706f736974697665000000000000600082015250565b6000614f9b601a8361355f565b9150614fa682614f65565b602082019050919050565b60006020820190508181036000830152614fca81614f8e565b9050919050565b6000614fdc8261339f565b9150614fe78361339f565b9250828201905080821115614fff57614ffe614c86565b5b92915050565b60006150108261339f565b915061501b8361339f565b92508282026150298161339f565b915082820484148315176150405761503f614c86565b5b5092915050565b7f4f776e61626c653a206e6577206f776e657220697320746865207a65726f206160008201527f6464726573730000000000000000000000000000000000000000000000000000602082015250565b60006150a360268361355f565b91506150ae82615047565b604082019050919050565b600060208201905081810360008301526150d281615096565b9050919050565b7f4f776e61626c653a2063616c6c6572206973206e6f7420746865206f776e6572600082015250565b600061510f60208361355f565b915061511a826150d9565b602082019050919050565b6000602082019050818103600083015261513e81615102565b9050919050565b7f455243313135353a2069647320616e6420616d6f756e7473206c656e6774682060008201527f6d69736d61746368000000000000000000000000000000000000000000000000602082015250565b60006151a160288361355f565b91506151ac82615145565b604082019050919050565b600060208201905081810360008301526151d081615194565b9050919050565b7f455243313135353a207472616e7366657220746f20746865207a65726f20616460008201527f6472657373000000000000000000000000000000000000000000000000000000602082015250565b600061523360258361355f565b915061523e826151d7565b604082019050919050565b6000602082019050818103600083015261526281615226565b9050919050565b7f455243313135353a20696e73756666696369656e742062616c616e636520666f60008201527f72207472616e7366657200000000000000000000000000000000000000000000602082015250565b60006152c5602a8361355f565b91506152d082615269565b604082019050919050565b600060208201905081810360008301526152f4816152b8565b9050919050565b600060408201905081810360008301526153158185613d67565b905081810360208301526153298184613d67565b90509392505050565b7f455243313135353a206275726e2066726f6d20746865207a65726f206164647260008201527f6573730000000000000000000000000000000000000000000000000000000000602082015250565b600061538e60238361355f565b915061539982615332565b604082019050919050565b600060208201905081810360008301526153bd81615381565b9050919050565b7f455243313135353a206275726e20616d6f756e7420657863656564732062616c60008201527f616e636500000000000000000000000000000000000000000000000000000000602082015250565b600061542060248361355f565b915061542b826153c4565b604082019050919050565b6000602082019050818103600083015261544f81615413565b9050919050565b600060408201905061546b6000830185613415565b6154786020830184613415565b9392505050565b7f455243313135353a206d696e7420746f20746865207a65726f2061646472657360008201527f7300000000000000000000000000000000000000000000000000000000000000602082015250565b60006154db60218361355f565b91506154e68261547f565b604082019050919050565b6000602082019050818103600083015261550a816154ce565b9050919050565b7f455243313135353a2073657474696e6720617070726f76616c2073746174757360008201527f20666f722073656c660000000000000000000000000000000000000000000000602082015250565b600061556d60298361355f565b915061557882615511565b604082019050919050565b6000602082019050818103600083015261559c81615560565b9050919050565b7f43616e6e6f74207472616e7366657220746f206f746865727300000000000000600082015250565b60006155d960198361355f565b91506155e4826155a3565b602082019050919050565b60006020820190508181036000830152615608816155cc565b9050919050565b600081519050919050565b600082825260208201905092915050565b60006156368261560f565b615640818561561a565b9350615650818560208601613570565b6156598161359a565b840191505092915050565b600060a0820190506156796000830188613e30565b6156866020830187613e30565b81810360408301526156988186613d67565b905081810360608301526156ac8185613d67565b905081810360808301526156c0818461562b565b90509695505050505050565b6000815190506156db8161346b565b92915050565b6000602082840312156156f7576156f6613337565b5b6000615705848285016156cc565b91505092915050565b60008160e01c9050919050565b600060033d111561573a5760046000803e61573760005161570e565b90505b90565b600060443d106157ca5761574f61332d565b60043d036004823e80513d602482011167ffffffffffffffff821117156157775750506157ca565b808201805167ffffffffffffffff81111561579557505050506157ca565b80602083010160043d0385018111156157b25750505050506157ca565b6157c18260200185018661363f565b82955050505050505b90565b7f455243313135353a207472616e7366657220746f206e6f6e2d4552433131353560008201527f526563656976657220696d706c656d656e746572000000000000000000000000602082015250565b600061582960348361355f565b9150615834826157cd565b604082019050919050565b600060208201905081810360008301526158588161581c565b9050919050565b7f455243313135353a204552433131353552656365697665722072656a6563746560008201527f6420746f6b656e73000000000000000000000000000000000000000000000000602082015250565b60006158bb60288361355f565b91506158c68261585f565b604082019050919050565b600060208201905081810360008301526158ea816158ae565b9050919050565b600060a0820190506159066000830188613e30565b6159136020830187613e30565b6159206040830186613415565b61592d6060830185613415565b818103608083015261593f818461562b565b90509695505050505050565b7f455243313135353a206275726e20616d6f756e74206578636565647320746f7460008201527f616c537570706c79000000000000000000000000000000000000000000000000602082015250565b60006159a760288361355f565b91506159b28261594b565b604082019050919050565b600060208201905081810360008301526159d68161599a565b905091905056fea2646970667358221220cc97d6083239dc5fdeafbcdd04ae24ace26dbdb3990a9968fc7e68e7c0908bb664736f6c63430008120033",
  "linkReferences": {},
  "deployedLinkReferences": {}
}