{
  "_format": "hh-sol-artifact-1",
  "contractName": "QuestPoap",
  "sourceName": "contracts/QuestPoap.sol",
  "abi": [
    {
      "inputs": [
        {
          "internalType": "string",
          "name": "_name",
          "type": "string"
        }
      ],
      "stateMutability": "nonpayable",
      "type": "constructor"
    },
    {
      "inputs": [],
      "name": "ErrLocked",
      "type": "error"
    },
    {
      "inputs": [],
      "name": "ErrNotFound",
      "type": "error"
    },
    {
      "anonymous": false,
      "inputs": [
        {
          "indexed": true,
          "internalType": "address",
          "name": "owner",
          "type": "address"
        },
        {
          "indexed": true,
          "internalType": "address",
          "name": "approved",
          "type": "address"
        },
        {
          "indexed": true,
          "internalType": "uint256",
          "name": "tokenId",
          "type": "uint256"
        }
      ],
      "name": "Approval",
      "type": "event"
    },
    {
      "anonymous": false,
      "inputs": [
        {
          "indexed": true,
          "internalType": "address",
          "name": "owner",
          "type": "address"
        },
        {
          "indexed": true,
          "internalType": "address",
          "name": "operator",
          "type": "address"
        },
        {
          "indexed": false,
          "internalType": "bool",
          "name": "approved",
          "type": "bool"
        }
      ],
      "name": "ApprovalForAll",
      "type": "event"
    },
    {
      "anonymous": false,
      "inputs": [
        {
          "indexed": true,
          "internalType": "address",
          "name": "previousOwner",
          "type": "address"
        },
        {
          "indexed": true,
          "internalType": "address",
          "name": "newOwner",
          "type": "address"
        }
      ],
      "name": "OwnershipTransferred",
      "type": "event"
    },
    {
      "anonymous": false,
      "inputs": [
        {
          "indexed": true,
          "internalType": "address",
          "name": "from",
          "type": "address"
        },
        {
          "indexed": true,
          "internalType": "address",
          "name": "to",
          "type": "address"
        },
        {
          "indexed": true,
          "internalType": "uint256",
          "name": "tokenId",
          "type": "uint256"
        }
      ],
      "name": "Transfer",
      "type": "event"
    },
    {
      "inputs": [
        {
          "internalType": "address",
          "name": "approved",
          "type": "address"
        },
        {
          "internalType": "uint256",
          "name": "tokenId",
          "type": "uint256"
        }
      ],
      "name": "approve",
      "outputs": [],
      "stateMutability": "nonpayable",
      "type": "function"
    },
    {
      "inputs": [
        {
          "internalType": "address",
          "name": "owner",
          "type": "address"
        }
      ],
      "name": "balanceOf",
      "outputs": [
        {
          "internalType": "uint256",
          "name": "",
          "type": "uint256"
        }
      ],
      "stateMutability": "view",
      "type": "function"
    },
    {
      "inputs": [
        {
          "internalType": "address",
          "name": "to",
          "type": "address"
        }
      ],
      "name": "burn",
      "outputs": [],
      "stateMutability": "nonpayable",
      "type": "function"
    },
    {
      "inputs": [],
      "name": "contractURI",
      "outputs": [
        {
          "internalType": "string",
          "name": "",
          "type": "string"
        }
      ],
      "stateMutability": "view",
      "type": "function"
    },
    {
      "inputs": [
        {
          "internalType": "uint256",
          "name": "tokenId",
          "type": "uint256"
        }
      ],
      "name": "getApproved",
      "outputs": [
        {
          "internalType": "address",
          "name": "",
          "type": "address"
        }
      ],
      "stateMutability": "view",
      "type": "function"
    },
    {
      "inputs": [
        {
          "internalType": "address",
          "name": "user",
          "type": "address"
        }
      ],
      "name": "getTokenURIFromAddress",
      "outputs": [
        {
          "internalType": "string",
          "name": "",
          "type": "string"
        }
      ],
      "stateMutability": "view",
      "type": "function"
    },
    {
      "inputs": [
        {
          "internalType": "address",
          "name": "addr",
          "type": "address"
        }
      ],
      "name": "hashMsgSender",
      "outputs": [
        {
          "internalType": "uint256",
          "name": "",
          "type": "uint256"
        }
      ],
      "stateMutability": "pure",
      "type": "function"
    },
    {
      "inputs": [
        {
          "internalType": "address",
          "name": "owner",
          "type": "address"
        },
        {
          "internalType": "address",
          "name": "operator",
          "type": "address"
        }
      ],
      "name": "isApprovedForAll",
      "outputs": [
        {
          "internalType": "bool",
          "name": "",
          "type": "bool"
        }
      ],
      "stateMutability": "view",
      "type": "function"
    },
    {
      "inputs": [
        {
          "internalType": "uint256",
          "name": "tokenId",
          "type": "uint256"
        }
      ],
      "name": "locked",
      "outputs": [
        {
          "internalType": "bool",
          "name": "",
          "type": "bool"
        }
      ],
      "stateMutability": "view",
      "type": "function"
    },
    {
      "inputs": [],
      "name": "name",
      "outputs": [
        {
          "internalType": "string",
          "name": "",
          "type": "string"
        }
      ],
      "stateMutability": "view",
      "type": "function"
    },
    {
      "inputs": [],
      "name": "owner",
      "outputs": [
        {
          "internalType": "address",
          "name": "",
          "type": "address"
        }
      ],
      "stateMutability": "view",
      "type": "function"
    },
    {
      "inputs": [
        {
          "internalType": "uint256",
          "name": "tokenId",
          "type": "uint256"
        }
      ],
      "name": "ownerOf",
      "outputs": [
        {
          "internalType": "address",
          "name": "",
          "type": "address"
        }
      ],
      "stateMutability": "view",
      "type": "function"
    },
    {
      "inputs": [],
      "name": "renounceOwnership",
      "outputs": [],
      "stateMutability": "nonpayable",
      "type": "function"
    },
    {
      "inputs": [
        {
          "internalType": "address",
          "name": "to",
          "type": "address"
        }
      ],
      "name": "safeMint",
      "outputs": [],
      "stateMutability": "nonpayable",
      "type": "function"
    },
    {
      "inputs": [
        {
          "internalType": "address",
          "name": "from",
          "type": "address"
        },
        {
          "internalType": "address",
          "name": "to",
          "type": "address"
        },
        {
          "internalType": "uint256",
          "name": "tokenId",
          "type": "uint256"
        }
      ],
      "name": "safeTransferFrom",
      "outputs": [],
      "stateMutability": "nonpayable",
      "type": "function"
    },
    {
      "inputs": [
        {
          "internalType": "address",
          "name": "from",
          "type": "address"
        },
        {
          "internalType": "address",
          "name": "to",
          "type": "address"
        },
        {
          "internalType": "uint256",
          "name": "tokenId",
          "type": "uint256"
        },
        {
          "internalType": "bytes",
          "name": "data",
          "type": "bytes"
        }
      ],
      "name": "safeTransferFrom",
      "outputs": [],
      "stateMutability": "nonpayable",
      "type": "function"
    },
    {
      "inputs": [
        {
          "internalType": "address",
          "name": "operator",
          "type": "address"
        },
        {
          "internalType": "bool",
          "name": "approved",
          "type": "bool"
        }
      ],
      "name": "setApprovalForAll",
      "outputs": [],
      "stateMutability": "nonpayable",
      "type": "function"
    },
    {
      "inputs": [
        {
          "internalType": "bytes4",
          "name": "interfaceId",
          "type": "bytes4"
        }
      ],
      "name": "supportsInterface",
      "outputs": [
        {
          "internalType": "bool",
          "name": "",
          "type": "bool"
        }
      ],
      "stateMutability": "view",
      "type": "function"
    },
    {
      "inputs": [],
      "name": "symbol",
      "outputs": [
        {
          "internalType": "string",
          "name": "",
          "type": "string"
        }
      ],
      "stateMutability": "view",
      "type": "function"
    },
    {
      "inputs": [
        {
          "internalType": "uint256",
          "name": "tokenId",
          "type": "uint256"
        }
      ],
      "name": "tokenURI",
      "outputs": [
        {
          "internalType": "string",
          "name": "",
          "type": "string"
        }
      ],
      "stateMutability": "view",
      "type": "function"
    },
    {
      "inputs": [],
      "name": "totalSupply",
      "outputs": [
        {
          "internalType": "uint256",
          "name": "",
          "type": "uint256"
        }
      ],
      "stateMutability": "view",
      "type": "function"
    },
    {
      "inputs": [
        {
          "internalType": "address",
          "name": "from",
          "type": "address"
        },
        {
          "internalType": "address",
          "name": "to",
          "type": "address"
        },
        {
          "internalType": "uint256",
          "name": "tokenId",
          "type": "uint256"
        }
      ],
      "name": "transferFrom",
      "outputs": [],
      "stateMutability": "nonpayable",
      "type": "function"
    },
    {
      "inputs": [
        {
          "internalType": "address",
          "name": "newOwner",
          "type": "address"
        }
      ],
      "name": "transferOwnership",
      "outputs": [],
      "stateMutability": "nonpayable",
      "type": "function"
    }
  ],
  "bytecode": "0x60806040523480156200001157600080fd5b5060405162003d6738038062003d67833981810160405281019062000037919062000391565b806040516020016200004a919062000455565b6040516020818303038152906040526040518060400160405280600581526020017f51504f4150000000000000000000000000000000000000000000000000000000815250600182828160009081620000a49190620006bf565b508060019081620000b69190620006bf565b50505080600660006101000a81548160ff021916908315150217905550505050620000f6620000ea6200013060201b60201c565b6200013860201b60201c565b8060405160200162000109919062000976565b60405160208183030381529060405260089081620001289190620006bf565b5050620009ad565b600033905090565b6000600660019054906101000a900473ffffffffffffffffffffffffffffffffffffffff16905081600660016101000a81548173ffffffffffffffffffffffffffffffffffffffff021916908373ffffffffffffffffffffffffffffffffffffffff1602179055508173ffffffffffffffffffffffffffffffffffffffff168173ffffffffffffffffffffffffffffffffffffffff167f8be0079c531659141344cd1fd0a4f28419497f9722a3daafe3b4186f6b6457e060405160405180910390a35050565b6000604051905090565b600080fd5b600080fd5b600080fd5b600080fd5b6000601f19601f8301169050919050565b7f4e487b7100000000000000000000000000000000000000000000000000000000600052604160045260246000fd5b62000267826200021c565b810181811067ffffffffffffffff821117156200028957620002886200022d565b5b80604052505050565b60006200029e620001fe565b9050620002ac82826200025c565b919050565b600067ffffffffffffffff821115620002cf57620002ce6200022d565b5b620002da826200021c565b9050602081019050919050565b60005b8381101562000307578082015181840152602081019050620002ea565b60008484015250505050565b60006200032a6200032484620002b1565b62000292565b90508281526020810184848401111562000349576200034862000217565b5b62000356848285620002e7565b509392505050565b600082601f83011262000376576200037562000212565b5b81516200038884826020860162000313565b91505092915050565b600060208284031215620003aa57620003a962000208565b5b600082015167ffffffffffffffff811115620003cb57620003ca6200020d565b5b620003d9848285016200035e565b91505092915050565b600081519050919050565b600081905092915050565b60006200040582620003e2565b620004118185620003ed565b935062000423818560208601620002e7565b80840191505092915050565b7f20504f4150000000000000000000000000000000000000000000000000000000815250565b6000620004638284620003f8565b915062000470826200042f565b60058201915081905092915050565b7f4e487b7100000000000000000000000000000000000000000000000000000000600052602260045260246000fd5b60006002820490506001821680620004c757607f821691505b602082108103620004dd57620004dc6200047f565b5b50919050565b60008190508160005260206000209050919050565b60006020601f8301049050919050565b600082821b905092915050565b600060088302620005477fffffffffffffffffffffffffffffffffffffffffffffffffffffffffffffffff8262000508565b62000553868362000508565b95508019841693508086168417925050509392505050565b6000819050919050565b6000819050919050565b6000620005a06200059a62000594846200056b565b62000575565b6200056b565b9050919050565b6000819050919050565b620005bc836200057f565b620005d4620005cb82620005a7565b84845462000515565b825550505050565b600090565b620005eb620005dc565b620005f8818484620005b1565b505050565b5b81811015620006205762000614600082620005e1565b600181019050620005fe565b5050565b601f8211156200066f576200063981620004e3565b6200064484620004f8565b8101602085101562000654578190505b6200066c6200066385620004f8565b830182620005fd565b50505b505050565b600082821c905092915050565b6000620006946000198460080262000674565b1980831691505092915050565b6000620006af838362000681565b9150826002028217905092915050565b620006ca82620003e2565b67ffffffffffffffff811115620006e657620006e56200022d565b5b620006f28254620004ae565b620006ff82828562000624565b600060209050601f83116001811462000737576000841562000722578287015190505b6200072e8582620006a1565b8655506200079e565b601f1984166200074786620004e3565b60005b8281101562000771578489015182556001820191506020850194506020810190506200074a565b868310156200079157848901516200078d601f89168262000681565b8355505b6001600288020188555050505b505050505050565b7f3c73766720786d6c6e733d27687474703a2f2f7777772e77332e6f72672f323060008201527f30302f73766727207072657365727665417370656374526174696f3d27784d6960208201527f6e594d696e206d656574272076696577426f783d27302030203335302033353060408201527f273e3c7374796c653e2e62617365207b2066696c6c3a2077686974653b20666f60608201527f6e742d66616d696c793a2073657269663b20666f6e742d73697a653a2032347060808201527f783b207d3c2f7374796c653e3c726563742077696474683d273130302527206860a08201527f65696768743d2731303025272066696c6c3d27626c61636b27202f3e3c74657860c08201527f7420783d273530252720793d273530252720636c6173733d276261736527206460e08201527f6f6d696e616e742d626173656c696e653d276d6964646c652720746578742d616101008201527f6e63686f723d276d6964646c65273e000000000000000000000000000000000061012082015250565b60006200093761012f83620003ed565b91506200094482620007a6565b61012f82019050919050565b7f20504f41503c2f746578743e3c2f7376673e0000000000000000000000000000815250565b6000620009838262000927565b9150620009918284620003f8565b91506200099e8262000950565b60128201915081905092915050565b6133aa80620009bd6000396000f3fe608060405234801561001057600080fd5b506004361061014d5760003560e01c806380f753fa116100c3578063b45a3c0e1161007c578063b45a3c0e1461039c578063b88d4fde146103cc578063c87b56dd146103e8578063e8a3d48514610418578063e985e9c514610436578063f2fde38b146104665761014d565b806380f753fa146102c857806389afcb44146102f85780638da5cb5b1461031457806395d89b4114610332578063a22cb46514610350578063a47307251461036c5761014d565b806323b872dd1161011557806323b872dd1461020a57806340d097c31461022657806342842e0e146102425780636352211e1461025e57806370a082311461028e578063715018a6146102be5761014d565b806301ffc9a71461015257806306fdde0314610182578063081812fc146101a0578063095ea7b3146101d057806318160ddd146101ec575b600080fd5b61016c60048036038101906101679190612118565b610482565b6040516101799190612160565b60405180910390f35b61018a6104fc565b604051610197919061220b565b60405180910390f35b6101ba60048036038101906101b59190612263565b61058e565b6040516101c791906122d1565b60405180910390f35b6101ea60048036038101906101e59190612318565b6105d4565b005b6101f4610629565b6040516102019190612367565b60405180910390f35b610224600480360381019061021f9190612382565b61062f565b005b610240600480360381019061023b91906123d5565b610686565b005b61025c60048036038101906102579190612382565b6106f1565b005b61027860048036038101906102739190612263565b610748565b60405161028591906122d1565b60405180910390f35b6102a860048036038101906102a391906123d5565b6107ce565b6040516102b59190612367565b60405180910390f35b6102c6610885565b005b6102e260048036038101906102dd91906123d5565b610899565b6040516102ef9190612367565b60405180910390f35b610312600480360381019061030d91906123d5565b6108cc565b005b61031c610936565b60405161032991906122d1565b60405180910390f35b61033a610960565b604051610347919061220b565b60405180910390f35b61036a6004803603810190610365919061242e565b6109f2565b005b610386600480360381019061038191906123d5565b610a47565b604051610393919061220b565b60405180910390f35b6103b660048036038101906103b19190612263565b610a61565b6040516103c39190612160565b60405180910390f35b6103e660048036038101906103e191906125a3565b610ab9565b005b61040260048036038101906103fd9190612263565b610b12565b60405161040f919061220b565b60405180910390f35b610420610c1b565b60405161042d919061220b565b60405180910390f35b610450600480360381019061044b9190612626565b610d19565b60405161045d9190612160565b60405180910390f35b610480600480360381019061047b91906123d5565b610dad565b005b60007fb45a3c0e000000000000000000000000000000000000000000000000000000007bffffffffffffffffffffffffffffffffffffffffffffffffffffffff1916827bffffffffffffffffffffffffffffffffffffffffffffffffffffffff191614806104f557506104f482610e30565b5b9050919050565b60606000805461050b90612695565b80601f016020809104026020016040519081016040528092919081815260200182805461053790612695565b80156105845780601f1061055957610100808354040283529160200191610584565b820191906000526020600020905b81548152906001019060200180831161056757829003601f168201915b5050505050905090565b600061059982610f12565b6004600083815260200190815260200160002060009054906101000a900473ffffffffffffffffffffffffffffffffffffffff169050919050565b600660009054906101000a900460ff161561061b576040517fbd291a9500000000000000000000000000000000000000000000000000000000815260040160405180910390fd5b6106258282610f5d565b5050565b60075481565b600660009054906101000a900460ff1615610676576040517fbd291a9500000000000000000000000000000000000000000000000000000000815260040160405180910390fd5b610681838383611074565b505050565b3373ffffffffffffffffffffffffffffffffffffffff166106a5610936565b73ffffffffffffffffffffffffffffffffffffffff16146106c4573390505b600760008154809291906106d7906126f5565b91905055506106ee816106e983610899565b6110d4565b50565b600660009054906101000a900460ff1615610738576040517fbd291a9500000000000000000000000000000000000000000000000000000000815260040160405180910390fd5b6107438383836110f2565b505050565b60008061075483611112565b9050600073ffffffffffffffffffffffffffffffffffffffff168173ffffffffffffffffffffffffffffffffffffffff16036107c5576040517f08c379a00000000000000000000000000000000000000000000000000000000081526004016107bc90612789565b60405180910390fd5b80915050919050565b60008073ffffffffffffffffffffffffffffffffffffffff168273ffffffffffffffffffffffffffffffffffffffff160361083e576040517f08c379a00000000000000000000000000000000000000000000000000000000081526004016108359061281b565b60405180910390fd5b600360008373ffffffffffffffffffffffffffffffffffffffff1673ffffffffffffffffffffffffffffffffffffffff168152602001908152602001600020549050919050565b61088d61114f565b61089760006111cd565b565b6000816040516020016108ac9190612883565b6040516020818303038152906040528051906020012060001c9050919050565b3373ffffffffffffffffffffffffffffffffffffffff166108eb610936565b73ffffffffffffffffffffffffffffffffffffffff161461090a573390505b6007600081548092919061091d9061289e565b919050555061093361092e82610899565b611293565b50565b6000600660019054906101000a900473ffffffffffffffffffffffffffffffffffffffff16905090565b60606001805461096f90612695565b80601f016020809104026020016040519081016040528092919081815260200182805461099b90612695565b80156109e85780601f106109bd576101008083540402835291602001916109e8565b820191906000526020600020905b8154815290600101906020018083116109cb57829003601f168201915b5050505050905090565b600660009054906101000a900460ff1615610a39576040517fbd291a9500000000000000000000000000000000000000000000000000000000815260040160405180910390fd5b610a4382826113e1565b5050565b6060610a5a610a5583610899565b610b12565b9050919050565b6000610a6c826113f7565b610aa2576040517fae9a63f500000000000000000000000000000000000000000000000000000000815260040160405180910390fd5b600660009054906101000a900460ff169050919050565b600660009054906101000a900460ff1615610b00576040517fbd291a9500000000000000000000000000000000000000000000000000000000815260040160405180910390fd5b610b0c84848484611438565b50505050565b6060610b1d82610f12565b6000610beb610b2a6104fc565b610b326104fc565b610bc560088054610b4290612695565b80601f0160208091040260200160405190810160405280929190818152602001828054610b6e90612695565b8015610bbb5780601f10610b9057610100808354040283529160200191610bbb565b820191906000526020600020905b815481529060010190602001808311610b9e57829003601f168201915b505050505061149a565b604051602001610bd793929190612a59565b60405160208183030381529060405261149a565b9050600081604051602001610c009190612b02565b60405160208183030381529060405290508092505050919050565b60606000610ceb610c2a6104fc565b610c326104fc565b610cc560088054610c4290612695565b80601f0160208091040260200160405190810160405280929190818152602001828054610c6e90612695565b8015610cbb5780601f10610c9057610100808354040283529160200191610cbb565b820191906000526020600020905b815481529060010190602001808311610c9e57829003601f168201915b505050505061149a565b604051602001610cd793929190612b70565b60405160208183030381529060405261149a565b9050600081604051602001610d009190612b02565b6040516020818303038152906040529050809250505090565b6000600560008473ffffffffffffffffffffffffffffffffffffffff1673ffffffffffffffffffffffffffffffffffffffff16815260200190815260200160002060008373ffffffffffffffffffffffffffffffffffffffff1673ffffffffffffffffffffffffffffffffffffffff16815260200190815260200160002060009054906101000a900460ff16905092915050565b610db561114f565b600073ffffffffffffffffffffffffffffffffffffffff168173ffffffffffffffffffffffffffffffffffffffff1603610e24576040517f08c379a0000000000000000000000000000000000000000000000000000000008152600401610e1b90612c3f565b60405180910390fd5b610e2d816111cd565b50565b60007f80ac58cd000000000000000000000000000000000000000000000000000000007bffffffffffffffffffffffffffffffffffffffffffffffffffffffff1916827bffffffffffffffffffffffffffffffffffffffffffffffffffffffff19161480610efb57507f5b5e139f000000000000000000000000000000000000000000000000000000007bffffffffffffffffffffffffffffffffffffffffffffffffffffffff1916827bffffffffffffffffffffffffffffffffffffffffffffffffffffffff1916145b80610f0b5750610f0a826115fd565b5b9050919050565b610f1b816113f7565b610f5a576040517f08c379a0000000000000000000000000000000000000000000000000000000008152600401610f5190612789565b60405180910390fd5b50565b6000610f6882610748565b90508073ffffffffffffffffffffffffffffffffffffffff168373ffffffffffffffffffffffffffffffffffffffff1603610fd8576040517f08c379a0000000000000000000000000000000000000000000000000000000008152600401610fcf90612cd1565b60405180910390fd5b8073ffffffffffffffffffffffffffffffffffffffff16610ff7611667565b73ffffffffffffffffffffffffffffffffffffffff161480611026575061102581611020611667565b610d19565b5b611065576040517f08c379a000000000000000000000000000000000000000000000000000000000815260040161105c90612d63565b60405180910390fd5b61106f838361166f565b505050565b61108561107f611667565b82611728565b6110c4576040517f08c379a00000000000000000000000000000000000000000000000000000000081526004016110bb90612df5565b60405180910390fd5b6110cf8383836117bd565b505050565b6110ee828260405180602001604052806000815250611ab6565b5050565b61110d83838360405180602001604052806000815250610ab9565b505050565b60006002600083815260200190815260200160002060009054906101000a900473ffffffffffffffffffffffffffffffffffffffff169050919050565b611157611667565b73ffffffffffffffffffffffffffffffffffffffff16611175610936565b73ffffffffffffffffffffffffffffffffffffffff16146111cb576040517f08c379a00000000000000000000000000000000000000000000000000000000081526004016111c290612e61565b60405180910390fd5b565b6000600660019054906101000a900473ffffffffffffffffffffffffffffffffffffffff16905081600660016101000a81548173ffffffffffffffffffffffffffffffffffffffff021916908373ffffffffffffffffffffffffffffffffffffffff1602179055508173ffffffffffffffffffffffffffffffffffffffff168173ffffffffffffffffffffffffffffffffffffffff167f8be0079c531659141344cd1fd0a4f28419497f9722a3daafe3b4186f6b6457e060405160405180910390a35050565b600061129e82610748565b90506112ae816000846001611b11565b6112b782610748565b90506004600083815260200190815260200160002060006101000a81549073ffffffffffffffffffffffffffffffffffffffff02191690556001600360008373ffffffffffffffffffffffffffffffffffffffff1673ffffffffffffffffffffffffffffffffffffffff168152602001908152602001600020600082825403925050819055506002600083815260200190815260200160002060006101000a81549073ffffffffffffffffffffffffffffffffffffffff021916905581600073ffffffffffffffffffffffffffffffffffffffff168273ffffffffffffffffffffffffffffffffffffffff167fddf252ad1be2c89b69c2b068fc378daa952ba7f163c4a11628f55a4df523b3ef60405160405180910390a46113dd816000846001611b17565b5050565b6113f36113ec611667565b8383611b1d565b5050565b60008073ffffffffffffffffffffffffffffffffffffffff1661141983611112565b73ffffffffffffffffffffffffffffffffffffffff1614159050919050565b611449611443611667565b83611728565b611488576040517f08c379a000000000000000000000000000000000000000000000000000000000815260040161147f90612df5565b60405180910390fd5b61149484848484611c89565b50505050565b606060008251036114bc576040518060200160405280600081525090506115f8565b600060405180606001604052806040815260200161333560409139905060006003600285516114eb9190612e81565b6114f59190612ee4565b60046115019190612f15565b67ffffffffffffffff81111561151a57611519612478565b5b6040519080825280601f01601f19166020018201604052801561154c5781602001600182028036833780820191505090505b509050600182016020820185865187015b808210156115b8576003820191508151603f8160121c168501518453600184019350603f81600c1c168501518453600184019350603f8160061c168501518453600184019350603f811685015184536001840193505061155d565b50506003865106600181146115d457600281146115e7576115ef565b603d6001830353603d60028303536115ef565b603d60018303535b50505080925050505b919050565b60007f01ffc9a7000000000000000000000000000000000000000000000000000000007bffffffffffffffffffffffffffffffffffffffffffffffffffffffff1916827bffffffffffffffffffffffffffffffffffffffffffffffffffffffff1916149050919050565b600033905090565b816004600083815260200190815260200160002060006101000a81548173ffffffffffffffffffffffffffffffffffffffff021916908373ffffffffffffffffffffffffffffffffffffffff160217905550808273ffffffffffffffffffffffffffffffffffffffff166116e283610748565b73ffffffffffffffffffffffffffffffffffffffff167f8c5be1e5ebec7d5bd14f71427d1e84f3dd0314c0f7b2291e5b200ac8c7c3b92560405160405180910390a45050565b60008061173483610748565b90508073ffffffffffffffffffffffffffffffffffffffff168473ffffffffffffffffffffffffffffffffffffffff16148061177657506117758185610d19565b5b806117b457508373ffffffffffffffffffffffffffffffffffffffff1661179c8461058e565b73ffffffffffffffffffffffffffffffffffffffff16145b91505092915050565b8273ffffffffffffffffffffffffffffffffffffffff166117dd82610748565b73ffffffffffffffffffffffffffffffffffffffff1614611833576040517f08c379a000000000000000000000000000000000000000000000000000000000815260040161182a90612fc9565b60405180910390fd5b600073ffffffffffffffffffffffffffffffffffffffff168273ffffffffffffffffffffffffffffffffffffffff16036118a2576040517f08c379a00000000000000000000000000000000000000000000000000000000081526004016118999061305b565b60405180910390fd5b6118af8383836001611b11565b8273ffffffffffffffffffffffffffffffffffffffff166118cf82610748565b73ffffffffffffffffffffffffffffffffffffffff1614611925576040517f08c379a000000000000000000000000000000000000000000000000000000000815260040161191c90612fc9565b60405180910390fd5b6004600082815260200190815260200160002060006101000a81549073ffffffffffffffffffffffffffffffffffffffff02191690556001600360008573ffffffffffffffffffffffffffffffffffffffff1673ffffffffffffffffffffffffffffffffffffffff168152602001908152602001600020600082825403925050819055506001600360008473ffffffffffffffffffffffffffffffffffffffff1673ffffffffffffffffffffffffffffffffffffffff16815260200190815260200160002060008282540192505081905550816002600083815260200190815260200160002060006101000a81548173ffffffffffffffffffffffffffffffffffffffff021916908373ffffffffffffffffffffffffffffffffffffffff160217905550808273ffffffffffffffffffffffffffffffffffffffff168473ffffffffffffffffffffffffffffffffffffffff167fddf252ad1be2c89b69c2b068fc378daa952ba7f163c4a11628f55a4df523b3ef60405160405180910390a4611ab18383836001611b17565b505050565b611ac08383611ce5565b611acd6000848484611f02565b611b0c576040517f08c379a0000000000000000000000000000000000000000000000000000000008152600401611b03906130ed565b60405180910390fd5b505050565b50505050565b50505050565b8173ffffffffffffffffffffffffffffffffffffffff168373ffffffffffffffffffffffffffffffffffffffff1603611b8b576040517f08c379a0000000000000000000000000000000000000000000000000000000008152600401611b8290613159565b60405180910390fd5b80600560008573ffffffffffffffffffffffffffffffffffffffff1673ffffffffffffffffffffffffffffffffffffffff16815260200190815260200160002060008473ffffffffffffffffffffffffffffffffffffffff1673ffffffffffffffffffffffffffffffffffffffff16815260200190815260200160002060006101000a81548160ff0219169083151502179055508173ffffffffffffffffffffffffffffffffffffffff168373ffffffffffffffffffffffffffffffffffffffff167f17307eab39ab6107e8899845ad3d59bd9653f200f220920489ca2b5937696c3183604051611c7c9190612160565b60405180910390a3505050565b611c948484846117bd565b611ca084848484611f02565b611cdf576040517f08c379a0000000000000000000000000000000000000000000000000000000008152600401611cd6906130ed565b60405180910390fd5b50505050565b600073ffffffffffffffffffffffffffffffffffffffff168273ffffffffffffffffffffffffffffffffffffffff1603611d54576040517f08c379a0000000000000000000000000000000000000000000000000000000008152600401611d4b906131c5565b60405180910390fd5b611d5d816113f7565b15611d9d576040517f08c379a0000000000000000000000000000000000000000000000000000000008152600401611d9490613231565b60405180910390fd5b611dab600083836001611b11565b611db4816113f7565b15611df4576040517f08c379a0000000000000000000000000000000000000000000000000000000008152600401611deb90613231565b60405180910390fd5b6001600360008473ffffffffffffffffffffffffffffffffffffffff1673ffffffffffffffffffffffffffffffffffffffff16815260200190815260200160002060008282540192505081905550816002600083815260200190815260200160002060006101000a81548173ffffffffffffffffffffffffffffffffffffffff021916908373ffffffffffffffffffffffffffffffffffffffff160217905550808273ffffffffffffffffffffffffffffffffffffffff16600073ffffffffffffffffffffffffffffffffffffffff167fddf252ad1be2c89b69c2b068fc378daa952ba7f163c4a11628f55a4df523b3ef60405160405180910390a4611efe600083836001611b17565b5050565b6000611f238473ffffffffffffffffffffffffffffffffffffffff16612089565b1561207c578373ffffffffffffffffffffffffffffffffffffffff1663150b7a02611f4c611667565b8786866040518563ffffffff1660e01b8152600401611f6e94939291906132a6565b6020604051808303816000875af1925050508015611faa57506040513d601f19601f82011682018060405250810190611fa79190613307565b60015b61202c573d8060008114611fda576040519150601f19603f3d011682016040523d82523d6000602084013e611fdf565b606091505b506000815103612024576040517f08c379a000000000000000000000000000000000000000000000000000000000815260040161201b906130ed565b60405180910390fd5b805181602001fd5b63150b7a0260e01b7bffffffffffffffffffffffffffffffffffffffffffffffffffffffff1916817bffffffffffffffffffffffffffffffffffffffffffffffffffffffff191614915050612081565b600190505b949350505050565b6000808273ffffffffffffffffffffffffffffffffffffffff163b119050919050565b6000604051905090565b600080fd5b600080fd5b60007fffffffff0000000000000000000000000000000000000000000000000000000082169050919050565b6120f5816120c0565b811461210057600080fd5b50565b600081359050612112816120ec565b92915050565b60006020828403121561212e5761212d6120b6565b5b600061213c84828501612103565b91505092915050565b60008115159050919050565b61215a81612145565b82525050565b60006020820190506121756000830184612151565b92915050565b600081519050919050565b600082825260208201905092915050565b60005b838110156121b557808201518184015260208101905061219a565b60008484015250505050565b6000601f19601f8301169050919050565b60006121dd8261217b565b6121e78185612186565b93506121f7818560208601612197565b612200816121c1565b840191505092915050565b6000602082019050818103600083015261222581846121d2565b905092915050565b6000819050919050565b6122408161222d565b811461224b57600080fd5b50565b60008135905061225d81612237565b92915050565b600060208284031215612279576122786120b6565b5b60006122878482850161224e565b91505092915050565b600073ffffffffffffffffffffffffffffffffffffffff82169050919050565b60006122bb82612290565b9050919050565b6122cb816122b0565b82525050565b60006020820190506122e660008301846122c2565b92915050565b6122f5816122b0565b811461230057600080fd5b50565b600081359050612312816122ec565b92915050565b6000806040838503121561232f5761232e6120b6565b5b600061233d85828601612303565b925050602061234e8582860161224e565b9150509250929050565b6123618161222d565b82525050565b600060208201905061237c6000830184612358565b92915050565b60008060006060848603121561239b5761239a6120b6565b5b60006123a986828701612303565b93505060206123ba86828701612303565b92505060406123cb8682870161224e565b9150509250925092565b6000602082840312156123eb576123ea6120b6565b5b60006123f984828501612303565b91505092915050565b61240b81612145565b811461241657600080fd5b50565b60008135905061242881612402565b92915050565b60008060408385031215612445576124446120b6565b5b600061245385828601612303565b925050602061246485828601612419565b9150509250929050565b600080fd5b600080fd5b7f4e487b7100000000000000000000000000000000000000000000000000000000600052604160045260246000fd5b6124b0826121c1565b810181811067ffffffffffffffff821117156124cf576124ce612478565b5b80604052505050565b60006124e26120ac565b90506124ee82826124a7565b919050565b600067ffffffffffffffff82111561250e5761250d612478565b5b612517826121c1565b9050602081019050919050565b82818337600083830152505050565b6000612546612541846124f3565b6124d8565b90508281526020810184848401111561256257612561612473565b5b61256d848285612524565b509392505050565b600082601f83011261258a5761258961246e565b5b813561259a848260208601612533565b91505092915050565b600080600080608085870312156125bd576125bc6120b6565b5b60006125cb87828801612303565b94505060206125dc87828801612303565b93505060406125ed8782880161224e565b925050606085013567ffffffffffffffff81111561260e5761260d6120bb565b5b61261a87828801612575565b91505092959194509250565b6000806040838503121561263d5761263c6120b6565b5b600061264b85828601612303565b925050602061265c85828601612303565b9150509250929050565b7f4e487b7100000000000000000000000000000000000000000000000000000000600052602260045260246000fd5b600060028204905060018216806126ad57607f821691505b6020821081036126c0576126bf612666565b5b50919050565b7f4e487b7100000000000000000000000000000000000000000000000000000000600052601160045260246000fd5b60006127008261222d565b91507fffffffffffffffffffffffffffffffffffffffffffffffffffffffffffffffff8203612732576127316126c6565b5b600182019050919050565b7f4552433732313a20696e76616c696420746f6b656e2049440000000000000000600082015250565b6000612773601883612186565b915061277e8261273d565b602082019050919050565b600060208201905081810360008301526127a281612766565b9050919050565b7f4552433732313a2061646472657373207a65726f206973206e6f74206120766160008201527f6c6964206f776e65720000000000000000000000000000000000000000000000602082015250565b6000612805602983612186565b9150612810826127a9565b604082019050919050565b60006020820190508181036000830152612834816127f8565b9050919050565b60008160601b9050919050565b60006128538261283b565b9050919050565b600061286582612848565b9050919050565b61287d612878826122b0565b61285a565b82525050565b600061288f828461286c565b60148201915081905092915050565b60006128a98261222d565b9150600082036128bc576128bb6126c6565b5b600182039050919050565b600081905092915050565b7f7b226e616d65223a202200000000000000000000000000000000000000000000600082015250565b6000612908600a836128c7565b9150612913826128d2565b600a82019050919050565b60006129298261217b565b61293381856128c7565b9350612943818560208601612197565b80840191505092915050565b7f222c20226465736372697074696f6e223a202254686973206973200000000000600082015250565b6000612985601b836128c7565b91506129908261294f565b601b82019050919050565b7f2e222c2022696d616765223a2022646174613a696d6167652f7376672b786d6c60008201527f3b6261736536342c000000000000000000000000000000000000000000000000602082015250565b60006129f76028836128c7565b9150612a028261299b565b602882019050919050565b7f227d000000000000000000000000000000000000000000000000000000000000600082015250565b6000612a436002836128c7565b9150612a4e82612a0d565b600282019050919050565b6000612a64826128fb565b9150612a70828661291e565b9150612a7b82612978565b9150612a87828561291e565b9150612a92826129ea565b9150612a9e828461291e565b9150612aa982612a36565b9150819050949350505050565b7f646174613a6170706c69636174696f6e2f6a736f6e3b6261736536342c000000600082015250565b6000612aec601d836128c7565b9150612af782612ab6565b601d82019050919050565b6000612b0d82612adf565b9150612b19828461291e565b915081905092915050565b7f222c202265787465726e616c5f6c696e6b223a2022227d000000000000000000600082015250565b6000612b5a6017836128c7565b9150612b6582612b24565b601782019050919050565b6000612b7b826128fb565b9150612b87828661291e565b9150612b9282612978565b9150612b9e828561291e565b9150612ba9826129ea565b9150612bb5828461291e565b9150612bc082612b4d565b9150819050949350505050565b7f4f776e61626c653a206e6577206f776e657220697320746865207a65726f206160008201527f6464726573730000000000000000000000000000000000000000000000000000602082015250565b6000612c29602683612186565b9150612c3482612bcd565b604082019050919050565b60006020820190508181036000830152612c5881612c1c565b9050919050565b7f4552433732313a20617070726f76616c20746f2063757272656e74206f776e6560008201527f7200000000000000000000000000000000000000000000000000000000000000602082015250565b6000612cbb602183612186565b9150612cc682612c5f565b604082019050919050565b60006020820190508181036000830152612cea81612cae565b9050919050565b7f4552433732313a20617070726f76652063616c6c6572206973206e6f7420746f60008201527f6b656e206f776e6572206f7220617070726f76656420666f7220616c6c000000602082015250565b6000612d4d603d83612186565b9150612d5882612cf1565b604082019050919050565b60006020820190508181036000830152612d7c81612d40565b9050919050565b7f4552433732313a2063616c6c6572206973206e6f7420746f6b656e206f776e6560008201527f72206f7220617070726f76656400000000000000000000000000000000000000602082015250565b6000612ddf602d83612186565b9150612dea82612d83565b604082019050919050565b60006020820190508181036000830152612e0e81612dd2565b9050919050565b7f4f776e61626c653a2063616c6c6572206973206e6f7420746865206f776e6572600082015250565b6000612e4b602083612186565b9150612e5682612e15565b602082019050919050565b60006020820190508181036000830152612e7a81612e3e565b9050919050565b6000612e8c8261222d565b9150612e978361222d565b9250828201905080821115612eaf57612eae6126c6565b5b92915050565b7f4e487b7100000000000000000000000000000000000000000000000000000000600052601260045260246000fd5b6000612eef8261222d565b9150612efa8361222d565b925082612f0a57612f09612eb5565b5b828204905092915050565b6000612f208261222d565b9150612f2b8361222d565b9250828202612f398161222d565b91508282048414831517612f5057612f4f6126c6565b5b5092915050565b7f4552433732313a207472616e736665722066726f6d20696e636f72726563742060008201527f6f776e6572000000000000000000000000000000000000000000000000000000602082015250565b6000612fb3602583612186565b9150612fbe82612f57565b604082019050919050565b60006020820190508181036000830152612fe281612fa6565b9050919050565b7f4552433732313a207472616e7366657220746f20746865207a65726f2061646460008201527f7265737300000000000000000000000000000000000000000000000000000000602082015250565b6000613045602483612186565b915061305082612fe9565b604082019050919050565b6000602082019050818103600083015261307481613038565b9050919050565b7f4552433732313a207472616e7366657220746f206e6f6e20455243373231526560008201527f63656976657220696d706c656d656e7465720000000000000000000000000000602082015250565b60006130d7603283612186565b91506130e28261307b565b604082019050919050565b60006020820190508181036000830152613106816130ca565b9050919050565b7f4552433732313a20617070726f766520746f2063616c6c657200000000000000600082015250565b6000613143601983612186565b915061314e8261310d565b602082019050919050565b6000602082019050818103600083015261317281613136565b9050919050565b7f4552433732313a206d696e7420746f20746865207a65726f2061646472657373600082015250565b60006131af602083612186565b91506131ba82613179565b602082019050919050565b600060208201905081810360008301526131de816131a2565b9050919050565b7f4552433732313a20746f6b656e20616c7265616479206d696e74656400000000600082015250565b600061321b601c83612186565b9150613226826131e5565b602082019050919050565b6000602082019050818103600083015261324a8161320e565b9050919050565b600081519050919050565b600082825260208201905092915050565b600061327882613251565b613282818561325c565b9350613292818560208601612197565b61329b816121c1565b840191505092915050565b60006080820190506132bb60008301876122c2565b6132c860208301866122c2565b6132d56040830185612358565b81810360608301526132e7818461326d565b905095945050505050565b600081519050613301816120ec565b92915050565b60006020828403121561331d5761331c6120b6565b5b600061332b848285016132f2565b9150509291505056fe4142434445464748494a4b4c4d4e4f505152535455565758595a6162636465666768696a6b6c6d6e6f707172737475767778797a303132333435363738392b2fa26469706673582212208559b148984be7dd0875f8454216f348531a237708e96603ae2cb4648076186264736f6c63430008120033",
  "linkReferences": {},
  "deployedLinkReferences": {}
}