{
  "_format": "hh-sol-artifact-1",
  "contractName": "QuestCheckerCreater",
  "sourceName": "contracts/QuestCheckerCreater.sol",
  "abi": [
    {
      "inputs": [],
      "name": "InvalidInterfaceId",
      "type": "error"
    },
    {
      "inputs": [
        {
          "internalType": "bytes4",
          "name": "interfaceId",
          "type": "bytes4"
        },
        {
          "internalType": "address",
          "name": "target",
          "type": "address"
        }
      ],
      "name": "createQuestChecker",
      "outputs": [
        {
          "internalType": "address",
          "name": "",
          "type": "address"
        }
      ],
      "stateMutability": "nonpayable",
      "type": "function"
    }
  ],
  "bytecode": "0x608060405234801561001057600080fd5b50610e9f806100206000396000f3fe608060405234801561001057600080fd5b506004361061002b5760003560e01c80631d79322814610030575b600080fd5b61004a6004803603810190610045919061025f565b610060565b60405161005791906102ae565b60405180910390f35b60008073ffffffffffffffffffffffffffffffffffffffff168273ffffffffffffffffffffffffffffffffffffffff16036100d0576040517f08c379a00000000000000000000000000000000000000000000000000000000081526004016100c790610326565b60405180910390fd5b60006380ac58cd60e01b7bffffffffffffffffffffffffffffffffffffffffffffffffffffffff1916847bffffffffffffffffffffffffffffffffffffffffffffffffffffffff19160361015b57823360405161012c90610197565b610137929190610346565b604051809103906000f080158015610153573d6000803e3d6000fd5b50905061018d565b6040517f4daf3b2800000000000000000000000000000000000000000000000000000000815260040160405180910390fd5b8091505092915050565b610afa8061037083390190565b600080fd5b60007fffffffff0000000000000000000000000000000000000000000000000000000082169050919050565b6101de816101a9565b81146101e957600080fd5b50565b6000813590506101fb816101d5565b92915050565b600073ffffffffffffffffffffffffffffffffffffffff82169050919050565b600061022c82610201565b9050919050565b61023c81610221565b811461024757600080fd5b50565b60008135905061025981610233565b92915050565b60008060408385031215610276576102756101a4565b5b6000610284858286016101ec565b92505060206102958582860161024a565b9150509250929050565b6102a881610221565b82525050565b60006020820190506102c3600083018461029f565b92915050565b600082825260208201905092915050565b7f7a65726f20616464726573730000000000000000000000000000000000000000600082015250565b6000610310600c836102c9565b915061031b826102da565b602082019050919050565b6000602082019050818103600083015261033f81610303565b9050919050565b600060408201905061035b600083018561029f565b610368602083018461029f565b939250505056fe608060405234801561001057600080fd5b50604051610afa380380610afa8339818101604052810190610032919061021d565b61004e6100436100ee60201b60201c565b6100f660201b60201c565b81600160006101000a81548173ffffffffffffffffffffffffffffffffffffffff021916908373ffffffffffffffffffffffffffffffffffffffff1602179055506001600260008373ffffffffffffffffffffffffffffffffffffffff1673ffffffffffffffffffffffffffffffffffffffff16815260200190815260200160002060006101000a81548160ff021916908315150217905550505061025d565b600033905090565b60008060009054906101000a900473ffffffffffffffffffffffffffffffffffffffff169050816000806101000a81548173ffffffffffffffffffffffffffffffffffffffff021916908373ffffffffffffffffffffffffffffffffffffffff1602179055508173ffffffffffffffffffffffffffffffffffffffff168173ffffffffffffffffffffffffffffffffffffffff167f8be0079c531659141344cd1fd0a4f28419497f9722a3daafe3b4186f6b6457e060405160405180910390a35050565b600080fd5b600073ffffffffffffffffffffffffffffffffffffffff82169050919050565b60006101ea826101bf565b9050919050565b6101fa816101df565b811461020557600080fd5b50565b600081519050610217816101f1565b92915050565b60008060408385031215610234576102336101ba565b5b600061024285828601610208565b925050602061025385828601610208565b9150509250929050565b61088e8061026c6000396000f3fe608060405234801561001057600080fd5b506004361061007d5760003560e01c80638da5cb5b1161005b5780638da5cb5b146100d8578063bca6ce64146100f6578063cdb2f33e14610114578063f2fde38b146101445761007d565b8063515af40b14610082578063715018a6146100b257806382c9b922146100bc575b600080fd5b61009c60048036038101906100979190610573565b610160565b6040516100a991906105bb565b60405180910390f35b6100ba61025d565b005b6100d660048036038101906100d19190610602565b610271565b005b6100e06102d4565b6040516100ed9190610651565b60405180910390f35b6100fe6102fd565b60405161010b91906106cb565b60405180910390f35b61012e60048036038101906101299190610573565b610323565b60405161013b91906105bb565b60405180910390f35b61015e60048036038101906101599190610573565b610343565b005b6000600260003373ffffffffffffffffffffffffffffffffffffffff1673ffffffffffffffffffffffffffffffffffffffff16815260200190815260200160002060009054906101000a900460ff166101b7573391505b6000600160009054906101000a900473ffffffffffffffffffffffffffffffffffffffff1673ffffffffffffffffffffffffffffffffffffffff166370a08231846040518263ffffffff1660e01b81526004016102149190610651565b602060405180830381865afa158015610231573d6000803e3d6000fd5b505050506040513d601f19601f82011682018060405250810190610255919061071c565b119050919050565b6102656103c6565b61026f6000610444565b565b6102796103c6565b80600260008473ffffffffffffffffffffffffffffffffffffffff1673ffffffffffffffffffffffffffffffffffffffff16815260200190815260200160002060006101000a81548160ff0219169083151502179055505050565b60008060009054906101000a900473ffffffffffffffffffffffffffffffffffffffff16905090565b600160009054906101000a900473ffffffffffffffffffffffffffffffffffffffff1681565b60026020528060005260406000206000915054906101000a900460ff1681565b61034b6103c6565b600073ffffffffffffffffffffffffffffffffffffffff168173ffffffffffffffffffffffffffffffffffffffff16036103ba576040517f08c379a00000000000000000000000000000000000000000000000000000000081526004016103b1906107cc565b60405180910390fd5b6103c381610444565b50565b6103ce610508565b73ffffffffffffffffffffffffffffffffffffffff166103ec6102d4565b73ffffffffffffffffffffffffffffffffffffffff1614610442576040517f08c379a000000000000000000000000000000000000000000000000000000000815260040161043990610838565b60405180910390fd5b565b60008060009054906101000a900473ffffffffffffffffffffffffffffffffffffffff169050816000806101000a81548173ffffffffffffffffffffffffffffffffffffffff021916908373ffffffffffffffffffffffffffffffffffffffff1602179055508173ffffffffffffffffffffffffffffffffffffffff168173ffffffffffffffffffffffffffffffffffffffff167f8be0079c531659141344cd1fd0a4f28419497f9722a3daafe3b4186f6b6457e060405160405180910390a35050565b600033905090565b600080fd5b600073ffffffffffffffffffffffffffffffffffffffff82169050919050565b600061054082610515565b9050919050565b61055081610535565b811461055b57600080fd5b50565b60008135905061056d81610547565b92915050565b60006020828403121561058957610588610510565b5b60006105978482850161055e565b91505092915050565b60008115159050919050565b6105b5816105a0565b82525050565b60006020820190506105d060008301846105ac565b92915050565b6105df816105a0565b81146105ea57600080fd5b50565b6000813590506105fc816105d6565b92915050565b6000806040838503121561061957610618610510565b5b60006106278582860161055e565b9250506020610638858286016105ed565b9150509250929050565b61064b81610535565b82525050565b60006020820190506106666000830184610642565b92915050565b6000819050919050565b600061069161068c61068784610515565b61066c565b610515565b9050919050565b60006106a382610676565b9050919050565b60006106b582610698565b9050919050565b6106c5816106aa565b82525050565b60006020820190506106e060008301846106bc565b92915050565b6000819050919050565b6106f9816106e6565b811461070457600080fd5b50565b600081519050610716816106f0565b92915050565b60006020828403121561073257610731610510565b5b600061074084828501610707565b91505092915050565b600082825260208201905092915050565b7f4f776e61626c653a206e6577206f776e657220697320746865207a65726f206160008201527f6464726573730000000000000000000000000000000000000000000000000000602082015250565b60006107b6602683610749565b91506107c18261075a565b604082019050919050565b600060208201905081810360008301526107e5816107a9565b9050919050565b7f4f776e61626c653a2063616c6c6572206973206e6f7420746865206f776e6572600082015250565b6000610822602083610749565b915061082d826107ec565b602082019050919050565b6000602082019050818103600083015261085181610815565b905091905056fea2646970667358221220d4ba299f4e858eb9bf1874f0344965e91ce715f002d404dab88e5353cc579d5264736f6c63430008120033a26469706673582212208282600e46fc2f7902ff2dc900b52dcb1cd3d4dcfcec47ac0093885e0a60af0164736f6c63430008120033",
  "linkReferences": {},
  "deployedLinkReferences": {}
}