{
  "_format": "hh-sol-artifact-1",
  "contractName": "QuestBoard",
  "sourceName": "contracts/QuestBoard.sol",
  "abi": [
    {
      "inputs": [
        {
          "internalType": "address",
          "name": "_communityPortal",
          "type": "address"
        },
        {
          "internalType": "address",
          "name": "_questCheckerCreater",
          "type": "address"
        },
        {
          "internalType": "address",
          "name": "_prizePoap",
          "type": "address"
        }
      ],
      "stateMutability": "nonpayable",
      "type": "constructor"
    },
    {
      "anonymous": false,
      "inputs": [
        {
          "indexed": true,
          "internalType": "address",
          "name": "account",
          "type": "address"
        },
        {
          "indexed": true,
          "internalType": "address",
          "name": "operator",
          "type": "address"
        },
        {
          "indexed": false,
          "internalType": "bool",
          "name": "approved",
          "type": "bool"
        }
      ],
      "name": "ApprovalForAll",
      "type": "event"
    },
    {
      "anonymous": false,
      "inputs": [
        {
          "indexed": true,
          "internalType": "uint32",
          "name": "questId",
          "type": "uint32"
        },
        {
          "indexed": true,
          "internalType": "address",
          "name": "user",
          "type": "address"
        }
      ],
      "name": "Burn",
      "type": "event"
    },
    {
      "anonymous": false,
      "inputs": [
        {
          "indexed": true,
          "internalType": "uint32",
          "name": "questId",
          "type": "uint32"
        },
        {
          "indexed": true,
          "internalType": "address",
          "name": "user",
          "type": "address"
        }
      ],
      "name": "Claim",
      "type": "event"
    },
    {
      "anonymous": false,
      "inputs": [
        {
          "indexed": false,
          "internalType": "uint32",
          "name": "questId",
          "type": "uint32"
        },
        {
          "indexed": false,
          "internalType": "string",
          "name": "title",
          "type": "string"
        },
        {
          "indexed": false,
          "internalType": "string",
          "name": "questURI",
          "type": "string"
        },
        {
          "indexed": false,
          "internalType": "address",
          "name": "questCheckerAddress",
          "type": "address"
        },
        {
          "indexed": true,
          "internalType": "uint32",
          "name": "communityId",
          "type": "uint32"
        },
        {
          "indexed": false,
          "internalType": "uint32",
          "name": "obtainableExp",
          "type": "uint32"
        },
        {
          "indexed": false,
          "internalType": "uint32",
          "name": "obtainablePrizeId",
          "type": "uint32"
        },
        {
          "indexed": false,
          "internalType": "bool",
          "name": "prizeObtainable",
          "type": "bool"
        },
        {
          "indexed": true,
          "internalType": "address",
          "name": "target",
          "type": "address"
        }
      ],
      "name": "Create",
      "type": "event"
    },
    {
      "anonymous": false,
      "inputs": [
        {
          "indexed": true,
          "internalType": "address",
          "name": "previousOwner",
          "type": "address"
        },
        {
          "indexed": true,
          "internalType": "address",
          "name": "newOwner",
          "type": "address"
        }
      ],
      "name": "OwnershipTransferred",
      "type": "event"
    },
    {
      "anonymous": false,
      "inputs": [
        {
          "indexed": true,
          "internalType": "address",
          "name": "operator",
          "type": "address"
        },
        {
          "indexed": true,
          "internalType": "address",
          "name": "from",
          "type": "address"
        },
        {
          "indexed": true,
          "internalType": "address",
          "name": "to",
          "type": "address"
        },
        {
          "indexed": false,
          "internalType": "uint256[]",
          "name": "ids",
          "type": "uint256[]"
        },
        {
          "indexed": false,
          "internalType": "uint256[]",
          "name": "values",
          "type": "uint256[]"
        }
      ],
      "name": "TransferBatch",
      "type": "event"
    },
    {
      "anonymous": false,
      "inputs": [
        {
          "indexed": true,
          "internalType": "address",
          "name": "operator",
          "type": "address"
        },
        {
          "indexed": true,
          "internalType": "address",
          "name": "from",
          "type": "address"
        },
        {
          "indexed": true,
          "internalType": "address",
          "name": "to",
          "type": "address"
        },
        {
          "indexed": false,
          "internalType": "uint256",
          "name": "id",
          "type": "uint256"
        },
        {
          "indexed": false,
          "internalType": "uint256",
          "name": "value",
          "type": "uint256"
        }
      ],
      "name": "TransferSingle",
      "type": "event"
    },
    {
      "anonymous": false,
      "inputs": [
        {
          "indexed": false,
          "internalType": "string",
          "name": "value",
          "type": "string"
        },
        {
          "indexed": true,
          "internalType": "uint256",
          "name": "id",
          "type": "uint256"
        }
      ],
      "name": "URI",
      "type": "event"
    },
    {
      "inputs": [
        {
          "internalType": "address",
          "name": "account",
          "type": "address"
        },
        {
          "internalType": "uint256",
          "name": "id",
          "type": "uint256"
        }
      ],
      "name": "balanceOf",
      "outputs": [
        {
          "internalType": "uint256",
          "name": "",
          "type": "uint256"
        }
      ],
      "stateMutability": "view",
      "type": "function"
    },
    {
      "inputs": [
        {
          "internalType": "address[]",
          "name": "accounts",
          "type": "address[]"
        },
        {
          "internalType": "uint256[]",
          "name": "ids",
          "type": "uint256[]"
        }
      ],
      "name": "balanceOfBatch",
      "outputs": [
        {
          "internalType": "uint256[]",
          "name": "",
          "type": "uint256[]"
        }
      ],
      "stateMutability": "view",
      "type": "function"
    },
    {
      "inputs": [
        {
          "internalType": "uint32",
          "name": "questId",
          "type": "uint32"
        }
      ],
      "name": "burn",
      "outputs": [],
      "stateMutability": "nonpayable",
      "type": "function"
    },
    {
      "inputs": [
        {
          "internalType": "uint256[]",
          "name": "questIds",
          "type": "uint256[]"
        },
        {
          "internalType": "address[]",
          "name": "userList",
          "type": "address[]"
        }
      ],
      "name": "checkBatchCompleted",
      "outputs": [
        {
          "internalType": "bool[]",
          "name": "",
          "type": "bool[]"
        }
      ],
      "stateMutability": "view",
      "type": "function"
    },
    {
      "inputs": [
        {
          "internalType": "uint32",
          "name": "questId",
          "type": "uint32"
        }
      ],
      "name": "claim",
      "outputs": [],
      "stateMutability": "nonpayable",
      "type": "function"
    },
    {
      "inputs": [],
      "name": "communityPortal",
      "outputs": [
        {
          "internalType": "contract ICommunityPortal",
          "name": "",
          "type": "address"
        }
      ],
      "stateMutability": "view",
      "type": "function"
    },
    {
      "inputs": [
        {
          "internalType": "string",
          "name": "_title",
          "type": "string"
        },
        {
          "internalType": "string",
          "name": "_questURI",
          "type": "string"
        },
        {
          "internalType": "uint32",
          "name": "_communityId",
          "type": "uint32"
        },
        {
          "internalType": "uint32",
          "name": "_obtainableExp",
          "type": "uint32"
        },
        {
          "internalType": "uint32",
          "name": "_obtainablePrizeId",
          "type": "uint32"
        },
        {
          "internalType": "bool",
          "name": "_prizeObtainable",
          "type": "bool"
        },
        {
          "internalType": "bytes4",
          "name": "_interfaceId",
          "type": "bytes4"
        },
        {
          "internalType": "address",
          "name": "_target",
          "type": "address"
        }
      ],
      "name": "createQuest",
      "outputs": [],
      "stateMutability": "nonpayable",
      "type": "function"
    },
    {
      "inputs": [
        {
          "internalType": "uint256",
          "name": "id",
          "type": "uint256"
        }
      ],
      "name": "exists",
      "outputs": [
        {
          "internalType": "bool",
          "name": "",
          "type": "bool"
        }
      ],
      "stateMutability": "view",
      "type": "function"
    },
    {
      "inputs": [
        {
          "internalType": "uint256",
          "name": "page",
          "type": "uint256"
        },
        {
          "internalType": "uint256",
          "name": "pageSize",
          "type": "uint256"
        }
      ],
      "name": "getQuest",
      "outputs": [
        {
          "components": [
            {
              "internalType": "string",
              "name": "title",
              "type": "string"
            },
            {
              "internalType": "string",
              "name": "questURI",
              "type": "string"
            },
            {
              "internalType": "address",
              "name": "questCheckerAddress",
              "type": "address"
            },
            {
              "internalType": "uint32",
              "name": "communityId",
              "type": "uint32"
            },
            {
              "internalType": "uint32",
              "name": "obtainableExp",
              "type": "uint32"
            },
            {
              "internalType": "uint32",
              "name": "obtainablePrizeId",
              "type": "uint32"
            },
            {
              "internalType": "bool",
              "name": "prizeObtainable",
              "type": "bool"
            },
            {
              "internalType": "bool",
              "name": "closed",
              "type": "bool"
            }
          ],
          "internalType": "struct IQuestBoard.Quest[]",
          "name": "",
          "type": "tuple[]"
        },
        {
          "internalType": "uint256",
          "name": "",
          "type": "uint256"
        }
      ],
      "stateMutability": "view",
      "type": "function"
    },
    {
      "inputs": [
        {
          "internalType": "address",
          "name": "account",
          "type": "address"
        },
        {
          "internalType": "address",
          "name": "operator",
          "type": "address"
        }
      ],
      "name": "isApprovedForAll",
      "outputs": [
        {
          "internalType": "bool",
          "name": "",
          "type": "bool"
        }
      ],
      "stateMutability": "view",
      "type": "function"
    },
    {
      "inputs": [
        {
          "internalType": "address",
          "name": "",
          "type": "address"
        },
        {
          "internalType": "uint256",
          "name": "",
          "type": "uint256"
        }
      ],
      "name": "obtained",
      "outputs": [
        {
          "internalType": "bool",
          "name": "",
          "type": "bool"
        }
      ],
      "stateMutability": "view",
      "type": "function"
    },
    {
      "inputs": [],
      "name": "owner",
      "outputs": [
        {
          "internalType": "address",
          "name": "",
          "type": "address"
        }
      ],
      "stateMutability": "view",
      "type": "function"
    },
    {
      "inputs": [],
      "name": "prizePoap",
      "outputs": [
        {
          "internalType": "contract IPrizePoap",
          "name": "",
          "type": "address"
        }
      ],
      "stateMutability": "view",
      "type": "function"
    },
    {
      "inputs": [
        {
          "internalType": "uint256",
          "name": "",
          "type": "uint256"
        }
      ],
      "name": "questBoard",
      "outputs": [
        {
          "internalType": "string",
          "name": "title",
          "type": "string"
        },
        {
          "internalType": "string",
          "name": "questURI",
          "type": "string"
        },
        {
          "internalType": "address",
          "name": "questCheckerAddress",
          "type": "address"
        },
        {
          "internalType": "uint32",
          "name": "communityId",
          "type": "uint32"
        },
        {
          "internalType": "uint32",
          "name": "obtainableExp",
          "type": "uint32"
        },
        {
          "internalType": "uint32",
          "name": "obtainablePrizeId",
          "type": "uint32"
        },
        {
          "internalType": "bool",
          "name": "prizeObtainable",
          "type": "bool"
        },
        {
          "internalType": "bool",
          "name": "closed",
          "type": "bool"
        }
      ],
      "stateMutability": "view",
      "type": "function"
    },
    {
      "inputs": [],
      "name": "questCheckerCreater",
      "outputs": [
        {
          "internalType": "contract IQuestCheckerCreater",
          "name": "",
          "type": "address"
        }
      ],
      "stateMutability": "view",
      "type": "function"
    },
    {
      "inputs": [],
      "name": "questSupply",
      "outputs": [
        {
          "internalType": "uint256",
          "name": "",
          "type": "uint256"
        }
      ],
      "stateMutability": "view",
      "type": "function"
    },
    {
      "inputs": [],
      "name": "renounceOwnership",
      "outputs": [],
      "stateMutability": "nonpayable",
      "type": "function"
    },
    {
      "inputs": [
        {
          "internalType": "address",
          "name": "from",
          "type": "address"
        },
        {
          "internalType": "address",
          "name": "to",
          "type": "address"
        },
        {
          "internalType": "uint256[]",
          "name": "ids",
          "type": "uint256[]"
        },
        {
          "internalType": "uint256[]",
          "name": "amounts",
          "type": "uint256[]"
        },
        {
          "internalType": "bytes",
          "name": "data",
          "type": "bytes"
        }
      ],
      "name": "safeBatchTransferFrom",
      "outputs": [],
      "stateMutability": "nonpayable",
      "type": "function"
    },
    {
      "inputs": [
        {
          "internalType": "address",
          "name": "from",
          "type": "address"
        },
        {
          "internalType": "address",
          "name": "to",
          "type": "address"
        },
        {
          "internalType": "uint256",
          "name": "id",
          "type": "uint256"
        },
        {
          "internalType": "uint256",
          "name": "amount",
          "type": "uint256"
        },
        {
          "internalType": "bytes",
          "name": "data",
          "type": "bytes"
        }
      ],
      "name": "safeTransferFrom",
      "outputs": [],
      "stateMutability": "nonpayable",
      "type": "function"
    },
    {
      "inputs": [
        {
          "internalType": "address",
          "name": "operator",
          "type": "address"
        },
        {
          "internalType": "bool",
          "name": "approved",
          "type": "bool"
        }
      ],
      "name": "setApprovalForAll",
      "outputs": [],
      "stateMutability": "nonpayable",
      "type": "function"
    },
    {
      "inputs": [
        {
          "internalType": "address",
          "name": "communityPortalAddress",
          "type": "address"
        }
      ],
      "name": "setCommunityPortal",
      "outputs": [],
      "stateMutability": "nonpayable",
      "type": "function"
    },
    {
      "inputs": [
        {
          "internalType": "address",
          "name": "prizePoapAddress",
          "type": "address"
        }
      ],
      "name": "setPrizePoap",
      "outputs": [],
      "stateMutability": "nonpayable",
      "type": "function"
    },
    {
      "inputs": [
        {
          "internalType": "uint256",
          "name": "tokenId",
          "type": "uint256"
        },
        {
          "components": [
            {
              "internalType": "string",
              "name": "title",
              "type": "string"
            },
            {
              "internalType": "string",
              "name": "questURI",
              "type": "string"
            },
            {
              "internalType": "address",
              "name": "questCheckerAddress",
              "type": "address"
            },
            {
              "internalType": "uint32",
              "name": "communityId",
              "type": "uint32"
            },
            {
              "internalType": "uint32",
              "name": "obtainableExp",
              "type": "uint32"
            },
            {
              "internalType": "uint32",
              "name": "obtainablePrizeId",
              "type": "uint32"
            },
            {
              "internalType": "bool",
              "name": "prizeObtainable",
              "type": "bool"
            },
            {
              "internalType": "bool",
              "name": "closed",
              "type": "bool"
            }
          ],
          "internalType": "struct IQuestBoard.Quest",
          "name": "quest",
          "type": "tuple"
        }
      ],
      "name": "setQuest",
      "outputs": [],
      "stateMutability": "nonpayable",
      "type": "function"
    },
    {
      "inputs": [
        {
          "internalType": "address",
          "name": "questCheckerCreaterAddress",
          "type": "address"
        }
      ],
      "name": "setQuestCheckerCreater",
      "outputs": [],
      "stateMutability": "nonpayable",
      "type": "function"
    },
    {
      "inputs": [
        {
          "internalType": "bytes4",
          "name": "interfaceId",
          "type": "bytes4"
        }
      ],
      "name": "supportsInterface",
      "outputs": [
        {
          "internalType": "bool",
          "name": "",
          "type": "bool"
        }
      ],
      "stateMutability": "view",
      "type": "function"
    },
    {
      "inputs": [
        {
          "internalType": "uint256",
          "name": "id",
          "type": "uint256"
        }
      ],
      "name": "totalSupply",
      "outputs": [
        {
          "internalType": "uint256",
          "name": "",
          "type": "uint256"
        }
      ],
      "stateMutability": "view",
      "type": "function"
    },
    {
      "inputs": [
        {
          "internalType": "address",
          "name": "newOwner",
          "type": "address"
        }
      ],
      "name": "transferOwnership",
      "outputs": [],
      "stateMutability": "nonpayable",
      "type": "function"
    },
    {
      "inputs": [
        {
          "internalType": "uint256",
          "name": "tokenId",
          "type": "uint256"
        }
      ],
      "name": "uri",
      "outputs": [
        {
          "internalType": "string",
          "name": "",
          "type": "string"
        }
      ],
      "stateMutability": "view",
      "type": "function"
    }
  ],
  "bytecode": "0x60806040523480156200001157600080fd5b506040516200617338038062006173833981810160405281019062000037919062000290565b60405180602001604052806000815250620000676200005b6200014560201b60201c565b6200014d60201b60201c565b62000078816200021160201b60201c565b5082600560006101000a81548173ffffffffffffffffffffffffffffffffffffffff021916908373ffffffffffffffffffffffffffffffffffffffff16021790555081600660006101000a81548173ffffffffffffffffffffffffffffffffffffffff021916908373ffffffffffffffffffffffffffffffffffffffff16021790555080600760006101000a81548173ffffffffffffffffffffffffffffffffffffffff021916908373ffffffffffffffffffffffffffffffffffffffff1602179055505050506200064d565b600033905090565b60008060009054906101000a900473ffffffffffffffffffffffffffffffffffffffff169050816000806101000a81548173ffffffffffffffffffffffffffffffffffffffff021916908373ffffffffffffffffffffffffffffffffffffffff1602179055508173ffffffffffffffffffffffffffffffffffffffff168173ffffffffffffffffffffffffffffffffffffffff167f8be0079c531659141344cd1fd0a4f28419497f9722a3daafe3b4186f6b6457e060405160405180910390a35050565b806003908162000222919062000566565b5050565b600080fd5b600073ffffffffffffffffffffffffffffffffffffffff82169050919050565b600062000258826200022b565b9050919050565b6200026a816200024b565b81146200027657600080fd5b50565b6000815190506200028a816200025f565b92915050565b600080600060608486031215620002ac57620002ab62000226565b5b6000620002bc8682870162000279565b9350506020620002cf8682870162000279565b9250506040620002e28682870162000279565b9150509250925092565b600081519050919050565b7f4e487b7100000000000000000000000000000000000000000000000000000000600052604160045260246000fd5b7f4e487b7100000000000000000000000000000000000000000000000000000000600052602260045260246000fd5b600060028204905060018216806200036e57607f821691505b60208210810362000384576200038362000326565b5b50919050565b60008190508160005260206000209050919050565b60006020601f8301049050919050565b600082821b905092915050565b600060088302620003ee7fffffffffffffffffffffffffffffffffffffffffffffffffffffffffffffffff82620003af565b620003fa8683620003af565b95508019841693508086168417925050509392505050565b6000819050919050565b6000819050919050565b600062000447620004416200043b8462000412565b6200041c565b62000412565b9050919050565b6000819050919050565b620004638362000426565b6200047b62000472826200044e565b848454620003bc565b825550505050565b600090565b6200049262000483565b6200049f81848462000458565b505050565b5b81811015620004c757620004bb60008262000488565b600181019050620004a5565b5050565b601f8211156200051657620004e0816200038a565b620004eb846200039f565b81016020851015620004fb578190505b620005136200050a856200039f565b830182620004a4565b50505b505050565b600082821c905092915050565b60006200053b600019846008026200051b565b1980831691505092915050565b600062000556838362000528565b9150826002028217905092915050565b6200057182620002ec565b67ffffffffffffffff8111156200058d576200058c620002f7565b5b62000599825462000355565b620005a6828285620004cb565b600060209050601f831160018114620005de5760008415620005c9578287015190505b620005d5858262000548565b86555062000645565b601f198416620005ee866200038a565b60005b828110156200061857848901518255600182019150602085019450602081019050620005f1565b8683101562000638578489015162000634601f89168262000528565b8355505b6001600288020188555050505b505050505050565b615b16806200065d6000396000f3fe608060405234801561001057600080fd5b50600436106101c35760003560e01c80637a5984c4116100f9578063b7184a1e11610097578063bd85b03911610071578063bd85b0391461051c578063e985e9c51461054c578063f242432a1461057c578063f2fde38b14610598576101c3565b8063b7184a1e146104c4578063b72d092a146104e0578063bcbd2e2f146104fe576101c3565b80638fb32cc6116100d35780638fb32cc6146104245780639e83a92114610440578063a22cb46514610471578063a2415f5d1461048d576101c3565b80637a5984c4146103ce578063845bb257146103ea5780638da5cb5b14610406576101c3565b80633eea270c116101665780634f558e79116101405780634f558e7914610346578063656f411e146103765780636e65663014610394578063715018a6146103c4576101c3565b80633eea270c146102dc57806342dd9a8a146102fa5780634e1273f414610316576101c3565b80630e89341c116101a25780630e89341c146102445780631b3d8c96146102745780632c771a4f146102905780632eb2c2d6146102c0576101c3565b8062fdd58e146101c857806301ffc9a7146101f85780630495189114610228575b600080fd5b6101e260048036038101906101dd91906134bd565b6105b4565b6040516101ef919061350c565b60405180910390f35b610212600480360381019061020d919061357f565b61067d565b60405161021f91906135c7565b60405180910390f35b610242600480360381019061023d919061361e565b61075f565b005b61025e6004803603810190610259919061364b565b610c38565b60405161026b9190613708565b60405180910390f35b61028e6004803603810190610289919061372a565b610cef565b005b6102aa60048036038101906102a59190613962565b610d3b565b6040516102b79190613a98565b60405180910390f35b6102da60048036038101906102d59190613b6f565b610f17565b005b6102e4610fb8565b6040516102f19190613c9d565b60405180910390f35b610314600480360381019061030f9190613e91565b610fde565b005b610330600480360381019061032b9190613eed565b611138565b60405161033d9190614023565b60405180910390f35b610360600480360381019061035b919061364b565b611251565b60405161036d91906135c7565b60405180910390f35b61037e611265565b60405161038b919061350c565b60405180910390f35b6103ae60048036038101906103a991906134bd565b611272565b6040516103bb91906135c7565b60405180910390f35b6103cc6112a1565b005b6103e860048036038101906103e3919061361e565b6112b5565b005b61040460048036038101906103ff919061372a565b611314565b005b61040e611360565b60405161041b9190614054565b60405180910390f35b61043e6004803603810190610439919061406f565b611389565b005b61045a6004803603810190610455919061415d565b611806565b60405161046892919061437e565b60405180910390f35b61048b600480360381019061048691906143ae565b611b8d565b005b6104a760048036038101906104a2919061364b565b611ba3565b6040516104bb9897969594939291906143fd565b60405180910390f35b6104de60048036038101906104d9919061372a565b611d75565b005b6104e8611dc1565b6040516104f591906144aa565b60405180910390f35b610506611de7565b60405161051391906144e6565b60405180910390f35b6105366004803603810190610531919061364b565b611e0d565b604051610543919061350c565b60405180910390f35b61056660048036038101906105619190614501565b611e2a565b60405161057391906135c7565b60405180910390f35b61059660048036038101906105919190614541565b611ebe565b005b6105b260048036038101906105ad919061372a565b611f5f565b005b60008073ffffffffffffffffffffffffffffffffffffffff168373ffffffffffffffffffffffffffffffffffffffff1603610624576040517f08c379a000000000000000000000000000000000000000000000000000000000815260040161061b9061464a565b60405180910390fd5b6001600083815260200190815260200160002060008473ffffffffffffffffffffffffffffffffffffffff1673ffffffffffffffffffffffffffffffffffffffff16815260200190815260200160002054905092915050565b60007fd9b67a26000000000000000000000000000000000000000000000000000000007bffffffffffffffffffffffffffffffffffffffffffffffffffffffff1916827bffffffffffffffffffffffffffffffffffffffffffffffffffffffff1916148061074857507f0e89341c000000000000000000000000000000000000000000000000000000007bffffffffffffffffffffffffffffffffffffffffffffffffffffffff1916827bffffffffffffffffffffffffffffffffffffffffffffffffffffffff1916145b80610758575061075782611fe2565b5b9050919050565b6000610771338363ffffffff166105b4565b146107b1576040517f08c379a00000000000000000000000000000000000000000000000000000000081526004016107a8906146b6565b60405180910390fd5b600060088263ffffffff16815481106107cd576107cc6146d6565b5b906000526020600020906004020160020160009054906101000a900473ffffffffffffffffffffffffffffffffffffffff1690508073ffffffffffffffffffffffffffffffffffffffff1663515af40b336040518263ffffffff1660e01b815260040161083a9190614054565b602060405180830381865afa158015610857573d6000803e3d6000fd5b505050506040513d601f19601f8201168201806040525081019061087b919061471a565b6108ba576040517f08c379a00000000000000000000000000000000000000000000000000000000081526004016108b1906147b9565b60405180910390fd5b610902338363ffffffff1660016040518060400160405280600481526020017f307830300000000000000000000000000000000000000000000000000000000081525061204c565b600960003373ffffffffffffffffffffffffffffffffffffffff1673ffffffffffffffffffffffffffffffffffffffff16815260200190815260200160002060008363ffffffff16815260200190815260200160002060009054906101000a900460ff16610bea576001600960003373ffffffffffffffffffffffffffffffffffffffff1673ffffffffffffffffffffffffffffffffffffffff16815260200190815260200160002060008463ffffffff16815260200190815260200160002060006101000a81548160ff021916908315150217905550600560009054906101000a900473ffffffffffffffffffffffffffffffffffffffff1673ffffffffffffffffffffffffffffffffffffffff16638fbbf96660088463ffffffff1681548110610a3157610a306146d6565b5b906000526020600020906004020160020160149054906101000a900463ffffffff163360088663ffffffff1681548110610a6e57610a6d6146d6565b5b906000526020600020906004020160020160189054906101000a900463ffffffff166040518463ffffffff1660e01b8152600401610aae939291906147d9565b600060405180830381600087803b158015610ac857600080fd5b505af1158015610adc573d6000803e3d6000fd5b5050505060088263ffffffff1681548110610afa57610af96146d6565b5b906000526020600020906004020160030160009054906101000a900460ff1615610be957600760009054906101000a900473ffffffffffffffffffffffffffffffffffffffff1673ffffffffffffffffffffffffffffffffffffffff1663add24fc060088463ffffffff1681548110610b7657610b756146d6565b5b9060005260206000209060040201600201601c9054906101000a900463ffffffff16336040518363ffffffff1660e01b8152600401610bb6929190614841565b600060405180830381600087803b158015610bd057600080fd5b505af1158015610be4573d6000803e3d6000fd5b505050505b5b3373ffffffffffffffffffffffffffffffffffffffff168263ffffffff167f57e4b8633fffe5b216a848741e61b8b1ceabf6e1acb0fe7abc6d626db61f0c1060405160405180910390a35050565b606060088281548110610c4e57610c4d6146d6565b5b90600052602060002090600402016001018054610c6a90614899565b80601f0160208091040260200160405190810160405280929190818152602001828054610c9690614899565b8015610ce35780601f10610cb857610100808354040283529160200191610ce3565b820191906000526020600020905b815481529060010190602001808311610cc657829003601f168201915b50505050509050919050565b610cf76121fd565b80600660006101000a81548173ffffffffffffffffffffffffffffffffffffffff021916908373ffffffffffffffffffffffffffffffffffffffff16021790555050565b60608151835114610d81576040517f08c379a0000000000000000000000000000000000000000000000000000000008152600401610d789061493c565b60405180910390fd5b6000835167ffffffffffffffff811115610d9e57610d9d61375c565b5b604051908082528060200260200182016040528015610dcc5781602001602082028036833780820191505090505b50905060005b8451811015610f0c5760006008868381518110610df257610df16146d6565b5b602002602001015181548110610e0b57610e0a6146d6565b5b906000526020600020906004020160020160009054906101000a900473ffffffffffffffffffffffffffffffffffffffff1690508073ffffffffffffffffffffffffffffffffffffffff1663515af40b868481518110610e6e57610e6d6146d6565b5b60200260200101516040518263ffffffff1660e01b8152600401610e929190614054565b602060405180830381865afa158015610eaf573d6000803e3d6000fd5b505050506040513d601f19601f82011682018060405250810190610ed3919061471a565b838381518110610ee657610ee56146d6565b5b602002602001019015159081151581525050508080610f049061498b565b915050610dd2565b508091505092915050565b610f1f61227b565b73ffffffffffffffffffffffffffffffffffffffff168573ffffffffffffffffffffffffffffffffffffffff161480610f655750610f6485610f5f61227b565b611e2a565b5b610fa4576040517f08c379a0000000000000000000000000000000000000000000000000000000008152600401610f9b90614a45565b60405180910390fd5b610fb18585858585612283565b5050505050565b600760009054906101000a900473ffffffffffffffffffffffffffffffffffffffff1681565b610fe66121fd565b8060088381548110610ffb57610ffa6146d6565b5b9060005260206000209060040201600082015181600001908161101e9190614c07565b5060208201518160010190816110349190614c07565b5060408201518160020160006101000a81548173ffffffffffffffffffffffffffffffffffffffff021916908373ffffffffffffffffffffffffffffffffffffffff16021790555060608201518160020160146101000a81548163ffffffff021916908363ffffffff16021790555060808201518160020160186101000a81548163ffffffff021916908363ffffffff16021790555060a082015181600201601c6101000a81548163ffffffff021916908363ffffffff16021790555060c08201518160030160006101000a81548160ff02191690831515021790555060e08201518160030160016101000a81548160ff0219169083151502179055509050505050565b6060815183511461117e576040517f08c379a000000000000000000000000000000000000000000000000000000000815260040161117590614d4b565b60405180910390fd5b6000835167ffffffffffffffff81111561119b5761119a61375c565b5b6040519080825280602002602001820160405280156111c95781602001602082028036833780820191505090505b50905060005b8451811015611246576112168582815181106111ee576111ed6146d6565b5b6020026020010151858381518110611209576112086146d6565b5b60200260200101516105b4565b828281518110611229576112286146d6565b5b6020026020010181815250508061123f9061498b565b90506111cf565b508091505092915050565b60008061125d83611e0d565b119050919050565b6000600880549050905090565b60096020528160005260406000206020528060005260406000206000915091509054906101000a900460ff1681565b6112a96121fd565b6112b360006125a7565b565b6112c7338263ffffffff16600161266b565b3373ffffffffffffffffffffffffffffffffffffffff168163ffffffff167ff2c5d0dd7efdbd39dee9dc9f42699c09e267561ecf320bfe6a6135129336325260405160405180910390a350565b61131c6121fd565b80600560006101000a81548173ffffffffffffffffffffffffffffffffffffffff021916908373ffffffffffffffffffffffffffffffffffffffff16021790555050565b60008060009054906101000a900473ffffffffffffffffffffffffffffffffffffffff16905090565b6113916121fd565b60008563ffffffff16116113da576040517f08c379a00000000000000000000000000000000000000000000000000000000081526004016113d190614db7565b60405180910390fd5b6000600560009054906101000a900473ffffffffffffffffffffffffffffffffffffffff1673ffffffffffffffffffffffffffffffffffffffff1663ca83747e886040518263ffffffff1660e01b81526004016114379190614dd7565b600060405180830381865afa158015611454573d6000803e3d6000fd5b505050506040513d6000823e3d601f19601f8201168201806040525081019061147d9190614e77565b90915090508091505080156114c7576040517f08c379a00000000000000000000000000000000000000000000000000000000081526004016114be90614f32565b60405180910390fd5b6114cf6133a4565b8981600001819052508881602001819052506000600660009054906101000a900473ffffffffffffffffffffffffffffffffffffffff1673ffffffffffffffffffffffffffffffffffffffff16631d79322886866040518363ffffffff1660e01b8152600401611540929190614f61565b6020604051808303816000875af115801561155f573d6000803e3d6000fd5b505050506040513d601f19601f820116820180604052508101906115839190614f8a565b905080826040019073ffffffffffffffffffffffffffffffffffffffff16908173ffffffffffffffffffffffffffffffffffffffff168152505088826060019063ffffffff16908163ffffffff168152505087826080019063ffffffff16908163ffffffff1681525050868260a0019063ffffffff16908163ffffffff1681525050858260c0019015159081151581525050600882908060018154018082558091505060019003906000526020600020906004020160009091909190915060008201518160000190816116569190614c07565b50602082015181600101908161166c9190614c07565b5060408201518160020160006101000a81548173ffffffffffffffffffffffffffffffffffffffff021916908373ffffffffffffffffffffffffffffffffffffffff16021790555060608201518160020160146101000a81548163ffffffff021916908363ffffffff16021790555060808201518160020160186101000a81548163ffffffff021916908363ffffffff16021790555060a082015181600201601c6101000a81548163ffffffff021916908363ffffffff16021790555060c08201518160030160006101000a81548160ff02191690831515021790555060e08201518160030160016101000a81548160ff02191690831515021790555050508373ffffffffffffffffffffffffffffffffffffffff16826060015163ffffffff167f7a70dde73e1ac29a245567050834adc2034585a87fc3f45936702c2c1f94434260016008805490506117c09190614fb7565b85600001518660200151876040015188608001518960a001518a60c001516040516117f19796959493929190614feb565b60405180910390a35050505050505050505050565b6060600080831161184c576040517f08c379a0000000000000000000000000000000000000000000000000000000008152600401611843906150b4565b60405180910390fd5b60008390506008805490508460018761186591906150d4565b61186f9190615108565b111561187e5760088054905090505b60008167ffffffffffffffff81111561189a5761189961375c565b5b6040519080825280602002602001820160405280156118d357816020015b6118c06133a4565b8152602001906001900390816118b85790505b50905060005b82811015611b785760088187896118f09190615108565b6118fa91906150d4565b8154811061190b5761190a6146d6565b5b90600052602060002090600402016040518061010001604052908160008201805461193590614899565b80601f016020809104026020016040519081016040528092919081815260200182805461196190614899565b80156119ae5780601f10611983576101008083540402835291602001916119ae565b820191906000526020600020905b81548152906001019060200180831161199157829003601f168201915b505050505081526020016001820180546119c790614899565b80601f01602080910402602001604051908101604052809291908181526020018280546119f390614899565b8015611a405780601f10611a1557610100808354040283529160200191611a40565b820191906000526020600020905b815481529060010190602001808311611a2357829003601f168201915b505050505081526020016002820160009054906101000a900473ffffffffffffffffffffffffffffffffffffffff1673ffffffffffffffffffffffffffffffffffffffff1673ffffffffffffffffffffffffffffffffffffffff1681526020016002820160149054906101000a900463ffffffff1663ffffffff1663ffffffff1681526020016002820160189054906101000a900463ffffffff1663ffffffff1663ffffffff16815260200160028201601c9054906101000a900463ffffffff1663ffffffff1663ffffffff1681526020016003820160009054906101000a900460ff161515151581526020016003820160019054906101000a900460ff161515151581525050828281518110611b5a57611b596146d6565b5b60200260200101819052508080611b709061498b565b9150506118d9565b50806008805490509350935050509250929050565b611b9f611b9861227b565b83836128b3565b5050565b60088181548110611bb357600080fd5b9060005260206000209060040201600091509050806000018054611bd690614899565b80601f0160208091040260200160405190810160405280929190818152602001828054611c0290614899565b8015611c4f5780601f10611c2457610100808354040283529160200191611c4f565b820191906000526020600020905b815481529060010190602001808311611c3257829003601f168201915b505050505090806001018054611c6490614899565b80601f0160208091040260200160405190810160405280929190818152602001828054611c9090614899565b8015611cdd5780601f10611cb257610100808354040283529160200191611cdd565b820191906000526020600020905b815481529060010190602001808311611cc057829003601f168201915b5050505050908060020160009054906101000a900473ffffffffffffffffffffffffffffffffffffffff16908060020160149054906101000a900463ffffffff16908060020160189054906101000a900463ffffffff169080600201601c9054906101000a900463ffffffff16908060030160009054906101000a900460ff16908060030160019054906101000a900460ff16905088565b611d7d6121fd565b80600760006101000a81548173ffffffffffffffffffffffffffffffffffffffff021916908373ffffffffffffffffffffffffffffffffffffffff16021790555050565b600560009054906101000a900473ffffffffffffffffffffffffffffffffffffffff1681565b600660009054906101000a900473ffffffffffffffffffffffffffffffffffffffff1681565b600060046000838152602001908152602001600020549050919050565b6000600260008473ffffffffffffffffffffffffffffffffffffffff1673ffffffffffffffffffffffffffffffffffffffff16815260200190815260200160002060008373ffffffffffffffffffffffffffffffffffffffff1673ffffffffffffffffffffffffffffffffffffffff16815260200190815260200160002060009054906101000a900460ff16905092915050565b611ec661227b565b73ffffffffffffffffffffffffffffffffffffffff168573ffffffffffffffffffffffffffffffffffffffff161480611f0c5750611f0b85611f0661227b565b611e2a565b5b611f4b576040517f08c379a0000000000000000000000000000000000000000000000000000000008152600401611f4290614a45565b60405180910390fd5b611f588585858585612a1f565b5050505050565b611f676121fd565b600073ffffffffffffffffffffffffffffffffffffffff168173ffffffffffffffffffffffffffffffffffffffff1603611fd6576040517f08c379a0000000000000000000000000000000000000000000000000000000008152600401611fcd906151bc565b60405180910390fd5b611fdf816125a7565b50565b60007f01ffc9a7000000000000000000000000000000000000000000000000000000007bffffffffffffffffffffffffffffffffffffffffffffffffffffffff1916827bffffffffffffffffffffffffffffffffffffffffffffffffffffffff1916149050919050565b600073ffffffffffffffffffffffffffffffffffffffff168473ffffffffffffffffffffffffffffffffffffffff16036120bb576040517f08c379a00000000000000000000000000000000000000000000000000000000081526004016120b29061524e565b60405180910390fd5b60006120c561227b565b905060006120d285612cbd565b905060006120df85612cbd565b90506120f083600089858589612d37565b846001600088815260200190815260200160002060008973ffffffffffffffffffffffffffffffffffffffff1673ffffffffffffffffffffffffffffffffffffffff168152602001908152602001600020600082825461215091906150d4565b925050819055508673ffffffffffffffffffffffffffffffffffffffff16600073ffffffffffffffffffffffffffffffffffffffff168473ffffffffffffffffffffffffffffffffffffffff167fc3d58168c5ae7397731d063d5bbf3d657854427343f4c083240f7aacaa2d0f6289896040516121ce92919061526e565b60405180910390a46121e583600089858589612df3565b6121f483600089898989612dfb565b50505050505050565b61220561227b565b73ffffffffffffffffffffffffffffffffffffffff16612223611360565b73ffffffffffffffffffffffffffffffffffffffff1614612279576040517f08c379a0000000000000000000000000000000000000000000000000000000008152600401612270906152e3565b60405180910390fd5b565b600033905090565b81518351146122c7576040517f08c379a00000000000000000000000000000000000000000000000000000000081526004016122be90615375565b60405180910390fd5b600073ffffffffffffffffffffffffffffffffffffffff168473ffffffffffffffffffffffffffffffffffffffff1603612336576040517f08c379a000000000000000000000000000000000000000000000000000000000815260040161232d90615407565b60405180910390fd5b600061234061227b565b9050612350818787878787612d37565b60005b8451811015612504576000858281518110612371576123706146d6565b5b6020026020010151905060008583815181106123905761238f6146d6565b5b6020026020010151905060006001600084815260200190815260200160002060008b73ffffffffffffffffffffffffffffffffffffffff1673ffffffffffffffffffffffffffffffffffffffff16815260200190815260200160002054905081811015612432576040517f08c379a000000000000000000000000000000000000000000000000000000000815260040161242990615499565b60405180910390fd5b8181036001600085815260200190815260200160002060008c73ffffffffffffffffffffffffffffffffffffffff1673ffffffffffffffffffffffffffffffffffffffff16815260200190815260200160002081905550816001600085815260200190815260200160002060008b73ffffffffffffffffffffffffffffffffffffffff1673ffffffffffffffffffffffffffffffffffffffff16815260200190815260200160002060008282546124e991906150d4565b92505081905550505050806124fd9061498b565b9050612353565b508473ffffffffffffffffffffffffffffffffffffffff168673ffffffffffffffffffffffffffffffffffffffff168273ffffffffffffffffffffffffffffffffffffffff167f4a39dc06d4c0dbc64b70af90fd698a233a518aa5d07e595d983b8c0526c8f7fb878760405161257b9291906154b9565b60405180910390a4612591818787878787612df3565b61259f818787878787612fd2565b505050505050565b60008060009054906101000a900473ffffffffffffffffffffffffffffffffffffffff169050816000806101000a81548173ffffffffffffffffffffffffffffffffffffffff021916908373ffffffffffffffffffffffffffffffffffffffff1602179055508173ffffffffffffffffffffffffffffffffffffffff168173ffffffffffffffffffffffffffffffffffffffff167f8be0079c531659141344cd1fd0a4f28419497f9722a3daafe3b4186f6b6457e060405160405180910390a35050565b600073ffffffffffffffffffffffffffffffffffffffff168373ffffffffffffffffffffffffffffffffffffffff16036126da576040517f08c379a00000000000000000000000000000000000000000000000000000000081526004016126d190615562565b60405180910390fd5b60006126e461227b565b905060006126f184612cbd565b905060006126fe84612cbd565b905061271e83876000858560405180602001604052806000815250612d37565b60006001600087815260200190815260200160002060008873ffffffffffffffffffffffffffffffffffffffff1673ffffffffffffffffffffffffffffffffffffffff168152602001908152602001600020549050848110156127b6576040517f08c379a00000000000000000000000000000000000000000000000000000000081526004016127ad906155f4565b60405180910390fd5b8481036001600088815260200190815260200160002060008973ffffffffffffffffffffffffffffffffffffffff1673ffffffffffffffffffffffffffffffffffffffff16815260200190815260200160002081905550600073ffffffffffffffffffffffffffffffffffffffff168773ffffffffffffffffffffffffffffffffffffffff168573ffffffffffffffffffffffffffffffffffffffff167fc3d58168c5ae7397731d063d5bbf3d657854427343f4c083240f7aacaa2d0f62898960405161288492919061526e565b60405180910390a46128aa84886000868660405180602001604052806000815250612df3565b50505050505050565b8173ffffffffffffffffffffffffffffffffffffffff168373ffffffffffffffffffffffffffffffffffffffff1603612921576040517f08c379a000000000000000000000000000000000000000000000000000000000815260040161291890615686565b60405180910390fd5b80600260008573ffffffffffffffffffffffffffffffffffffffff1673ffffffffffffffffffffffffffffffffffffffff16815260200190815260200160002060008473ffffffffffffffffffffffffffffffffffffffff1673ffffffffffffffffffffffffffffffffffffffff16815260200190815260200160002060006101000a81548160ff0219169083151502179055508173ffffffffffffffffffffffffffffffffffffffff168373ffffffffffffffffffffffffffffffffffffffff167f17307eab39ab6107e8899845ad3d59bd9653f200f220920489ca2b5937696c3183604051612a1291906135c7565b60405180910390a3505050565b600073ffffffffffffffffffffffffffffffffffffffff168473ffffffffffffffffffffffffffffffffffffffff1603612a8e576040517f08c379a0000000000000000000000000000000000000000000000000000000008152600401612a8590615407565b60405180910390fd5b6000612a9861227b565b90506000612aa585612cbd565b90506000612ab285612cbd565b9050612ac2838989858589612d37565b60006001600088815260200190815260200160002060008a73ffffffffffffffffffffffffffffffffffffffff1673ffffffffffffffffffffffffffffffffffffffff16815260200190815260200160002054905085811015612b5a576040517f08c379a0000000000000000000000000000000000000000000000000000000008152600401612b5190615499565b60405180910390fd5b8581036001600089815260200190815260200160002060008b73ffffffffffffffffffffffffffffffffffffffff1673ffffffffffffffffffffffffffffffffffffffff16815260200190815260200160002081905550856001600089815260200190815260200160002060008a73ffffffffffffffffffffffffffffffffffffffff1673ffffffffffffffffffffffffffffffffffffffff1681526020019081526020016000206000828254612c1191906150d4565b925050819055508773ffffffffffffffffffffffffffffffffffffffff168973ffffffffffffffffffffffffffffffffffffffff168573ffffffffffffffffffffffffffffffffffffffff167fc3d58168c5ae7397731d063d5bbf3d657854427343f4c083240f7aacaa2d0f628a8a604051612c8e92919061526e565b60405180910390a4612ca4848a8a86868a612df3565b612cb2848a8a8a8a8a612dfb565b505050505050505050565b60606000600167ffffffffffffffff811115612cdc57612cdb61375c565b5b604051908082528060200260200182016040528015612d0a5781602001602082028036833780820191505090505b5090508281600081518110612d2257612d216146d6565b5b60200260200101818152505080915050919050565b600073ffffffffffffffffffffffffffffffffffffffff168573ffffffffffffffffffffffffffffffffffffffff161480612d9e5750600073ffffffffffffffffffffffffffffffffffffffff168473ffffffffffffffffffffffffffffffffffffffff16145b612ddd576040517f08c379a0000000000000000000000000000000000000000000000000000000008152600401612dd4906156f2565b60405180910390fd5b612deb8686868686866131a9565b505050505050565b505050505050565b612e1a8473ffffffffffffffffffffffffffffffffffffffff16613379565b15612fca578373ffffffffffffffffffffffffffffffffffffffff1663f23a6e6187878686866040518663ffffffff1660e01b8152600401612e60959493929190615767565b6020604051808303816000875af1925050508015612e9c57506040513d601f19601f82011682018060405250810190612e9991906157d6565b60015b612f4157612ea8615810565b806308c379a003612f045750612ebc615832565b80612ec75750612f06565b806040517f08c379a0000000000000000000000000000000000000000000000000000000008152600401612efb9190613708565b60405180910390fd5b505b6040517f08c379a0000000000000000000000000000000000000000000000000000000008152600401612f3890615934565b60405180910390fd5b63f23a6e6160e01b7bffffffffffffffffffffffffffffffffffffffffffffffffffffffff1916817bffffffffffffffffffffffffffffffffffffffffffffffffffffffff191614612fc8576040517f08c379a0000000000000000000000000000000000000000000000000000000008152600401612fbf906159c6565b60405180910390fd5b505b505050505050565b612ff18473ffffffffffffffffffffffffffffffffffffffff16613379565b156131a1578373ffffffffffffffffffffffffffffffffffffffff1663bc197c8187878686866040518663ffffffff1660e01b81526004016130379594939291906159e6565b6020604051808303816000875af192505050801561307357506040513d601f19601f8201168201806040525081019061307091906157d6565b60015b6131185761307f615810565b806308c379a0036130db5750613093615832565b8061309e57506130dd565b806040517f08c379a00000000000000000000000000000000000000000000000000000000081526004016130d29190613708565b60405180910390fd5b505b6040517f08c379a000000000000000000000000000000000000000000000000000000000815260040161310f90615934565b60405180910390fd5b63bc197c8160e01b7bffffffffffffffffffffffffffffffffffffffffffffffffffffffff1916817bffffffffffffffffffffffffffffffffffffffffffffffffffffffff19161461319f576040517f08c379a0000000000000000000000000000000000000000000000000000000008152600401613196906159c6565b60405180910390fd5b505b505050505050565b6131b786868686868661339c565b600073ffffffffffffffffffffffffffffffffffffffff168573ffffffffffffffffffffffffffffffffffffffff16036132685760005b83518110156132665782818151811061320a576132096146d6565b5b602002602001015160046000868481518110613229576132286146d6565b5b60200260200101518152602001908152602001600020600082825461324e91906150d4565b925050819055508061325f9061498b565b90506131ee565b505b600073ffffffffffffffffffffffffffffffffffffffff168473ffffffffffffffffffffffffffffffffffffffff16036133715760005b835181101561336f5760008482815181106132bd576132bc6146d6565b5b6020026020010151905060008483815181106132dc576132db6146d6565b5b6020026020010151905060006004600084815260200190815260200160002054905081811015613341576040517f08c379a000000000000000000000000000000000000000000000000000000000815260040161333890615ac0565b60405180910390fd5b8181036004600085815260200190815260200160002081905550505050806133689061498b565b905061329f565b505b505050505050565b6000808273ffffffffffffffffffffffffffffffffffffffff163b119050919050565b505050505050565b6040518061010001604052806060815260200160608152602001600073ffffffffffffffffffffffffffffffffffffffff168152602001600063ffffffff168152602001600063ffffffff168152602001600063ffffffff1681526020016000151581526020016000151581525090565b6000604051905090565b600080fd5b600080fd5b600073ffffffffffffffffffffffffffffffffffffffff82169050919050565b600061345482613429565b9050919050565b61346481613449565b811461346f57600080fd5b50565b6000813590506134818161345b565b92915050565b6000819050919050565b61349a81613487565b81146134a557600080fd5b50565b6000813590506134b781613491565b92915050565b600080604083850312156134d4576134d361341f565b5b60006134e285828601613472565b92505060206134f3858286016134a8565b9150509250929050565b61350681613487565b82525050565b600060208201905061352160008301846134fd565b92915050565b60007fffffffff0000000000000000000000000000000000000000000000000000000082169050919050565b61355c81613527565b811461356757600080fd5b50565b60008135905061357981613553565b92915050565b6000602082840312156135955761359461341f565b5b60006135a38482850161356a565b91505092915050565b60008115159050919050565b6135c1816135ac565b82525050565b60006020820190506135dc60008301846135b8565b92915050565b600063ffffffff82169050919050565b6135fb816135e2565b811461360657600080fd5b50565b600081359050613618816135f2565b92915050565b6000602082840312156136345761363361341f565b5b600061364284828501613609565b91505092915050565b6000602082840312156136615761366061341f565b5b600061366f848285016134a8565b91505092915050565b600081519050919050565b600082825260208201905092915050565b60005b838110156136b2578082015181840152602081019050613697565b60008484015250505050565b6000601f19601f8301169050919050565b60006136da82613678565b6136e48185613683565b93506136f4818560208601613694565b6136fd816136be565b840191505092915050565b6000602082019050818103600083015261372281846136cf565b905092915050565b6000602082840312156137405761373f61341f565b5b600061374e84828501613472565b91505092915050565b600080fd5b7f4e487b7100000000000000000000000000000000000000000000000000000000600052604160045260246000fd5b613794826136be565b810181811067ffffffffffffffff821117156137b3576137b261375c565b5b80604052505050565b60006137c6613415565b90506137d2828261378b565b919050565b600067ffffffffffffffff8211156137f2576137f161375c565b5b602082029050602081019050919050565b600080fd5b600061381b613816846137d7565b6137bc565b9050808382526020820190506020840283018581111561383e5761383d613803565b5b835b81811015613867578061385388826134a8565b845260208401935050602081019050613840565b5050509392505050565b600082601f83011261388657613885613757565b5b8135613896848260208601613808565b91505092915050565b600067ffffffffffffffff8211156138ba576138b961375c565b5b602082029050602081019050919050565b60006138de6138d98461389f565b6137bc565b9050808382526020820190506020840283018581111561390157613900613803565b5b835b8181101561392a57806139168882613472565b845260208401935050602081019050613903565b5050509392505050565b600082601f83011261394957613948613757565b5b81356139598482602086016138cb565b91505092915050565b600080604083850312156139795761397861341f565b5b600083013567ffffffffffffffff81111561399757613996613424565b5b6139a385828601613871565b925050602083013567ffffffffffffffff8111156139c4576139c3613424565b5b6139d085828601613934565b9150509250929050565b600081519050919050565b600082825260208201905092915050565b6000819050602082019050919050565b613a0f816135ac565b82525050565b6000613a218383613a06565b60208301905092915050565b6000602082019050919050565b6000613a45826139da565b613a4f81856139e5565b9350613a5a836139f6565b8060005b83811015613a8b578151613a728882613a15565b9750613a7d83613a2d565b925050600181019050613a5e565b5085935050505092915050565b60006020820190508181036000830152613ab28184613a3a565b905092915050565b600080fd5b600067ffffffffffffffff821115613ada57613ad961375c565b5b613ae3826136be565b9050602081019050919050565b82818337600083830152505050565b6000613b12613b0d84613abf565b6137bc565b905082815260208101848484011115613b2e57613b2d613aba565b5b613b39848285613af0565b509392505050565b600082601f830112613b5657613b55613757565b5b8135613b66848260208601613aff565b91505092915050565b600080600080600060a08688031215613b8b57613b8a61341f565b5b6000613b9988828901613472565b9550506020613baa88828901613472565b945050604086013567ffffffffffffffff811115613bcb57613bca613424565b5b613bd788828901613871565b935050606086013567ffffffffffffffff811115613bf857613bf7613424565b5b613c0488828901613871565b925050608086013567ffffffffffffffff811115613c2557613c24613424565b5b613c3188828901613b41565b9150509295509295909350565b6000819050919050565b6000613c63613c5e613c5984613429565b613c3e565b613429565b9050919050565b6000613c7582613c48565b9050919050565b6000613c8782613c6a565b9050919050565b613c9781613c7c565b82525050565b6000602082019050613cb26000830184613c8e565b92915050565b600080fd5b600080fd5b600067ffffffffffffffff821115613cdd57613cdc61375c565b5b613ce6826136be565b9050602081019050919050565b6000613d06613d0184613cc2565b6137bc565b905082815260208101848484011115613d2257613d21613aba565b5b613d2d848285613af0565b509392505050565b600082601f830112613d4a57613d49613757565b5b8135613d5a848260208601613cf3565b91505092915050565b613d6c816135ac565b8114613d7757600080fd5b50565b600081359050613d8981613d63565b92915050565b60006101008284031215613da657613da5613cb8565b5b613db16101006137bc565b9050600082013567ffffffffffffffff811115613dd157613dd0613cbd565b5b613ddd84828501613d35565b600083015250602082013567ffffffffffffffff811115613e0157613e00613cbd565b5b613e0d84828501613d35565b6020830152506040613e2184828501613472565b6040830152506060613e3584828501613609565b6060830152506080613e4984828501613609565b60808301525060a0613e5d84828501613609565b60a08301525060c0613e7184828501613d7a565b60c08301525060e0613e8584828501613d7a565b60e08301525092915050565b60008060408385031215613ea857613ea761341f565b5b6000613eb6858286016134a8565b925050602083013567ffffffffffffffff811115613ed757613ed6613424565b5b613ee385828601613d8f565b9150509250929050565b60008060408385031215613f0457613f0361341f565b5b600083013567ffffffffffffffff811115613f2257613f21613424565b5b613f2e85828601613934565b925050602083013567ffffffffffffffff811115613f4f57613f4e613424565b5b613f5b85828601613871565b9150509250929050565b600081519050919050565b600082825260208201905092915050565b6000819050602082019050919050565b613f9a81613487565b82525050565b6000613fac8383613f91565b60208301905092915050565b6000602082019050919050565b6000613fd082613f65565b613fda8185613f70565b9350613fe583613f81565b8060005b83811015614016578151613ffd8882613fa0565b975061400883613fb8565b925050600181019050613fe9565b5085935050505092915050565b6000602082019050818103600083015261403d8184613fc5565b905092915050565b61404e81613449565b82525050565b60006020820190506140696000830184614045565b92915050565b600080600080600080600080610100898b0312156140905761408f61341f565b5b600089013567ffffffffffffffff8111156140ae576140ad613424565b5b6140ba8b828c01613d35565b985050602089013567ffffffffffffffff8111156140db576140da613424565b5b6140e78b828c01613d35565b97505060406140f88b828c01613609565b96505060606141098b828c01613609565b955050608061411a8b828c01613609565b94505060a061412b8b828c01613d7a565b93505060c061413c8b828c0161356a565b92505060e061414d8b828c01613472565b9150509295985092959890939650565b600080604083850312156141745761417361341f565b5b6000614182858286016134a8565b9250506020614193858286016134a8565b9150509250929050565b600081519050919050565b600082825260208201905092915050565b6000819050602082019050919050565b600082825260208201905092915050565b60006141e582613678565b6141ef81856141c9565b93506141ff818560208601613694565b614208816136be565b840191505092915050565b61421c81613449565b82525050565b61422b816135e2565b82525050565b600061010083016000830151848203600086015261424f82826141da565b9150506020830151848203602086015261426982826141da565b915050604083015161427e6040860182614213565b5060608301516142916060860182614222565b5060808301516142a46080860182614222565b5060a08301516142b760a0860182614222565b5060c08301516142ca60c0860182613a06565b5060e08301516142dd60e0860182613a06565b508091505092915050565b60006142f48383614231565b905092915050565b6000602082019050919050565b60006143148261419d565b61431e81856141a8565b935083602082028501614330856141b9565b8060005b8581101561436c578484038952815161434d85826142e8565b9450614358836142fc565b925060208a01995050600181019050614334565b50829750879550505050505092915050565b600060408201905081810360008301526143988185614309565b90506143a760208301846134fd565b9392505050565b600080604083850312156143c5576143c461341f565b5b60006143d385828601613472565b92505060206143e485828601613d7a565b9150509250929050565b6143f7816135e2565b82525050565b6000610100820190508181036000830152614418818b6136cf565b9050818103602083015261442c818a6136cf565b905061443b6040830189614045565b61444860608301886143ee565b61445560808301876143ee565b61446260a08301866143ee565b61446f60c08301856135b8565b61447c60e08301846135b8565b9998505050505050505050565b600061449482613c6a565b9050919050565b6144a481614489565b82525050565b60006020820190506144bf600083018461449b565b92915050565b60006144d082613c6a565b9050919050565b6144e0816144c5565b82525050565b60006020820190506144fb60008301846144d7565b92915050565b600080604083850312156145185761451761341f565b5b600061452685828601613472565b925050602061453785828601613472565b9150509250929050565b600080600080600060a0868803121561455d5761455c61341f565b5b600061456b88828901613472565b955050602061457c88828901613472565b945050604061458d888289016134a8565b935050606061459e888289016134a8565b925050608086013567ffffffffffffffff8111156145bf576145be613424565b5b6145cb88828901613b41565b9150509295509295909350565b7f455243313135353a2061646472657373207a65726f206973206e6f742061207660008201527f616c6964206f776e657200000000000000000000000000000000000000000000602082015250565b6000614634602a83613683565b915061463f826145d8565b604082019050919050565b6000602082019050818103600083015261466381614627565b9050919050565b7f596f75206861766520616c7265616479206d696e746564000000000000000000600082015250565b60006146a0601783613683565b91506146ab8261466a565b602082019050919050565b600060208201905081810360008301526146cf81614693565b9050919050565b7f4e487b7100000000000000000000000000000000000000000000000000000000600052603260045260246000fd5b60008151905061471481613d63565b92915050565b6000602082840312156147305761472f61341f565b5b600061473e84828501614705565b91505092915050565b7f596f752068617665206e6f7420636f6d706c657465642074686973207175657360008201527f74207965742e0000000000000000000000000000000000000000000000000000602082015250565b60006147a3602683613683565b91506147ae82614747565b604082019050919050565b600060208201905081810360008301526147d281614796565b9050919050565b60006060820190506147ee60008301866143ee565b6147fb6020830185614045565b61480860408301846143ee565b949350505050565b600061482b614826614821846135e2565b613c3e565b613487565b9050919050565b61483b81614810565b82525050565b60006040820190506148566000830185614832565b6148636020830184614045565b9392505050565b7f4e487b7100000000000000000000000000000000000000000000000000000000600052602260045260246000fd5b600060028204905060018216806148b157607f821691505b6020821081036148c4576148c361486a565b5b50919050565b7f717565737449647320616e6420757365724c697374206c656e677468206d697360008201527f6d61746368000000000000000000000000000000000000000000000000000000602082015250565b6000614926602583613683565b9150614931826148ca565b604082019050919050565b6000602082019050818103600083015261495581614919565b9050919050565b7f4e487b7100000000000000000000000000000000000000000000000000000000600052601160045260246000fd5b600061499682613487565b91507fffffffffffffffffffffffffffffffffffffffffffffffffffffffffffffffff82036149c8576149c761495c565b5b600182019050919050565b7f455243313135353a2063616c6c6572206973206e6f7420746f6b656e206f776e60008201527f6572206f7220617070726f766564000000000000000000000000000000000000602082015250565b6000614a2f602e83613683565b9150614a3a826149d3565b604082019050919050565b60006020820190508181036000830152614a5e81614a22565b9050919050565b60008190508160005260206000209050919050565b60006020601f8301049050919050565b600082821b905092915050565b600060088302614ac77fffffffffffffffffffffffffffffffffffffffffffffffffffffffffffffffff82614a8a565b614ad18683614a8a565b95508019841693508086168417925050509392505050565b6000614b04614aff614afa84613487565b613c3e565b613487565b9050919050565b6000819050919050565b614b1e83614ae9565b614b32614b2a82614b0b565b848454614a97565b825550505050565b600090565b614b47614b3a565b614b52818484614b15565b505050565b5b81811015614b7657614b6b600082614b3f565b600181019050614b58565b5050565b601f821115614bbb57614b8c81614a65565b614b9584614a7a565b81016020851015614ba4578190505b614bb8614bb085614a7a565b830182614b57565b50505b505050565b600082821c905092915050565b6000614bde60001984600802614bc0565b1980831691505092915050565b6000614bf78383614bcd565b9150826002028217905092915050565b614c1082613678565b67ffffffffffffffff811115614c2957614c2861375c565b5b614c338254614899565b614c3e828285614b7a565b600060209050601f831160018114614c715760008415614c5f578287015190505b614c698582614beb565b865550614cd1565b601f198416614c7f86614a65565b60005b82811015614ca757848901518255600182019150602085019450602081019050614c82565b86831015614cc45784890151614cc0601f891682614bcd565b8355505b6001600288020188555050505b505050505050565b7f455243313135353a206163636f756e747320616e6420696473206c656e67746860008201527f206d69736d617463680000000000000000000000000000000000000000000000602082015250565b6000614d35602983613683565b9150614d4082614cd9565b604082019050919050565b60006020820190508181036000830152614d6481614d28565b9050919050565b7f4e6f7420656e6f756768206f627461696e61626c654578700000000000000000600082015250565b6000614da1601883613683565b9150614dac82614d6b565b602082019050919050565b60006020820190508181036000830152614dd081614d94565b9050919050565b6000602082019050614dec60008301846143ee565b92915050565b6000614e05614e0084613cc2565b6137bc565b905082815260208101848484011115614e2157614e20613aba565b5b614e2c848285613694565b509392505050565b600082601f830112614e4957614e48613757565b5b8151614e59848260208601614df2565b91505092915050565b600081519050614e718161345b565b92915050565b600080600060608486031215614e9057614e8f61341f565b5b600084015167ffffffffffffffff811115614eae57614ead613424565b5b614eba86828701614e34565b9350506020614ecb86828701614e62565b9250506040614edc86828701614705565b9150509250925092565b7f5468697320636f6d6d756e697479206973206e6f74206f70656e640000000000600082015250565b6000614f1c601b83613683565b9150614f2782614ee6565b602082019050919050565b60006020820190508181036000830152614f4b81614f0f565b9050919050565b614f5b81613527565b82525050565b6000604082019050614f766000830185614f52565b614f836020830184614045565b9392505050565b600060208284031215614fa057614f9f61341f565b5b6000614fae84828501614e62565b91505092915050565b6000614fc282613487565b9150614fcd83613487565b9250828203905081811115614fe557614fe461495c565b5b92915050565b600060e082019050615000600083018a6143ee565b818103602083015261501281896136cf565b9050818103604083015261502681886136cf565b90506150356060830187614045565b61504260808301866143ee565b61504f60a08301856143ee565b61505c60c08301846135b8565b98975050505050505050565b7f706167652073697a65206d75737420626520706f736974697665000000000000600082015250565b600061509e601a83613683565b91506150a982615068565b602082019050919050565b600060208201905081810360008301526150cd81615091565b9050919050565b60006150df82613487565b91506150ea83613487565b92508282019050808211156151025761510161495c565b5b92915050565b600061511382613487565b915061511e83613487565b925082820261512c81613487565b915082820484148315176151435761514261495c565b5b5092915050565b7f4f776e61626c653a206e6577206f776e657220697320746865207a65726f206160008201527f6464726573730000000000000000000000000000000000000000000000000000602082015250565b60006151a6602683613683565b91506151b18261514a565b604082019050919050565b600060208201905081810360008301526151d581615199565b9050919050565b7f455243313135353a206d696e7420746f20746865207a65726f2061646472657360008201527f7300000000000000000000000000000000000000000000000000000000000000602082015250565b6000615238602183613683565b9150615243826151dc565b604082019050919050565b600060208201905081810360008301526152678161522b565b9050919050565b600060408201905061528360008301856134fd565b61529060208301846134fd565b9392505050565b7f4f776e61626c653a2063616c6c6572206973206e6f7420746865206f776e6572600082015250565b60006152cd602083613683565b91506152d882615297565b602082019050919050565b600060208201905081810360008301526152fc816152c0565b9050919050565b7f455243313135353a2069647320616e6420616d6f756e7473206c656e6774682060008201527f6d69736d61746368000000000000000000000000000000000000000000000000602082015250565b600061535f602883613683565b915061536a82615303565b604082019050919050565b6000602082019050818103600083015261538e81615352565b9050919050565b7f455243313135353a207472616e7366657220746f20746865207a65726f20616460008201527f6472657373000000000000000000000000000000000000000000000000000000602082015250565b60006153f1602583613683565b91506153fc82615395565b604082019050919050565b60006020820190508181036000830152615420816153e4565b9050919050565b7f455243313135353a20696e73756666696369656e742062616c616e636520666f60008201527f72207472616e7366657200000000000000000000000000000000000000000000602082015250565b6000615483602a83613683565b915061548e82615427565b604082019050919050565b600060208201905081810360008301526154b281615476565b9050919050565b600060408201905081810360008301526154d38185613fc5565b905081810360208301526154e78184613fc5565b90509392505050565b7f455243313135353a206275726e2066726f6d20746865207a65726f206164647260008201527f6573730000000000000000000000000000000000000000000000000000000000602082015250565b600061554c602383613683565b9150615557826154f0565b604082019050919050565b6000602082019050818103600083015261557b8161553f565b9050919050565b7f455243313135353a206275726e20616d6f756e7420657863656564732062616c60008201527f616e636500000000000000000000000000000000000000000000000000000000602082015250565b60006155de602483613683565b91506155e982615582565b604082019050919050565b6000602082019050818103600083015261560d816155d1565b9050919050565b7f455243313135353a2073657474696e6720617070726f76616c2073746174757360008201527f20666f722073656c660000000000000000000000000000000000000000000000602082015250565b6000615670602983613683565b915061567b82615614565b604082019050919050565b6000602082019050818103600083015261569f81615663565b9050919050565b7f43616e6e6f74207472616e7366657220746f206f746865727300000000000000600082015250565b60006156dc601983613683565b91506156e7826156a6565b602082019050919050565b6000602082019050818103600083015261570b816156cf565b9050919050565b600081519050919050565b600082825260208201905092915050565b600061573982615712565b615743818561571d565b9350615753818560208601613694565b61575c816136be565b840191505092915050565b600060a08201905061577c6000830188614045565b6157896020830187614045565b61579660408301866134fd565b6157a360608301856134fd565b81810360808301526157b5818461572e565b90509695505050505050565b6000815190506157d081613553565b92915050565b6000602082840312156157ec576157eb61341f565b5b60006157fa848285016157c1565b91505092915050565b60008160e01c9050919050565b600060033d111561582f5760046000803e61582c600051615803565b90505b90565b600060443d106158bf57615844613415565b60043d036004823e80513d602482011167ffffffffffffffff8211171561586c5750506158bf565b808201805167ffffffffffffffff81111561588a57505050506158bf565b80602083010160043d0385018111156158a75750505050506158bf565b6158b68260200185018661378b565b82955050505050505b90565b7f455243313135353a207472616e7366657220746f206e6f6e2d4552433131353560008201527f526563656976657220696d706c656d656e746572000000000000000000000000602082015250565b600061591e603483613683565b9150615929826158c2565b604082019050919050565b6000602082019050818103600083015261594d81615911565b9050919050565b7f455243313135353a204552433131353552656365697665722072656a6563746560008201527f6420746f6b656e73000000000000000000000000000000000000000000000000602082015250565b60006159b0602883613683565b91506159bb82615954565b604082019050919050565b600060208201905081810360008301526159df816159a3565b9050919050565b600060a0820190506159fb6000830188614045565b615a086020830187614045565b8181036040830152615a1a8186613fc5565b90508181036060830152615a2e8185613fc5565b90508181036080830152615a42818461572e565b90509695505050505050565b7f455243313135353a206275726e20616d6f756e74206578636565647320746f7460008201527f616c537570706c79000000000000000000000000000000000000000000000000602082015250565b6000615aaa602883613683565b9150615ab582615a4e565b604082019050919050565b60006020820190508181036000830152615ad981615a9d565b905091905056fea26469706673582212209fe1b9108170a9a2519ea1977a8f40e46b6af15f9167d7d18fe57615156f7ad064736f6c63430008120033",
  "linkReferences": {},
  "deployedLinkReferences": {}
}